{
  "contractName": "CreateOragnization",
  "abi": [
    {
      "constant": false,
      "inputs": [
        {
          "name": "_reference",
          "type": "address"
        }
      ],
      "name": "createNewOrganization",
      "outputs": [
        {
          "name": "",
          "type": "address"
        }
      ],
      "payable": false,
      "stateMutability": "nonpayable",
      "type": "function"
    }
  ],
  "bytecode": "0x608060405234801561001057600080fd5b50611950806100206000396000f3fe608060405260043610610041576000357c0100000000000000000000000000000000000000000000000000000000900463ffffffff1680632c2268ec14610046575b600080fd5b34801561005257600080fd5b506100956004803603602081101561006957600080fd5b81019080803573ffffffffffffffffffffffffffffffffffffffff1690602001909291905050506100d7565b604051808273ffffffffffffffffffffffffffffffffffffffff1673ffffffffffffffffffffffffffffffffffffffff16815260200191505060405180910390f35b60008082306100e4610175565b808373ffffffffffffffffffffffffffffffffffffffff1673ffffffffffffffffffffffffffffffffffffffff1681526020018273ffffffffffffffffffffffffffffffffffffffff1673ffffffffffffffffffffffffffffffffffffffff16815260200192505050604051809103906000f080158015610169573d6000803e3d6000fd5b50905080915050919050565b60405161179f806101868339019056fe608060405234801561001057600080fd5b5060405160408061179f8339810180604052604081101561003057600080fd5b81019080805190602001909291908051906020019092919050505081600160006101000a81548173ffffffffffffffffffffffffffffffffffffffff021916908373ffffffffffffffffffffffffffffffffffffffff160217905550806000806101000a81548173ffffffffffffffffffffffffffffffffffffffff021916908373ffffffffffffffffffffffffffffffffffffffff16021790555050506116c2806100dd6000396000f3fe6080604052600436106200007f576000357c0100000000000000000000000000000000000000000000000000000000900463ffffffff168063373c4d64146200008457806338bec0f3146200036f578063453f52f514620003c957806351604d9714620003e357806354096813146200048f578063efc81a8c1462000511575b600080fd5b3480156200009157600080fd5b506200032d600480360360c0811015620000aa57600080fd5b8101908080359060200190640100000000811115620000c857600080fd5b820183602082011115620000db57600080fd5b80359060200191846001830284011164010000000083111715620000fe57600080fd5b91908080601f016020809104026020016040519081016040528093929190818152602001838380828437600081840152601f19601f820116905080830192505050505050509192919290803590602001906401000000008111156200016257600080fd5b8201836020820111156200017557600080fd5b803590602001918460018302840111640100000000831117156200019857600080fd5b91908080601f016020809104026020016040519081016040528093929190818152602001838380828437600081840152601f19601f8201169050808301925050505050505091929192908035906020019092919080359060200190929190803590602001906401000000008111156200021057600080fd5b8201836020820111156200022357600080fd5b803590602001918460208302840111640100000000831117156200024657600080fd5b919080806020026020016040519081016040528093929190818152602001838360200280828437600081840152601f19601f82011690508083019250505050505050919291929080359060200190640100000000811115620002a757600080fd5b820183602082011115620002ba57600080fd5b80359060200191846020830284011164010000000083111715620002dd57600080fd5b919080806020026020016040519081016040528093929190818152602001838360200280828437600081840152601f19601f8201169050808301925050505050505091929192905050506200056b565b604051808273ffffffffffffffffffffffffffffffffffffffff1673ffffffffffffffffffffffffffffffffffffffff16815260200191505060405180910390f35b3480156200037c57600080fd5b5062000387620009a1565b604051808273ffffffffffffffffffffffffffffffffffffffff1673ffffffffffffffffffffffffffffffffffffffff16815260200191505060405180910390f35b348015620003d657600080fd5b50620003e1620009c7565b005b348015620003f057600080fd5b5062000436600480360360208110156200040957600080fd5b81019080803573ffffffffffffffffffffffffffffffffffffffff16906020019092919050505062000b05565b6040518080602001828103825283818151815260200191508051906020019060200280838360005b838110156200047b5780820151818401526020810190506200045e565b505050509050019250505060405180910390f35b3480156200049c57600080fd5b506200050f60048036036060811015620004b557600080fd5b81019080803573ffffffffffffffffffffffffffffffffffffffff169060200190929190803573ffffffffffffffffffffffffffffffffffffffff169060200190929190803560ff16906020019092919050505062000c77565b005b3480156200051e57600080fd5b506200052962000daf565b604051808273ffffffffffffffffffffffffffffffffffffffff1673ffffffffffffffffffffffffffffffffffffffff16815260200191505060405180910390f35b60008686868686866200057d62000dd4565b808060200180602001878152602001868152602001806020018060200185810385528b818151815260200191508051906020019080838360005b83811015620005d4578082015181840152602081019050620005b7565b50505050905090810190601f168015620006025780820380516001836020036101000a031916815260200191505b5085810384528a818151815260200191508051906020019080838360005b838110156200063d57808201518184015260208101905062000620565b50505050905090810190601f1680156200066b5780820380516001836020036101000a031916815260200191505b50858103835287818151815260200191508051906020019060200280838360005b83811015620006a95780820151818401526020810190506200068c565b50505050905001858103825286818151815260200191508051906020019060200280838360005b83811015620006ed578082015181840152602081019050620006d0565b505050509050019a5050505050505050505050604051809103906000f0801580156200071d573d6000803e3d6000fd5b50600560006101000a81548173ffffffffffffffffffffffffffffffffffffffff021916908373ffffffffffffffffffffffffffffffffffffffff160217905550600560009054906101000a900473ffffffffffffffffffffffffffffffffffffffff16600560006101000a81548173ffffffffffffffffffffffffffffffffffffffff021916908373ffffffffffffffffffffffffffffffffffffffff1602179055506007806000600560009054906101000a900473ffffffffffffffffffffffffffffffffffffffff1673ffffffffffffffffffffffffffffffffffffffff1673ffffffffffffffffffffffffffffffffffffffff168152602001908152602001600020819055507f6501c9546c19e0c264ea977f2f67f10185bcb77814fd738d81c7df40358af7af87600560009054906101000a900473ffffffffffffffffffffffffffffffffffffffff16600260009054906101000a900473ffffffffffffffffffffffffffffffffffffffff1660405180806020018473ffffffffffffffffffffffffffffffffffffffff1673ffffffffffffffffffffffffffffffffffffffff1681526020018373ffffffffffffffffffffffffffffffffffffffff1673ffffffffffffffffffffffffffffffffffffffff168152602001828103825285818151815260200191508051906020019080838360005b838110156200093557808201518184015260208101905062000918565b50505050905090810190601f168015620009635780820380516001836020036101000a031916815260200191505b5094505050505060405180910390a1600560009054906101000a900473ffffffffffffffffffffffffffffffffffffffff1690509695505050505050565b600160009054906101000a900473ffffffffffffffffffffffffffffffffffffffff1681565b6000809054906101000a900473ffffffffffffffffffffffffffffffffffffffff1673ffffffffffffffffffffffffffffffffffffffff16632c2268ec306040518263ffffffff167c0100000000000000000000000000000000000000000000000000000000028152600401808273ffffffffffffffffffffffffffffffffffffffff1673ffffffffffffffffffffffffffffffffffffffff168152602001915050602060405180830381600087803b15801562000a8457600080fd5b505af115801562000a99573d6000803e3d6000fd5b505050506040513d602081101562000ab057600080fd5b810190808051906020019092919050505073ffffffffffffffffffffffffffffffffffffffff167f9b430c61c2b9c1d20abba316ad1b36f69c9c3234c10e1ea74658221325be16f960405160405180910390a2565b606060078060008473ffffffffffffffffffffffffffffffffffffffff1673ffffffffffffffffffffffffffffffffffffffff1681526020019081526020016000205414151562000b5557600080fd5b600560009054906101000a900473ffffffffffffffffffffffffffffffffffffffff1673ffffffffffffffffffffffffffffffffffffffff1663d6d46ba86040518163ffffffff167c010000000000000000000000000000000000000000000000000000000002815260040160006040518083038186803b15801562000bda57600080fd5b505afa15801562000bef573d6000803e3d6000fd5b505050506040513d6000823e3d601f19601f82011682018060405250602081101562000c1a57600080fd5b81019080805164010000000081111562000c3357600080fd5b8281019050602081018481111562000c4a57600080fd5b815185602082028301116401000000008211171562000c6857600080fd5b50509291905050509050919050565b60078060008573ffffffffffffffffffffffffffffffffffffffff1673ffffffffffffffffffffffffffffffffffffffff1681526020019081526020016000205414151562000cc557600080fd5b600560009054906101000a900473ffffffffffffffffffffffffffffffffffffffff1673ffffffffffffffffffffffffffffffffffffffff166347228fe383836040518363ffffffff167c0100000000000000000000000000000000000000000000000000000000028152600401808373ffffffffffffffffffffffffffffffffffffffff1673ffffffffffffffffffffffffffffffffffffffff1681526020018260ff1660ff16815260200192505050600060405180830381600087803b15801562000d9157600080fd5b505af115801562000da6573d6000803e3d6000fd5b50505050505050565b6000809054906101000a900473ffffffffffffffffffffffffffffffffffffffff1681565b6040516108b18062000de68339019056fe608060405234801561001057600080fd5b506040516108b13803806108b1833981018060405260c081101561003357600080fd5b81019080805164010000000081111561004b57600080fd5b8281019050602081018481111561006157600080fd5b815185600182028301116401000000008211171561007e57600080fd5b5050929190602001805164010000000081111561009a57600080fd5b828101905060208101848111156100b057600080fd5b81518560018202830111640100000000821117156100cd57600080fd5b5050929190602001805190602001909291908051906020019092919080516401000000008111156100fd57600080fd5b8281019050602081018481111561011357600080fd5b815185602082028301116401000000008211171561013057600080fd5b5050929190602001805164010000000081111561014c57600080fd5b8281019050602081018481111561016257600080fd5b815185602082028301116401000000008211171561017f57600080fd5b505092919050505083804210151561019657600080fd5b86600190805190602001906101ac929190610345565b5085600290805190602001906101c3929190610345565b50846003819055508360048190555081600690805190602001906101e89291906103c5565b5082600590805190602001906101ff9291906103c5565b5061029e600680548060200260200160405190810160405280929190818152602001828054801561028557602002820191906000526020600020905b8160009054906101000a900473ffffffffffffffffffffffffffffffffffffffff1673ffffffffffffffffffffffffffffffffffffffff168152602001906001019080831161023b575b50505050506102aa640100000000026401000000009004565b505050505050506104b7565b60008090505b8151811015610341577fffffffffffffffffffffffffffffffffffffffffffffffffffffffffffffffff6008600084848151811015156102ec57fe5b9060200190602002015173ffffffffffffffffffffffffffffffffffffffff1673ffffffffffffffffffffffffffffffffffffffff1681526020019081526020016000208190555080806001019150506102b0565b5050565b828054600181600116156101000203166002900490600052602060002090601f016020900481019282601f1061038657805160ff19168380011785556103b4565b828001600101855582156103b4579182015b828111156103b3578251825591602001919060010190610398565b5b5090506103c1919061044f565b5090565b82805482825590600052602060002090810192821561043e579160200282015b8281111561043d5782518260006101000a81548173ffffffffffffffffffffffffffffffffffffffff021916908373ffffffffffffffffffffffffffffffffffffffff160217905550916020019190600101906103e5565b5b50905061044b9190610474565b5090565b61047191905b8082111561046d576000816000905550600101610455565b5090565b90565b6104b491905b808211156104b057600081816101000a81549073ffffffffffffffffffffffffffffffffffffffff02191690555060010161047a565b5090565b90565b6103eb806104c66000396000f3fe60806040526004361061006d576000357c0100000000000000000000000000000000000000000000000000000000900463ffffffff16806302d05d3f1461007257806347228fe3146100c9578063c8dff62514610127578063d6d46ba81461018c578063f8e157ea146101f8575b600080fd5b34801561007e57600080fd5b50610087610227565b604051808273ffffffffffffffffffffffffffffffffffffffff1673ffffffffffffffffffffffffffffffffffffffff16815260200191505060405180910390f35b3480156100d557600080fd5b50610125600480360360408110156100ec57600080fd5b81019080803573ffffffffffffffffffffffffffffffffffffffff169060200190929190803560ff16906020019092919050505061024c565b005b34801561013357600080fd5b506101766004803603602081101561014a57600080fd5b81019080803573ffffffffffffffffffffffffffffffffffffffff169060200190929190505050610325565b6040518082815260200191505060405180910390f35b34801561019857600080fd5b506101a161033d565b6040518080602001828103825283818151815260200191508051906020019060200280838360005b838110156101e45780820151818401526020810190506101c9565b505050509050019250505060405180910390f35b34801561020457600080fd5b5061020d610395565b604051808215151515815260200191505060405180910390f35b6000809054906101000a900473ffffffffffffffffffffffffffffffffffffffff1681565b610254610395565b151561025f57600080fd5b6000600860008473ffffffffffffffffffffffffffffffffffffffff1673ffffffffffffffffffffffffffffffffffffffff16815260200190815260200160002054141515156102ae57600080fd5b8060ff16600860008473ffffffffffffffffffffffffffffffffffffffff1673ffffffffffffffffffffffffffffffffffffffff1681526020019081526020016000208190555060078160ff1681548110151561030757fe5b90600052602060002001600081548092919060010191905055505050565b60086020528060005260406000206000915090505481565b6060600780548060200260200160405190810160405280929190818152602001828054801561038b57602002820191906000526020600020905b815481526020019060010190808311610377575b5050505050905090565b600060035442101580156103ab57506004544211155b80156103ba5750600454600354105b90509056fea165627a7a723058209fcba2a2a880fa96e0806cd00d7f7277a2f960d1aac3e69a05fe3c04b631339c0029a165627a7a72305820f201f27acc36fff41c52d49cafa8bca30440253af91f33f1c4f91dc0165712b00029a165627a7a723058203a3dfa75be7777748e6991b47f9895c073f9a1e7926dd38cd768e2b4d08b92690029",
  "source": "// Session.deployed().then(function(instance){ return instance.take_feedback('0x0fce0e522a2a18ee1e0fbf913e12483aec3f8404',8);});\npragma solidity 0.5.0;\nimport \"./Session.sol\";\nimport \"./OrganizationCreator.sol\";\ncontract CreateOragnization{\n    function createNewOrganization(Organization _reference) public returns (Organization) {\n        Organization org = new Organization(_reference, this);\n        return org;\n    }\n}\n\ncontract Organization {\n    CreateOragnization public create;\n    Organization public organizationCreate;\n    address creator;\n    string organizationName;\n    string organizationDiscription;\n    Session session;\n    OrganizationCreator oragnization;\n    mapping (address => uint) ISsession;\n \n   constructor(Organization _organization, CreateOragnization _create) public{\n        organizationCreate = _organization;\n        create = _create;\n      }\n\n    function CreateOrganization() public {\n        emit organizationCreated(create.createNewOrganization(this));\n    }\n\n    event organizationCreated(Organization indexed oragnization);\n    event sessionnCreated(string name,address sessionAddress ,address creator);\n     \n    modifier onlyCreator(){\n        require(msg.sender == creator);\n        _;\n    } \n    \n      \n\n\n     //construct Session Contract\n     function createdSession(\n      string memory _sessionName,\n      string memory _description,\n      uint _startTime,\n      uint _endTime,\n      address[] memory _lecturer,\n      address[] memory _attendes\n     ) public   returns(address) {\n        \n        session = new Session(_sessionName , _description , _startTime , _endTime, _lecturer,_attendes );\n        session = Session(address(session));\n        ISsession[address(session)] = 7;\n        emit sessionnCreated(_sessionName,address(session),creator);\n        return address(session);\n     }\n     \n     //Session Contract Methods\n     function sessionTakeFeedback(address _session,address _voter,uint8 _feedback) public{\n        require(ISsession[_session] == 7);\n        Session(address(session)).take_feedback(_voter,_feedback);  \n     }\n   function sessionSeeResult(address _session) public view returns(int[] memory) {\n        require(ISsession[_session] == 7);\n        return   Session(address(session)).seeResult();\n   }\n}\n\n",
  "sourcePath": "/home/yehia/Documents/Projects/solidity/Think Big/Events-Feedback/contracts/Organization.sol",
  "compiler": {
    "name": "solc",
    "version": "0.5.0+commit.1d4f565a.Emscripten.clang"
  },
  "schemaVersion": "3.0.8",
  "updatedAt": "2019-06-24T11:25:01.385Z",
  "devdoc": {
    "methods": {}
  },
  "userdoc": {
    "methods": {}
  }
}