{
  "contractName": "loyaltyPoints",
  "abi": [
    {
      "inputs": [
        {
          "name": "_tokenName",
          "type": "string"
        },
        {
          "name": "_tokenSymbol",
          "type": "string"
        },
        {
          "name": "_contractCreator",
          "type": "address"
        }
      ],
      "payable": false,
      "stateMutability": "nonpayable",
      "type": "constructor"
    },
    {
      "anonymous": false,
      "inputs": [
        {
          "indexed": false,
          "name": "contractCreator",
          "type": "address"
        },
        {
          "indexed": false,
          "name": "reciver",
          "type": "address"
        },
        {
          "indexed": false,
          "name": "points",
          "type": "uint256"
        }
      ],
      "name": "give",
      "type": "event"
    },
    {
      "anonymous": false,
      "inputs": [
        {
          "indexed": false,
          "name": "contractCreator",
          "type": "address"
        },
        {
          "indexed": false,
          "name": "payer",
          "type": "address"
        },
        {
          "indexed": false,
          "name": "reciver",
          "type": "address"
        },
        {
          "indexed": false,
          "name": "points",
          "type": "uint256"
        }
      ],
      "name": "pay",
      "type": "event"
    },
    {
      "constant": false,
      "inputs": [
        {
          "name": "account",
          "type": "address"
        },
        {
          "name": "limit",
          "type": "uint256"
        }
      ],
      "name": "givePermission",
      "outputs": [],
      "payable": false,
      "stateMutability": "nonpayable",
      "type": "function"
    },
    {
      "constant": false,
      "inputs": [
        {
          "name": "reciver",
          "type": "address"
        },
        {
          "name": "points",
          "type": "uint256"
        },
        {
          "name": "_currentContract",
          "type": "address"
        }
      ],
      "name": "giveLP",
      "outputs": [],
      "payable": false,
      "stateMutability": "nonpayable",
      "type": "function"
    },
    {
      "constant": false,
      "inputs": [
        {
          "name": "payer",
          "type": "address"
        },
        {
          "name": "reciver",
          "type": "address"
        },
        {
          "name": "points",
          "type": "uint256"
        }
      ],
      "name": "payLP",
      "outputs": [],
      "payable": false,
      "stateMutability": "nonpayable",
      "type": "function"
    }
  ],
  "bytecode": "0x608060405234801561001057600080fd5b506040516104663803806104668339810180604052606081101561003357600080fd5b81019080805164010000000081111561004b57600080fd5b8201602081018481111561005e57600080fd5b815164010000000081118282018710171561007857600080fd5b5050929190602001805164010000000081111561009457600080fd5b820160208101848111156100a757600080fd5b81516401000000008111828201871017156100c157600080fd5b5050602091820151855191945092506100e09160009190860190610126565b5081516100f4906001906020850190610126565b5060038054600160a060020a03909216600160a060020a03199283161790556002805490911633179055506101c19050565b828054600181600116156101000203166002900490600052602060002090601f016020900481019282601f1061016757805160ff1916838001178555610194565b82800160010185558215610194579182015b82811115610194578251825591602001919060010190610179565b506101a09291506101a4565b5090565b6101be91905b808211156101a057600081556001016101aa565b90565b610296806101d06000396000f3fe6080604052600436106100565763ffffffff7c0100000000000000000000000000000000000000000000000000000000600035041663225c76c3811461005b578063b784cc5114610096578063b8cac754146100d9575b600080fd5b34801561006757600080fd5b506100946004803603604081101561007e57600080fd5b50600160a060020a03813516906020013561011c565b005b3480156100a257600080fd5b50610094600480360360608110156100b957600080fd5b50600160a060020a0381358116916020810135909116906040013561014f565b3480156100e557600080fd5b50610094600480360360608110156100fc57600080fd5b50600160a060020a038135811691602081013591604090910135166101e9565b600254600160a060020a0316331461013357600080fd5b600160a060020a03909116600090815260056020526040902055565b33600090815260046020526040902054819081111561016d57600080fd5b600160a060020a0380851660008181526004602090815260408083208054889003905593871680835291849020805487019055835130815290810192909252818301526060810184905290517f4a0ba49d48dedc47ac6e8e20368e2cda136f7638c8d30838e2d9715b680dce6f9181900360800190a150505050565b6003548190600160a060020a0380831691161461020557600080fd5b600160a060020a038416600081815260046020908152604091829020805487019055815130815290810192909252818101859052517fec8b283c15599d5e54f2bbe81d24cfd7989956d1b03a6177cdb00b62fd186a5c9181900360600190a15050505056fea165627a7a72305820a952ee23bc9498d8054eea94292d39351de0b6fdf72dc9f1d88c1a4287268f520029",
  "source": "pragma solidity ^0.5.0;\ncontract loyaltyPoints {\n     string tokenName;\n     string tokenSymbol;//symbol\n     address userCreator;\n     address contractCreator;\n     mapping (address => uint) balanceOf;\n     mapping (address => uint) permissionLimit; \n     event give(address contractCreator,address reciver,uint points);\n     event pay(address contractCreator,address payer,address reciver ,uint points);\n     constructor (string memory _tokenName,string memory _tokenSymbol,address _contractCreator) public{\n          tokenName = _tokenName;\n          tokenSymbol =_tokenSymbol;\n          contractCreator = _contractCreator;\n          userCreator = msg.sender;\n      }\n\n   \n       modifier onlyUserCreator(){\n        require(msg.sender == userCreator);\n        _;\n    }\n    \n     modifier onlyContractCreator(address _currentContract){\n        require(_currentContract == contractCreator );\n        _;\n    } \n\n    modifier onlyPermitted(address account,uint points){\n        require(msg.sender == userCreator || permissionLimit[account] >= points );\n        _;\n    } \n    modifier hadPoints(uint points){\n        require(balanceOf[msg.sender] >= points);\n        _;\n    }\n    function givePermission(address account,uint limit) public onlyUserCreator {\n        permissionLimit[account] = limit;\n    }\n\n    function giveLP(address reciver , uint points,address _currentContract )  public  onlyContractCreator(_currentContract) {\n        balanceOf[reciver] += points;\n        emit give(address(this),reciver,points);\n    }\n    function payLP(address payer ,address reciver, uint points )  public  hadPoints(points) {\n        balanceOf[payer] -= points;\n        balanceOf[reciver] += points;\n        emit pay(address(this),payer,reciver,points);\n\n    }\n}\n\n\n\n",
  "sourcePath": "/home/yehia/Documents/Projects/solidity/Feedblock/contracts/loyaltyPoints.sol",
  "compiler": {
    "name": "solc",
    "version": "0.5.0+commit.1d4f565a.Emscripten.clang"
  },
  "schemaVersion": "3.0.8",
  "updatedAt": "2019-07-18T10:12:33.732Z",
  "devdoc": {
    "methods": {}
  },
  "userdoc": {
    "methods": {}
  }
}