{
  "contractName": "mainContract",
  "abi": [
    {
      "anonymous": false,
      "inputs": [
        {
          "indexed": true,
          "name": "organization",
          "type": "address"
        },
        {
          "indexed": false,
          "name": "creator",
          "type": "address"
        }
      ],
      "name": "OrganizationCreated",
      "type": "event",
      "signature": "0x2725ca0bb6f842da395a595005373aaa8e052b21133359b3c75f59a1247e6e7a"
    },
    {
      "constant": false,
      "inputs": [
        {
          "name": "_organizationName",
          "type": "string"
        },
        {
          "name": "_organizationDiscription",
          "type": "string"
        },
        {
          "name": "_tokenName",
          "type": "string"
        },
        {
          "name": "_tokenSymbol",
          "type": "string"
        }
      ],
      "name": "CreateOrganization",
      "outputs": [
        {
          "name": "",
          "type": "address"
        }
      ],
      "payable": false,
      "stateMutability": "nonpayable",
      "type": "function",
      "signature": "0x6d1e3e2b"
    },
    {
      "constant": true,
      "inputs": [
        {
          "name": "_organization",
          "type": "address"
        }
      ],
      "name": "GoToOrganization",
      "outputs": [
        {
          "name": "",
          "type": "bool"
        }
      ],
      "payable": false,
      "stateMutability": "view",
      "type": "function",
      "signature": "0x82e899f5"
    }
  ],
  "bytecode": "0x608060405234801561001057600080fd5b50612069806100206000396000f3fe60806040526004361061004b5763ffffffff7c01000000000000000000000000000000000000000000000000000000006000350416636d1e3e2b811461005057806382e899f5146102c1575b600080fd5b34801561005c57600080fd5b506102986004803603608081101561007357600080fd5b81019060208101813564010000000081111561008e57600080fd5b8201836020820111156100a057600080fd5b803590602001918460018302840111640100000000831117156100c257600080fd5b91908080601f016020809104026020016040519081016040528093929190818152602001838380828437600092019190915250929594936020810193503591505064010000000081111561011557600080fd5b82018360208201111561012757600080fd5b8035906020019184600183028401116401000000008311171561014957600080fd5b91908080601f016020809104026020016040519081016040528093929190818152602001838380828437600092019190915250929594936020810193503591505064010000000081111561019c57600080fd5b8201836020820111156101ae57600080fd5b803590602001918460018302840111640100000000831117156101d057600080fd5b91908080601f016020809104026020016040519081016040528093929190818152602001838380828437600092019190915250929594936020810193503591505064010000000081111561022357600080fd5b82018360208201111561023557600080fd5b8035906020019184600183028401116401000000008311171561025757600080fd5b91908080601f016020809104026020016040519081016040528093929190818152602001838380828437600092019190915250929550610315945050505050565b6040805173ffffffffffffffffffffffffffffffffffffffff9092168252519081900360200190f35b3480156102cd57600080fd5b50610301600480360360208110156102e457600080fd5b503573ffffffffffffffffffffffffffffffffffffffff166105d0565b604080519115158252519081900360200190f35b600080858533868661032561060f565b73ffffffffffffffffffffffffffffffffffffffff8416604082015260a0808252865190820152855181906020808301916060840191608085019160c08601918c019080838360005b8381101561038657818101518382015260200161036e565b50505050905090810190601f1680156103b35780820380516001836020036101000a031916815260200191505b5085810384528951815289516020918201918b019080838360005b838110156103e65781810151838201526020016103ce565b50505050905090810190601f1680156104135780820380516001836020036101000a031916815260200191505b50858103835287518152875160209182019189019080838360005b8381101561044657818101518382015260200161042e565b50505050905090810190601f1680156104735780820380516001836020036101000a031916815260200191505b50858103825286518152865160209182019188019080838360005b838110156104a657818101518382015260200161048e565b50505050905090810190601f1680156104d35780820380516001836020036101000a031916815260200191505b509950505050505050505050604051809103906000f0801580156104fb573d6000803e3d6000fd5b5060408051338152905191925073ffffffffffffffffffffffffffffffffffffffff8316917f2725ca0bb6f842da395a595005373aaa8e052b21133359b3c75f59a1247e6e7a9181900360200190a273ffffffffffffffffffffffffffffffffffffffff81166000818152602081905260408120805460ff191660019081179091558054808201825591527fb10e2d527612073b26eecdfd717e6a320cf44b4afac2b0732d9fcbe2b7fa0cf601805473ffffffffffffffffffffffffffffffffffffffff191690911790559050949350505050565b73ffffffffffffffffffffffffffffffffffffffff811660009081526020819052604081205460ff16156106065750600161060a565b5060005b919050565b604051611a1e806106208339019056fe60806040523480156200001157600080fd5b5060405162001a1e38038062001a1e833981018060405260a08110156200003757600080fd5b8101908080516401000000008111156200005057600080fd5b820160208101848111156200006457600080fd5b81516401000000008111828201871017156200007f57600080fd5b505092919060200180516401000000008111156200009c57600080fd5b82016020810184811115620000b057600080fd5b8151640100000000811182820187101715620000cb57600080fd5b50506020820151604090920180519194929391640100000000811115620000f157600080fd5b820160208101848111156200010557600080fd5b81516401000000008111828201871017156200012057600080fd5b505092919060200180516401000000008111156200013d57600080fd5b820160208101848111156200015157600080fd5b81516401000000008111828201871017156200016c57600080fd5b505087519093506200018892506001915060208801906200041d565b5083516200019e9060029060208701906200041d565b5060008054600160a060020a031916600160a060020a038516179055620001cf8282640100000000620002e9810204565b6040805130918101829052606080825284519082015283517f1bd2a054367121d90e71790e64e9bd05149186ed5a117465839d0d48c55276c092859285928190602080830191608084019188019080838360005b838110156200023d57818101518382015260200162000223565b50505050905090810190601f1680156200026b5780820380516001836020036101000a031916815260200191505b50838103825285518152855160209182019187019080838360005b83811015620002a057818101518382015260200162000286565b50505050905090810190601f168015620002ce5780820380516001836020036101000a031916815260200191505b509550505050505060405180910390a15050505050620004d3565b818130620002f6620004a2565b600160a060020a0382166040820152606080825284519082015283518190602080830191608084019188019080838360005b838110156200034257818101518382015260200162000328565b50505050905090810190601f168015620003705780820380516001836020036101000a031916815260200191505b50838103825285518152855160209182019187019080838360005b83811015620003a55781810151838201526020016200038b565b50505050905090810190601f168015620003d35780820380516001836020036101000a031916815260200191505b5095505050505050604051809103906000f080158015620003f8573d6000803e3d6000fd5b5060058054600160a060020a031916600160a060020a03929092169190911790555050565b828054600181600116156101000203166002900490600052602060002090601f016020900481019282601f106200046057805160ff191683800117855562000490565b8280016001018555821562000490579182015b828111156200049057825182559160200191906001019062000473565b506200049e929150620004b3565b5090565b60405161046680620015b883390190565b620004d091905b808211156200049e5760008155600101620004ba565b90565b6110d580620004e36000396000f3fe6080604052600436106100565763ffffffff7c01000000000000000000000000000000000000000000000000000000006000350416635c6a1287811461005b57806386825c04146102d0578063d82d3a6f14610315575b600080fd5b34801561006757600080fd5b506102b4600480360360e081101561007e57600080fd5b81019060208101813564010000000081111561009957600080fd5b8201836020820111156100ab57600080fd5b803590602001918460018302840111640100000000831117156100cd57600080fd5b91908080601f016020809104026020016040519081016040528093929190818152602001838380828437600092019190915250929594936020810193503591505064010000000081111561012057600080fd5b82018360208201111561013257600080fd5b8035906020019184600183028401116401000000008311171561015457600080fd5b91908080601f01602080910402602001604051908101604052809392919081815260200183838082843760009201919091525092958435956020860135959194509250606081019150604001356401000000008111156101b357600080fd5b8201836020820111156101c557600080fd5b803590602001918460208302840111640100000000831117156101e757600080fd5b919080806020026020016040519081016040528093929190818152602001838360200280828437600092019190915250929594936020810193503591505064010000000081111561023757600080fd5b82018360208201111561024957600080fd5b8035906020019184602083028401116401000000008311171561026b57600080fd5b91908080602002602001604051908101604052809392919081815260200183836020028082843760009201919091525092955050509035600160a060020a0316915061035c9050565b60408051600160a060020a039092168252519081900360200190f35b3480156102dc57600080fd5b50610313600480360360608110156102f357600080fd5b50600160a060020a03813581169160208101359160409091013516610655565b005b34801561032157600080fd5b506103486004803603602081101561033857600080fd5b5035600160a060020a03166106e8565b604080519115158252519081900360200190f35b60008054600160a060020a0316331461037457600080fd5b600088888888888888610385610706565b808060200180602001888152602001878152602001806020018060200186600160a060020a0316600160a060020a0316815260200185810385528c818151815260200191508051906020019080838360005b838110156103ef5781810151838201526020016103d7565b50505050905090810190601f16801561041c5780820380516001836020036101000a031916815260200191505b5085810384528b5181528b516020918201918d019080838360005b8381101561044f578181015183820152602001610437565b50505050905090810190601f16801561047c5780820380516001836020036101000a031916815260200191505b508581038352885181528851602091820191808b01910280838360005b838110156104b1578181015183820152602001610499565b50505050905001858103825287818151815260200191508051906020019060200280838360005b838110156104f05781810151838201526020016104d8565b505050509050019b505050505050505050505050604051809103906000f080158015610520573d6000803e3d6000fd5b50600160a060020a038082166000818152600460209081526040808320805460ff1916600190811790915560038054918201815584527fc2575a0e9e593c00f959f8c92f12db2869c3395a3b0502d05e2516446f71f85b01805473ffffffffffffffffffffffffffffffffffffffff191685179055825481518084019590955290941693830184905260608084528e51908401528d519495507f6501c9546c19e0c264ea977f2f67f10185bcb77814fd738d81c7df40358af7af948e9487949093909283926080840192918801918190849084905b8381101561060d5781810151838201526020016105f5565b50505050905090810190601f16801561063a5780820380516001836020036101000a031916815260200191505b5094505050505060405180910390a198975050505050505050565b600554604080517fb8cac754000000000000000000000000000000000000000000000000000000008152600160a060020a0386811660048301526024820186905284811660448301529151919092169163b8cac75491606480830192600092919082900301818387803b1580156106cb57600080fd5b505af11580156106df573d6000803e3d6000fd5b50505050505050565b600160a060020a031660009081526004602052604090205460ff1690565b604051610993806107178339019056fe608060405234801561001057600080fd5b50604051610993380380610993833981018060405260e081101561003357600080fd5b81019080805164010000000081111561004b57600080fd5b8201602081018481111561005e57600080fd5b815164010000000081118282018710171561007857600080fd5b5050929190602001805164010000000081111561009457600080fd5b820160208101848111156100a757600080fd5b81516401000000008111828201871017156100c157600080fd5b505060208201516040830151606090930180519295919491926401000000008111156100ec57600080fd5b820160208101848111156100ff57600080fd5b815185602082028301116401000000008211171561011c57600080fd5b5050929190602001805164010000000081111561013857600080fd5b8201602081018481111561014b57600080fd5b815185602082028301116401000000008211171561016857600080fd5b50506020918201518951919450925061018791600191908a01906103b1565b50855161019b9060029060208901906103b1565b506003859055600484905582516101b990600590602086019061042f565b5081516101cd90600690602085019061042f565b5060008054600160a060020a031916600160a060020a0383161790556101fb816401000000006102d4810204565b6102c8600680548060200260200160405190810160405280929190818152602001828054801561025457602002820191906000526020600020905b8154600160a060020a03168152600190910190602001808311610236575b505050505060058054806020026020016040519081016040528092919081815260200182805480156102af57602002820191906000526020600020905b8154600160a060020a03168152600190910190602001808311610291575b50505050506102f6640100000000026401000000009004565b505050505050506104d1565b60078054600160a060020a031916600160a060020a0392909216919091179055565b60005b8251811015610350576001600a6000858481518110151561031657fe5b602090810291909101810151600160a060020a03168252810191909152604001600020805460ff19169115159190911790556001016102f9565b5060005b6005548110156103ac576001600b6000848481518110151561037257fe5b602090810291909101810151600160a060020a03168252810191909152604001600020805460ff1916911515919091179055600101610354565b505050565b828054600181600116156101000203166002900490600052602060002090601f016020900481019282601f106103f257805160ff191683800117855561041f565b8280016001018555821561041f579182015b8281111561041f578251825591602001919060010190610404565b5061042b929150610490565b5090565b828054828255906000526020600020908101928215610484579160200282015b828111156104845782518254600160a060020a031916600160a060020a0390911617825560209092019160019091019061044f565b5061042b9291506104ad565b6104aa91905b8082111561042b5760008155600101610496565b90565b6104aa91905b8082111561042b578054600160a060020a03191681556001016104b3565b6104b3806104e06000396000f3fe6080604052600436106100775763ffffffff7c010000000000000000000000000000000000000000000000000000000060003504166302d05d3f811461007c5780635a6f65f3146100ad578063c8dff625146100f4578063ce83498a1461013d578063d6d46ba81461017b578063e52f26df146101c8575b600080fd5b34801561008857600080fd5b506100916101fb565b60408051600160a060020a039092168252519081900360200190f35b3480156100b957600080fd5b506100e0600480360360208110156100d057600080fd5b5035600160a060020a031661020a565b604080519115158252519081900360200190f35b34801561010057600080fd5b506101276004803603602081101561011757600080fd5b5035600160a060020a031661021f565b6040805160ff9092168252519081900360200190f35b34801561014957600080fd5b506101796004803603604081101561016057600080fd5b50803560ff169060200135600160a060020a0316610234565b005b34801561018757600080fd5b506101906103fb565b604051808260a080838360005b838110156101b557818101518382015260200161019d565b5050505090500191505060405180910390f35b3480156101d457600080fd5b506100e0600480360360208110156101eb57600080fd5b5035600160a060020a0316610453565b600054600160a060020a031681565b600b6020526000908152604090205460ff1681565b60096020526000908152604090205460ff1681565b336000818152600a602052604090205460ff16151561025257600080fd5b3360009081526009602052604090205460ff16156102eb573360009081526009602052604090205460019060089060ff166005811061028d57fe5b602080820490920154336000908152600990935260409092205460ff601f9092166101000a9092048116929092039160089116600581106102ca57fe5b602091828204019190066101000a81548160ff021916908360ff1602179055505b336000908152600960205260409020805460ff191660ff85169081179091556008906005811061031757fe5b602091828204019190069054906101000a900460ff1660010160088460ff1660058110151561034257fe5b60208104909101805460ff938416601f9093166101000a9283029390920219909116919091179055600754604080517f86825c0400000000000000000000000000000000000000000000000000000000815233600482015260016024820152600160a060020a038581166044830152915191909216916386825c0491606480830192600092919082900301818387803b1580156103de57600080fd5b505af11580156103f2573d6000803e3d6000fd5b50505050505050565b610403610468565b6040805160a081019182905290600890600590826000855b825461010083900a900460ff1681526020600192830181810494850194909303909202910180841161041b5790505050505050905090565b600a6020526000908152604090205460ff1681565b60a060405190810160405280600590602082028038833950919291505056fea165627a7a72305820b351d2c8ef70128bff446bf70d2d27763452adcc5390c7fac9474b78aabbb1da0029a165627a7a72305820923499d3e86beed87b5bd60df3a77331d28ccb4020e97b9bfc0e0eae4371a22f0029608060405234801561001057600080fd5b506040516104663803806104668339810180604052606081101561003357600080fd5b81019080805164010000000081111561004b57600080fd5b8201602081018481111561005e57600080fd5b815164010000000081118282018710171561007857600080fd5b5050929190602001805164010000000081111561009457600080fd5b820160208101848111156100a757600080fd5b81516401000000008111828201871017156100c157600080fd5b5050602091820151855191945092506100e09160009190860190610126565b5081516100f4906001906020850190610126565b5060038054600160a060020a03909216600160a060020a03199283161790556002805490911633179055506101c19050565b828054600181600116156101000203166002900490600052602060002090601f016020900481019282601f1061016757805160ff1916838001178555610194565b82800160010185558215610194579182015b82811115610194578251825591602001919060010190610179565b506101a09291506101a4565b5090565b6101be91905b808211156101a057600081556001016101aa565b90565b610296806101d06000396000f3fe6080604052600436106100565763ffffffff7c0100000000000000000000000000000000000000000000000000000000600035041663225c76c3811461005b578063b784cc5114610096578063b8cac754146100d9575b600080fd5b34801561006757600080fd5b506100946004803603604081101561007e57600080fd5b50600160a060020a03813516906020013561011c565b005b3480156100a257600080fd5b50610094600480360360608110156100b957600080fd5b50600160a060020a0381358116916020810135909116906040013561014f565b3480156100e557600080fd5b50610094600480360360608110156100fc57600080fd5b50600160a060020a038135811691602081013591604090910135166101e9565b600254600160a060020a0316331461013357600080fd5b600160a060020a03909116600090815260056020526040902055565b33600090815260046020526040902054819081111561016d57600080fd5b600160a060020a0380851660008181526004602090815260408083208054889003905593871680835291849020805487019055835130815290810192909252818301526060810184905290517f4a0ba49d48dedc47ac6e8e20368e2cda136f7638c8d30838e2d9715b680dce6f9181900360800190a150505050565b6003548190600160a060020a0380831691161461020557600080fd5b600160a060020a038416600081815260046020908152604091829020805487019055815130815290810192909252818101859052517fec8b283c15599d5e54f2bbe81d24cfd7989956d1b03a6177cdb00b62fd186a5c9181900360600190a15050505056fea165627a7a72305820a952ee23bc9498d8054eea94292d39351de0b6fdf72dc9f1d88c1a4287268f520029a165627a7a723058205829bba463010c16fe6e9cbe6250a9a72f44406eb39028f9ae7334a99f9d9d2a0029",
  "source": "pragma solidity ^0.5.0;\r\n\r\nimport './Organization.sol';\r\n\r\ncontract mainContract {\r\n\r\nevent OrganizationCreated(address indexed organization, address creator);\r\nmapping (address => bool) ISorganizations;\r\nOrganization[] organizations;\r\n\r\nfunction CreateOrganization(string memory _organizationName,string memory _organizationDiscription,\r\nstring memory _tokenName,string memory _tokenSymbol) public returns (address) {\r\n   Organization organization = new Organization(_organizationName,_organizationDiscription,msg.sender,_tokenName,_tokenSymbol);\r\n   emit OrganizationCreated(address(organization), msg.sender);\r\n   ISorganizations[address(organization)] = true;\r\n   organizations.push(organization);\r\n   return address(organization);\r\n}\r\n\r\nfunction GoToOrganization(address _organization) public view   returns(bool) {\r\n   if (ISorganizations[_organization]) {\r\n      return true;\r\n   } else {\r\n      return false;\r\n   }\r\n}\r\n}\r\n\r\n\r\n\r\n",
  "sourcePath": "/home/yehia/Documents/Projects/solidity/Feedblock/contracts/mainContract.sol",
  "compiler": {
    "name": "solc",
    "version": "0.5.0+commit.1d4f565a.Emscripten.clang"
  },
  "schemaVersion": "3.0.8",
  "updatedAt": "2019-07-18T10:12:40.659Z",
  "devdoc": {
    "methods": {}
  },
  "userdoc": {
    "methods": {}
  }
}