{
  "contractName": "mainContract",
  "abi": [
    {
      "anonymous": false,
      "inputs": [
        {
          "indexed": true,
          "name": "organization",
          "type": "address"
        },
        {
          "indexed": false,
          "name": "creator",
          "type": "address"
        }
      ],
      "name": "OrganizationCreated",
      "type": "event",
      "signature": "0x2725ca0bb6f842da395a595005373aaa8e052b21133359b3c75f59a1247e6e7a"
    },
    {
      "constant": false,
      "inputs": [
        {
          "name": "_organizationName",
          "type": "string"
        },
        {
          "name": "_organizationDiscription",
          "type": "string"
        }
      ],
      "name": "CreateOrganization",
      "outputs": [
        {
          "name": "",
          "type": "address"
        }
      ],
      "payable": false,
      "stateMutability": "nonpayable",
      "type": "function",
      "signature": "0xa2d332de"
    },
    {
      "constant": true,
      "inputs": [
        {
          "name": "_organization",
          "type": "address"
        }
      ],
      "name": "GoToOrganization",
      "outputs": [
        {
          "name": "",
          "type": "bool"
        }
      ],
      "payable": false,
      "stateMutability": "view",
      "type": "function",
      "signature": "0x82e899f5"
    }
  ],
  "bytecode": "0x608060405234801561001057600080fd5b50611541806100206000396000f3fe60806040526004361061004b5763ffffffff7c010000000000000000000000000000000000000000000000000000000060003504166382e899f58114610050578063a2d332de146100a4575b600080fd5b34801561005c57600080fd5b506100906004803603602081101561007357600080fd5b503573ffffffffffffffffffffffffffffffffffffffff16610207565b604080519115158252519081900360200190f35b3480156100b057600080fd5b506101de600480360360408110156100c757600080fd5b8101906020810181356401000000008111156100e257600080fd5b8201836020820111156100f457600080fd5b8035906020019184600183028401116401000000008311171561011657600080fd5b91908080601f016020809104026020016040519081016040528093929190818152602001838380828437600092019190915250929594936020810193503591505064010000000081111561016957600080fd5b82018360208201111561017b57600080fd5b8035906020019184600183028401116401000000008311171561019d57600080fd5b91908080601f016020809104026020016040519081016040528093929190818152602001838380828437600092019190915250929550610246945050505050565b6040805173ffffffffffffffffffffffffffffffffffffffff9092168252519081900360200190f35b73ffffffffffffffffffffffffffffffffffffffff811660009081526020819052604081205460ff161561023d57506001610241565b5060005b919050565b6000808383610253610411565b604080825283519082015282518190602080830191606084019187019080838360005b8381101561028e578181015183820152602001610276565b50505050905090810190601f1680156102bb5780820380516001836020036101000a031916815260200191505b50838103825284518152845160209182019186019080838360005b838110156102ee5781810151838201526020016102d6565b50505050905090810190601f16801561031b5780820380516001836020036101000a031916815260200191505b50945050505050604051809103906000f08015801561033e573d6000803e3d6000fd5b5060408051338152905191925073ffffffffffffffffffffffffffffffffffffffff8316917f2725ca0bb6f842da395a595005373aaa8e052b21133359b3c75f59a1247e6e7a9181900360200190a273ffffffffffffffffffffffffffffffffffffffff81166000818152602081905260408120805460ff191660019081179091558054808201825591527fb10e2d527612073b26eecdfd717e6a320cf44b4afac2b0732d9fcbe2b7fa0cf601805473ffffffffffffffffffffffffffffffffffffffff19169091179055905092915050565b6040516110f4806104228339019056fe608060405234801561001057600080fd5b506040516110f43803806110f48339810180604052604081101561003357600080fd5b81019080805164010000000081111561004b57600080fd5b8201602081018481111561005e57600080fd5b815164010000000081118282018710171561007857600080fd5b5050929190602001805164010000000081111561009457600080fd5b820160208101848111156100a757600080fd5b81516401000000008111828201871017156100c157600080fd5b505084519093506100db9250600191506020850190610109565b5080516100ef906002906020840190610109565b505060008054600160a060020a03191633179055506101a4565b828054600181600116156101000203166002900490600052602060002090601f016020900481019282601f1061014a57805160ff1916838001178555610177565b82800160010185558215610177579182015b8281111561017757825182559160200191906001019061015c565b50610183929150610187565b5090565b6101a191905b80821115610183576000815560010161018d565b90565b610f41806101b36000396000f3fe60806040526004361061004b5763ffffffff7c01000000000000000000000000000000000000000000000000000000006000350416635c6a12878114610050578063d82d3a6f146102c5575b600080fd5b34801561005c57600080fd5b506102a9600480360360e081101561007357600080fd5b81019060208101813564010000000081111561008e57600080fd5b8201836020820111156100a057600080fd5b803590602001918460018302840111640100000000831117156100c257600080fd5b91908080601f016020809104026020016040519081016040528093929190818152602001838380828437600092019190915250929594936020810193503591505064010000000081111561011557600080fd5b82018360208201111561012757600080fd5b8035906020019184600183028401116401000000008311171561014957600080fd5b91908080601f01602080910402602001604051908101604052809392919081815260200183838082843760009201919091525092958435956020860135959194509250606081019150604001356401000000008111156101a857600080fd5b8201836020820111156101ba57600080fd5b803590602001918460208302840111640100000000831117156101dc57600080fd5b919080806020026020016040519081016040528093929190818152602001838360200280828437600092019190915250929594936020810193503591505064010000000081111561022c57600080fd5b82018360208201111561023e57600080fd5b8035906020019184602083028401116401000000008311171561026057600080fd5b91908080602002602001604051908101604052809392919081815260200183836020028082843760009201919091525092955050509035600160a060020a0316915061030c9050565b60408051600160a060020a039092168252519081900360200190f35b3480156102d157600080fd5b506102f8600480360360208110156102e857600080fd5b5035600160a060020a03166105ee565b604080519115158252519081900360200190f35b6000808888888888888861031e61060c565b808060200180602001888152602001878152602001806020018060200186600160a060020a0316600160a060020a0316815260200185810385528c818151815260200191508051906020019080838360005b83811015610388578181015183820152602001610370565b50505050905090810190601f1680156103b55780820380516001836020036101000a031916815260200191505b5085810384528b5181528b516020918201918d019080838360005b838110156103e85781810151838201526020016103d0565b50505050905090810190601f1680156104155780820380516001836020036101000a031916815260200191505b508581038352885181528851602091820191808b01910280838360005b8381101561044a578181015183820152602001610432565b50505050905001858103825287818151815260200191508051906020019060200280838360005b83811015610489578181015183820152602001610471565b505050509050019b505050505050505050505050604051809103906000f0801580156104b9573d6000803e3d6000fd5b50600160a060020a038082166000818152600460209081526040808320805460ff1916600190811790915560038054918201815584527fc2575a0e9e593c00f959f8c92f12db2869c3395a3b0502d05e2516446f71f85b01805473ffffffffffffffffffffffffffffffffffffffff191685179055825481518084019590955290941693830184905260608084528e51908401528d519495507f6501c9546c19e0c264ea977f2f67f10185bcb77814fd738d81c7df40358af7af948e9487949093909283926080840192918801918190849084905b838110156105a657818101518382015260200161058e565b50505050905090810190601f1680156105d35780820380516001836020036101000a031916815260200191505b5094505050505060405180910390a198975050505050505050565b600160a060020a031660009081526004602052604090205460ff1690565b6040516108f98061061d8339019056fe608060405234801561001057600080fd5b506040516108f93803806108f9833981018060405260e081101561003357600080fd5b81019080805164010000000081111561004b57600080fd5b8201602081018481111561005e57600080fd5b815164010000000081118282018710171561007857600080fd5b5050929190602001805164010000000081111561009457600080fd5b820160208101848111156100a757600080fd5b81516401000000008111828201871017156100c157600080fd5b505060208201516040830151606090930180519295919491926401000000008111156100ec57600080fd5b820160208101848111156100ff57600080fd5b815185602082028301116401000000008211171561011c57600080fd5b5050929190602001805164010000000081111561013857600080fd5b8201602081018481111561014b57600080fd5b815185602082028301116401000000008211171561016857600080fd5b50506020918201518951919450925061018791600191908a019061037c565b50855161019b90600290602089019061037c565b506003859055600484905582516101b99060059060208601906103fa565b5081516101cd9060069060208501906103fa565b5060008054600160a060020a031916600160a060020a03831617905560068054604080516020808402820181019092528281526102b5939092909183018282801561024157602002820191906000526020600020905b8154600160a060020a03168152600190910190602001808311610223575b5050505050600580548060200260200160405190810160405280929190818152602001828054801561029c57602002820191906000526020600020905b8154600160a060020a0316815260019091019060200180831161027e575b50505050506102c1640100000000026401000000009004565b5050505050505061049c565b60005b825181101561031b5760016009600085848151811015156102e157fe5b602090810291909101810151600160a060020a03168252810191909152604001600020805460ff19169115159190911790556001016102c4565b5060005b600554811015610377576001600a6000848481518110151561033d57fe5b602090810291909101810151600160a060020a03168252810191909152604001600020805460ff191691151591909117905560010161031f565b505050565b828054600181600116156101000203166002900490600052602060002090601f016020900481019282601f106103bd57805160ff19168380011785556103ea565b828001600101855582156103ea579182015b828111156103ea5782518255916020019190600101906103cf565b506103f692915061045b565b5090565b82805482825590600052602060002090810192821561044f579160200282015b8281111561044f5782518254600160a060020a031916600160a060020a0390911617825560209092019160019091019061041a565b506103f6929150610478565b61047591905b808211156103f65760008155600101610461565b90565b61047591905b808211156103f6578054600160a060020a031916815560010161047e565b61044e806104ab6000396000f3fe6080604052600436106100775763ffffffff7c010000000000000000000000000000000000000000000000000000000060003504166302d05d3f811461007c57806347228fe3146100ad5780635a6f65f3146100eb578063c8dff62514610132578063d6d46ba81461017b578063e52f26df146101c8575b600080fd5b34801561008857600080fd5b506100916101fb565b60408051600160a060020a039092168252519081900360200190f35b3480156100b957600080fd5b506100e9600480360360408110156100d057600080fd5b508035600160a060020a0316906020013560ff1661020a565b005b3480156100f757600080fd5b5061011e6004803603602081101561010e57600080fd5b5035600160a060020a031661036c565b604080519115158252519081900360200190f35b34801561013e57600080fd5b506101656004803603602081101561015557600080fd5b5035600160a060020a0316610381565b6040805160ff9092168252519081900360200190f35b34801561018757600080fd5b50610190610396565b604051808260a080838360005b838110156101b557818101518382015260200161019d565b5050505090500191505060405180910390f35b3480156101d457600080fd5b5061011e600480360360208110156101eb57600080fd5b5035600160a060020a03166103ee565b600054600160a060020a031681565b600160a060020a038216600090815260096020526040902054829060ff16151561023357600080fd5b600160a060020a03831660009081526008602052604090205460ff16156102e757600160a060020a03831660009081526008602052604090205460019060079060ff166005811061028057fe5b602080820490920154600160a060020a0387166000908152600890935260409092205460ff601f9092166101000a9092048116929092039160079116600581106102c657fe5b602091828204019190066101000a81548160ff021916908360ff1602179055505b600160a060020a0383166000908152600860205260409020805460ff191660ff84169081179091556007906005811061031c57fe5b602091828204019190069054906101000a900460ff1660010160078360ff1660058110151561034757fe5b602091828204019190066101000a81548160ff021916908360ff160217905550505050565b600a6020526000908152604090205460ff1681565b60086020526000908152604090205460ff1681565b61039e610403565b6040805160a081019182905290600790600590826000855b825461010083900a900460ff168152602060019283018181049485019490930390920291018084116103b65790505050505050905090565b60096020526000908152604090205460ff1681565b60a060405190810160405280600590602082028038833950919291505056fea165627a7a72305820316dc43a303c5f66259c8e0e618e25c66fad05c02abe20a3dd690065d3ae5b720029a165627a7a7230582084732204bc0afaa8ff47b4ce17d56d8a758d4a52ac2277a15e59ec355c0ed31e0029a165627a7a723058202460b17646d9eda6e840c9ddc4a03c71fd43dd362e6ff43c8597814588200f060029",
  "source": "import './Organization.sol';\npragma solidity 0.5.0;\ncontract mainContract {\n    event OrganizationCreated(address indexed organization, address creator);\n    mapping (address => bool) ISorganizations;\n    Organization[] organizations;\n    function CreateOrganization(string memory _organizationName,string memory _organizationDiscription) public returns (address) {\n        Organization organization = new Organization(_organizationName,_organizationDiscription);\n        emit OrganizationCreated(address(organization), msg.sender);\n        ISorganizations[address(organization)] = true;\n        organizations.push(organization);\n        return address(organization);\n    }\n\n     function GoToOrganization(address _organization) public view   returns(bool) {\n            if (ISorganizations[_organization]) {\n               return true;\n            } else {\n               return false;\n            }\n   }\n}\n\n\n\n",
  "sourcePath": "/home/yehia/Documents/Projects/solidity/Feedblock/contracts/mainContract.sol",
  "compiler": {
    "name": "solc",
    "version": "0.5.0+commit.1d4f565a.Emscripten.clang"
  },
  "schemaVersion": "3.0.8",
  "updatedAt": "2019-07-06T20:04:54.946Z",
  "devdoc": {
    "methods": {}
  },
  "userdoc": {
    "methods": {}
  }
}