{
  "contractName": "Organization",
  "abi": [
    {
      "constant": true,
      "inputs": [
        {
          "name": "_organizationName",
          "type": "string"
        },
        {
          "name": "_organizationDiscription",
          "type": "string"
        }
      ],
      "name": "organizationCreate",
      "outputs": [
        {
          "name": "",
          "type": "address"
        }
      ],
      "payable": false,
      "stateMutability": "nonpayable",
      "type": "constructor",
      "signature": "constructor"
    },
    {
      "constant": true,
      "inputs": [
        {
          "indexed": false,
          "name": "name",
          "type": "string"
        },
        {
          "indexed": false,
          "name": "sessionAddress",
          "type": "address"
        },
        {
          "indexed": false,
          "name": "creator",
          "type": "address"
        }
      ],
      "name": "sessionnCreated",
      "outputs": [
        {
          "name": "",
          "type": "address"
        }
      ],
      "payable": false,
      "stateMutability": "view",
      "type": "event",
      "anonymous": false,
      "signature": "0x6501c9546c19e0c264ea977f2f67f10185bcb77814fd738d81c7df40358af7af"
    },
    {
      "inputs": [
        {
          "name": "_organizationName",
          "type": "string"
        },
        {
          "name": "_organizationDiscription",
          "type": "string"
        }
      ],
      "payable": false,
      "stateMutability": "nonpayable",
      "type": "function",
      "constant": false,
      "name": "CreateOrganization",
      "outputs": [
        {
          "name": "",
          "type": "address"
        }
      ],
      "signature": "0xa2d332de"
    },
    {
      "anonymous": false,
      "inputs": [
        {
          "indexed": true,
          "name": "_organizationName",
          "type": "string"
        },
        {
          "name": "_organizationDiscription",
          "type": "string"
        }
      ],
      "name": "setOrganizationInfo",
      "type": "function",
      "constant": false,
      "outputs": [],
      "payable": false,
      "stateMutability": "nonpayable",
      "signature": "0x3879d867"
    },
    {
      "anonymous": false,
      "inputs": [
        {
          "indexed": false,
          "name": "addr",
          "type": "address"
        },
        {
          "indexed": false,
          "name": "sessionAddress",
          "type": "address"
        },
        {
          "indexed": false,
          "name": "creator",
          "type": "address"
        }
      ],
      "name": "setcreator",
      "type": "function",
      "constant": false,
      "outputs": [],
      "payable": false,
      "stateMutability": "nonpayable",
      "signature": "0xff36a38c"
    },
    {
      "constant": false,
      "inputs": [
        {
          "name": "a",
          "type": "address"
        }
      ],
      "name": "clone",
      "outputs": [
        {
          "name": "",
          "type": "address"
        }
      ],
      "payable": false,
      "stateMutability": "nonpayable",
      "type": "function",
      "signature": "0x8124b78e"
    },
    {
      "constant": false,
      "inputs": [
        {
          "name": "_sessionName",
          "type": "string"
        },
        {
          "name": "_description",
          "type": "string"
        },
        {
          "name": "_startTime",
          "type": "uint256"
        },
        {
          "name": "_endTime",
          "type": "uint256"
        },
        {
          "name": "_lecturer",
          "type": "address[]"
        },
        {
          "name": "_attendes",
          "type": "address[]"
        }
      ],
      "name": "createdSession",
      "outputs": [
        {
          "name": "",
          "type": "address"
        }
      ],
      "payable": false,
      "stateMutability": "nonpayable",
      "type": "function",
      "signature": "0x373c4d64"
    },
    {
      "constant": false,
      "inputs": [
        {
          "name": "_session",
          "type": "address"
        },
        {
          "name": "_voter",
          "type": "address"
        },
        {
          "name": "_feedback",
          "type": "uint8"
        }
      ],
      "name": "sessionTakeFeedback",
      "outputs": [],
      "payable": false,
      "stateMutability": "nonpayable",
      "type": "function",
      "signature": "0x54096813"
    },
    {
      "constant": true,
      "inputs": [
        {
          "name": "_session",
          "type": "address"
        }
      ],
      "name": "sessionSeeResult",
      "outputs": [
        {
          "name": "",
          "type": "int256[]"
        }
      ],
      "payable": false,
      "stateMutability": "view",
      "type": "function",
      "signature": "0x51604d97"
    }
  ],
  "bytecode": "0x60806040523480156200001157600080fd5b5060405162001c9c38038062001c9c833981018060405260408110156200003757600080fd5b8101908080516401000000008111156200005057600080fd5b828101905060208101848111156200006757600080fd5b81518560018202830111640100000000821117156200008557600080fd5b50509291906020018051640100000000811115620000a257600080fd5b82810190506020810184811115620000b957600080fd5b8151856001820283011164010000000082111715620000d757600080fd5b50509291905050508160019080519060200190620000f792919062000119565b5080600290805190602001906200011092919062000119565b505050620001c8565b828054600181600116156101000203166002900490600052602060002090601f016020900481019282601f106200015c57805160ff19168380011785556200018d565b828001600101855582156200018d579182015b828111156200018c5782518255916020019190600101906200016f565b5b5090506200019c9190620001a0565b5090565b620001c591905b80821115620001c1576000816000905550600101620001a7565b5090565b90565b611ac480620001d86000396000f3fe6080604052600436106200008b576000357c0100000000000000000000000000000000000000000000000000000000900463ffffffff168063373c4d6414620000905780633879d867146200037b57806351604d9714620004e45780635409681314620005905780638124b78e1462000612578063a2d332de14620006a7578063e03ba1991462000850575b600080fd5b3480156200009d57600080fd5b5062000339600480360360c0811015620000b657600080fd5b8101908080359060200190640100000000811115620000d457600080fd5b820183602082011115620000e757600080fd5b803590602001918460018302840111640100000000831117156200010a57600080fd5b91908080601f016020809104026020016040519081016040528093929190818152602001838380828437600081840152601f19601f820116905080830192505050505050509192919290803590602001906401000000008111156200016e57600080fd5b8201836020820111156200018157600080fd5b80359060200191846001830284011164010000000083111715620001a457600080fd5b91908080601f016020809104026020016040519081016040528093929190818152602001838380828437600081840152601f19601f8201169050808301925050505050505091929192908035906020019092919080359060200190929190803590602001906401000000008111156200021c57600080fd5b8201836020820111156200022f57600080fd5b803590602001918460208302840111640100000000831117156200025257600080fd5b919080806020026020016040519081016040528093929190818152602001838360200280828437600081840152601f19601f82011690508083019250505050505050919291929080359060200190640100000000811115620002b357600080fd5b820183602082011115620002c657600080fd5b80359060200191846020830284011164010000000083111715620002e957600080fd5b919080806020026020016040519081016040528093929190818152602001838360200280828437600081840152601f19601f820116905080830192505050505050509192919290505050620008a5565b604051808273ffffffffffffffffffffffffffffffffffffffff1673ffffffffffffffffffffffffffffffffffffffff16815260200191505060405180910390f35b3480156200038857600080fd5b50620004e260048036036040811015620003a157600080fd5b8101908080359060200190640100000000811115620003bf57600080fd5b820183602082011115620003d257600080fd5b80359060200191846001830284011164010000000083111715620003f557600080fd5b91908080601f016020809104026020016040519081016040528093929190818152602001838380828437600081840152601f19601f820116905080830192505050505050509192919290803590602001906401000000008111156200045957600080fd5b8201836020820111156200046c57600080fd5b803590602001918460018302840111640100000000831117156200048f57600080fd5b91908080601f016020809104026020016040519081016040528093929190818152602001838380828437600081840152601f19601f82011690508083019250505050505050919291929050505062000cdb565b005b348015620004f157600080fd5b5062000537600480360360208110156200050a57600080fd5b81019080803573ffffffffffffffffffffffffffffffffffffffff16906020019092919050505062000d11565b6040518080602001828103825283818151815260200191508051906020019060200280838360005b838110156200057c5780820151818401526020810190506200055f565b505050509050019250505060405180910390f35b3480156200059d57600080fd5b506200061060048036036060811015620005b657600080fd5b81019080803573ffffffffffffffffffffffffffffffffffffffff169060200190929190803573ffffffffffffffffffffffffffffffffffffffff169060200190929190803560ff16906020019092919050505062000e84565b005b3480156200061f57600080fd5b5062000665600480360360208110156200063857600080fd5b81019080803573ffffffffffffffffffffffffffffffffffffffff16906020019092919050505062000fbd565b604051808273ffffffffffffffffffffffffffffffffffffffff1673ffffffffffffffffffffffffffffffffffffffff16815260200191505060405180910390f35b348015620006b457600080fd5b506200080e60048036036040811015620006cd57600080fd5b8101908080359060200190640100000000811115620006eb57600080fd5b820183602082011115620006fe57600080fd5b803590602001918460018302840111640100000000831117156200072157600080fd5b91908080601f016020809104026020016040519081016040528093929190818152602001838380828437600081840152601f19601f820116905080830192505050505050509192919290803590602001906401000000008111156200078557600080fd5b8201836020820111156200079857600080fd5b80359060200191846001830284011164010000000083111715620007bb57600080fd5b91908080601f016020809104026020016040519081016040528093929190818152602001838380828437600081840152601f19601f82011690508083019250505050505050919291929050505062001003565b604051808273ffffffffffffffffffffffffffffffffffffffff1673ffffffffffffffffffffffffffffffffffffffff16815260200191505060405180910390f35b3480156200085d57600080fd5b50620008a3600480360360208110156200087657600080fd5b81019080803573ffffffffffffffffffffffffffffffffffffffff169060200190929190505050620010e4565b005b6000868686868686620008b762001127565b808060200180602001878152602001868152602001806020018060200185810385528b818151815260200191508051906020019080838360005b838110156200090e578082015181840152602081019050620008f1565b50505050905090810190601f1680156200093c5780820380516001836020036101000a031916815260200191505b5085810384528a818151815260200191508051906020019080838360005b83811015620009775780820151818401526020810190506200095a565b50505050905090810190601f168015620009a55780820380516001836020036101000a031916815260200191505b50858103835287818151815260200191508051906020019060200280838360005b83811015620009e3578082015181840152602081019050620009c6565b50505050905001858103825286818151815260200191508051906020019060200280838360005b8381101562000a2757808201518184015260208101905062000a0a565b505050509050019a5050505050505050505050604051809103906000f08015801562000a57573d6000803e3d6000fd5b50600360006101000a81548173ffffffffffffffffffffffffffffffffffffffff021916908373ffffffffffffffffffffffffffffffffffffffff160217905550600360009054906101000a900473ffffffffffffffffffffffffffffffffffffffff16600360006101000a81548173ffffffffffffffffffffffffffffffffffffffff021916908373ffffffffffffffffffffffffffffffffffffffff160217905550600760056000600360009054906101000a900473ffffffffffffffffffffffffffffffffffffffff1673ffffffffffffffffffffffffffffffffffffffff1673ffffffffffffffffffffffffffffffffffffffff168152602001908152602001600020819055507f6501c9546c19e0c264ea977f2f67f10185bcb77814fd738d81c7df40358af7af87600360009054906101000a900473ffffffffffffffffffffffffffffffffffffffff166000809054906101000a900473ffffffffffffffffffffffffffffffffffffffff1660405180806020018473ffffffffffffffffffffffffffffffffffffffff1673ffffffffffffffffffffffffffffffffffffffff1681526020018373ffffffffffffffffffffffffffffffffffffffff1673ffffffffffffffffffffffffffffffffffffffff168152602001828103825285818151815260200191508051906020019080838360005b8381101562000c6f57808201518184015260208101905062000c52565b50505050905090810190601f16801562000c9d5780820380516001836020036101000a031916815260200191505b5094505050505060405180910390a1600360009054906101000a900473ffffffffffffffffffffffffffffffffffffffff1690509695505050505050565b816001908051906020019062000cf392919062001138565b50806002908051906020019062000d0c92919062001138565b505050565b60606007600560008473ffffffffffffffffffffffffffffffffffffffff1673ffffffffffffffffffffffffffffffffffffffff1681526020019081526020016000205414151562000d6257600080fd5b600360009054906101000a900473ffffffffffffffffffffffffffffffffffffffff1673ffffffffffffffffffffffffffffffffffffffff1663d6d46ba86040518163ffffffff167c010000000000000000000000000000000000000000000000000000000002815260040160006040518083038186803b15801562000de757600080fd5b505afa15801562000dfc573d6000803e3d6000fd5b505050506040513d6000823e3d601f19601f82011682018060405250602081101562000e2757600080fd5b81019080805164010000000081111562000e4057600080fd5b8281019050602081018481111562000e5757600080fd5b815185602082028301116401000000008211171562000e7557600080fd5b50509291905050509050919050565b6007600560008573ffffffffffffffffffffffffffffffffffffffff1673ffffffffffffffffffffffffffffffffffffffff1681526020019081526020016000205414151562000ed357600080fd5b600360009054906101000a900473ffffffffffffffffffffffffffffffffffffffff1673ffffffffffffffffffffffffffffffffffffffff166347228fe383836040518363ffffffff167c0100000000000000000000000000000000000000000000000000000000028152600401808373ffffffffffffffffffffffffffffffffffffffff1673ffffffffffffffffffffffffffffffffffffffff1681526020018260ff1660ff16815260200192505050600060405180830381600087803b15801562000f9f57600080fd5b505af115801562000fb4573d6000803e3d6000fd5b50505050505050565b600080690100000000000000000083027f5880730000000000000000000000000000000000000000803b80938091923cf3176000526020600080f0905080915050919050565b600080620010113062000fbd565b905060008190508073ffffffffffffffffffffffffffffffffffffffff1663e03ba199306040518263ffffffff167c0100000000000000000000000000000000000000000000000000000000028152600401808273ffffffffffffffffffffffffffffffffffffffff1673ffffffffffffffffffffffffffffffffffffffff168152602001915050600060405180830381600087803b158015620010b457600080fd5b505af1158015620010c9573d6000803e3d6000fd5b50505050620010d9858562000cdb565b809250505092915050565b806000806101000a81548173ffffffffffffffffffffffffffffffffffffffff021916908373ffffffffffffffffffffffffffffffffffffffff16021790555050565b6040516108b180620011e883390190565b828054600181600116156101000203166002900490600052602060002090601f016020900481019282601f106200117b57805160ff1916838001178555620011ac565b82800160010185558215620011ac579182015b82811115620011ab5782518255916020019190600101906200118e565b5b509050620011bb9190620011bf565b5090565b620011e491905b80821115620011e0576000816000905550600101620011c6565b5090565b9056fe608060405234801561001057600080fd5b506040516108b13803806108b1833981018060405260c081101561003357600080fd5b81019080805164010000000081111561004b57600080fd5b8281019050602081018481111561006157600080fd5b815185600182028301116401000000008211171561007e57600080fd5b5050929190602001805164010000000081111561009a57600080fd5b828101905060208101848111156100b057600080fd5b81518560018202830111640100000000821117156100cd57600080fd5b5050929190602001805190602001909291908051906020019092919080516401000000008111156100fd57600080fd5b8281019050602081018481111561011357600080fd5b815185602082028301116401000000008211171561013057600080fd5b5050929190602001805164010000000081111561014c57600080fd5b8281019050602081018481111561016257600080fd5b815185602082028301116401000000008211171561017f57600080fd5b505092919050505083804210151561019657600080fd5b86600190805190602001906101ac929190610345565b5085600290805190602001906101c3929190610345565b50846003819055508360048190555081600690805190602001906101e89291906103c5565b5082600590805190602001906101ff9291906103c5565b5061029e600680548060200260200160405190810160405280929190818152602001828054801561028557602002820191906000526020600020905b8160009054906101000a900473ffffffffffffffffffffffffffffffffffffffff1673ffffffffffffffffffffffffffffffffffffffff168152602001906001019080831161023b575b50505050506102aa640100000000026401000000009004565b505050505050506104b7565b60008090505b8151811015610341577fffffffffffffffffffffffffffffffffffffffffffffffffffffffffffffffff6008600084848151811015156102ec57fe5b9060200190602002015173ffffffffffffffffffffffffffffffffffffffff1673ffffffffffffffffffffffffffffffffffffffff1681526020019081526020016000208190555080806001019150506102b0565b5050565b828054600181600116156101000203166002900490600052602060002090601f016020900481019282601f1061038657805160ff19168380011785556103b4565b828001600101855582156103b4579182015b828111156103b3578251825591602001919060010190610398565b5b5090506103c1919061044f565b5090565b82805482825590600052602060002090810192821561043e579160200282015b8281111561043d5782518260006101000a81548173ffffffffffffffffffffffffffffffffffffffff021916908373ffffffffffffffffffffffffffffffffffffffff160217905550916020019190600101906103e5565b5b50905061044b9190610474565b5090565b61047191905b8082111561046d576000816000905550600101610455565b5090565b90565b6104b491905b808211156104b057600081816101000a81549073ffffffffffffffffffffffffffffffffffffffff02191690555060010161047a565b5090565b90565b6103eb806104c66000396000f3fe60806040526004361061006d576000357c0100000000000000000000000000000000000000000000000000000000900463ffffffff16806302d05d3f1461007257806347228fe3146100c9578063c8dff62514610127578063d6d46ba81461018c578063f8e157ea146101f8575b600080fd5b34801561007e57600080fd5b50610087610227565b604051808273ffffffffffffffffffffffffffffffffffffffff1673ffffffffffffffffffffffffffffffffffffffff16815260200191505060405180910390f35b3480156100d557600080fd5b50610125600480360360408110156100ec57600080fd5b81019080803573ffffffffffffffffffffffffffffffffffffffff169060200190929190803560ff16906020019092919050505061024c565b005b34801561013357600080fd5b506101766004803603602081101561014a57600080fd5b81019080803573ffffffffffffffffffffffffffffffffffffffff169060200190929190505050610325565b6040518082815260200191505060405180910390f35b34801561019857600080fd5b506101a161033d565b6040518080602001828103825283818151815260200191508051906020019060200280838360005b838110156101e45780820151818401526020810190506101c9565b505050509050019250505060405180910390f35b34801561020457600080fd5b5061020d610395565b604051808215151515815260200191505060405180910390f35b6000809054906101000a900473ffffffffffffffffffffffffffffffffffffffff1681565b610254610395565b151561025f57600080fd5b6000600860008473ffffffffffffffffffffffffffffffffffffffff1673ffffffffffffffffffffffffffffffffffffffff16815260200190815260200160002054141515156102ae57600080fd5b8060ff16600860008473ffffffffffffffffffffffffffffffffffffffff1673ffffffffffffffffffffffffffffffffffffffff1681526020019081526020016000208190555060078160ff1681548110151561030757fe5b90600052602060002001600081548092919060010191905055505050565b60086020528060005260406000206000915090505481565b6060600780548060200260200160405190810160405280929190818152602001828054801561038b57602002820191906000526020600020905b815481526020019060010190808311610377575b5050505050905090565b600060035442101580156103ab57506004544211155b80156103ba5750600454600354105b90509056fea165627a7a723058209fcba2a2a880fa96e0806cd00d7f7277a2f960d1aac3e69a05fe3c04b631339c0029a165627a7a7230582001862d7b159b5ee9e774d248c04d234a7282d9c4c49367700d937628d9f42b010029",
  "source": "// Session.deployed().then(function(instance){ return instance.take_feedback('0x0fce0e522a2a18ee1e0fbf913e12483aec3f8404',8);});\npragma solidity 0.5.0;\nimport \"./Session.sol\";\nimport \"./OrganizationCreator.sol\";\n\n\ncontract Organization {\n  \n    address creator;\n    string organizationName;\n    string organizationDiscription;\n    Session session;\n    OrganizationCreator oragnization;\n    mapping (address => uint) ISsession;\n \n   constructor(string  memory _organizationName, string memory _organizationDiscription) public{\n        organizationName = _organizationName;\n        organizationDiscription = _organizationDiscription;\n      }\n\n    //create Organization\n   function CreateOrganization(string  memory _organizationName, string memory _organizationDiscription) public returns(address) {\n         address childAddress = clone(address(this));\n         Organization child = Organization(childAddress);\n         child.setcreator(address(this));\n         setOrganizationInfo(_organizationName,_organizationDiscription);\n         return address(child);\n   }\n   \n  function setOrganizationInfo(string  memory _organizationName, string memory _organizationDiscription)  public  {\n       organizationName = _organizationName;\n        organizationDiscription = _organizationDiscription;\n  }\n   function setcreator(address addr) public {\n         creator = addr;\n   }\n\n   function clone(address a) public returns(address)  {\n      address retval;\n      assembly{\n         mstore(0x0, or (0x5880730000000000000000000000000000000000000000803b80938091923cF3 ,mul(a,0x1000000000000000000)))\n         retval := create(0,0, 32)\n      }\n      return retval;\n   }\n      \n    event sessionnCreated(string name,address sessionAddress ,address creator);\n     \n    modifier onlyCreator(){\n        require(msg.sender == creator);\n        _;\n    } \n    \n      \n\n\n     //construct Session Contract\n     function createdSession(\n      string memory _sessionName,\n      string memory _description,\n      uint _startTime,\n      uint _endTime,\n      address[] memory _lecturer,\n      address[] memory _attendes\n     ) public   returns(address) {\n        \n        session = new Session(_sessionName , _description , _startTime , _endTime, _lecturer,_attendes );\n        session = Session(address(session));\n        ISsession[address(session)] = 7;\n        emit sessionnCreated(_sessionName,address(session),creator);\n        return address(session);\n     }\n     \n     //Session Contract Methods\n     function sessionTakeFeedback(address _session,address _voter,uint8 _feedback) public{\n        require(ISsession[_session] == 7);\n        Session(address(session)).take_feedback(_voter,_feedback);  \n     }\n   function sessionSeeResult(address _session) public view returns(int[] memory) {\n        require(ISsession[_session] == 7);\n        return   Session(address(session)).seeResult();\n   }\n}\n\n",
  "sourcePath": "/home/yehia/Documents/Projects/solidity/Think Big/Events-Feedback/contracts/Organization.sol",
  "compiler": {
    "name": "solc",
    "version": "0.5.0+commit.1d4f565a.Emscripten.clang"
  },
  "schemaVersion": "3.0.8",
  "updatedAt": "2019-06-24T11:59:23.999Z",
  "devdoc": {
    "methods": {}
  },
  "userdoc": {
    "methods": {}
  }
}