{
  "contractName": "Organization",
  "abi": [
    {
      "inputs": [
        {
          "name": "_organizationName",
          "type": "string"
        },
        {
          "name": "_organizationDiscription",
          "type": "string"
        }
      ],
      "payable": false,
      "stateMutability": "nonpayable",
      "type": "constructor",
      "signature": "constructor"
    },
    {
      "anonymous": false,
      "inputs": [
        {
          "indexed": false,
          "name": "name",
          "type": "string"
        },
        {
          "indexed": false,
          "name": "sessionAddress",
          "type": "address"
        },
        {
          "indexed": false,
          "name": "creator",
          "type": "address"
        }
      ],
      "name": "sessionnCreated",
      "type": "event",
      "signature": "0x6501c9546c19e0c264ea977f2f67f10185bcb77814fd738d81c7df40358af7af"
    },
    {
      "anonymous": false,
      "inputs": [
        {
          "indexed": false,
          "name": "name",
          "type": "string"
        },
        {
          "indexed": false,
          "name": "discription",
          "type": "string"
        },
        {
          "indexed": false,
          "name": "organizationAddress",
          "type": "address"
        },
        {
          "indexed": false,
          "name": "creatorAddress",
          "type": "address"
        }
      ],
      "name": "organizationCreated",
      "type": "event",
      "signature": "0xd2d30466421d393317d05de1c9b086a7ed7dcd8dc29f322bece423b4b5575068"
    },
    {
      "constant": false,
      "inputs": [
        {
          "name": "_organizationName",
          "type": "string"
        },
        {
          "name": "_organizationDiscription",
          "type": "string"
        }
      ],
      "name": "CreateOrganization",
      "outputs": [
        {
          "name": "",
          "type": "address"
        }
      ],
      "payable": false,
      "stateMutability": "nonpayable",
      "type": "function",
      "signature": "0xa2d332de"
    },
    {
      "constant": true,
      "inputs": [
        {
          "name": "_organization",
          "type": "address"
        }
      ],
      "name": "GoToOrganization",
      "outputs": [
        {
          "name": "",
          "type": "bool"
        }
      ],
      "payable": false,
      "stateMutability": "view",
      "type": "function",
      "signature": "0x82e899f5"
    },
    {
      "constant": false,
      "inputs": [
        {
          "name": "_organizationName",
          "type": "string"
        },
        {
          "name": "_organizationDiscription",
          "type": "string"
        }
      ],
      "name": "setOrganizationInfo",
      "outputs": [],
      "payable": false,
      "stateMutability": "nonpayable",
      "type": "function",
      "signature": "0x3879d867"
    },
    {
      "constant": false,
      "inputs": [
        {
          "name": "addr",
          "type": "address"
        }
      ],
      "name": "setcreator",
      "outputs": [],
      "payable": false,
      "stateMutability": "nonpayable",
      "type": "function",
      "signature": "0xe03ba199"
    },
    {
      "constant": false,
      "inputs": [
        {
          "name": "a",
          "type": "address"
        }
      ],
      "name": "clone",
      "outputs": [
        {
          "name": "",
          "type": "address"
        }
      ],
      "payable": false,
      "stateMutability": "nonpayable",
      "type": "function",
      "signature": "0x8124b78e"
    },
    {
      "constant": false,
      "inputs": [
        {
          "name": "_sessionName",
          "type": "string"
        },
        {
          "name": "_description",
          "type": "string"
        },
        {
          "name": "_startTime",
          "type": "uint256"
        },
        {
          "name": "_endTime",
          "type": "uint256"
        },
        {
          "name": "_lecturer",
          "type": "address[]"
        },
        {
          "name": "_attendes",
          "type": "address[]"
        }
      ],
      "name": "createdSession",
      "outputs": [
        {
          "name": "",
          "type": "address"
        }
      ],
      "payable": false,
      "stateMutability": "nonpayable",
      "type": "function",
      "signature": "0x373c4d64"
    },
    {
      "constant": false,
      "inputs": [
        {
          "name": "_session",
          "type": "address"
        },
        {
          "name": "_voter",
          "type": "address"
        },
        {
          "name": "_feedback",
          "type": "uint8"
        }
      ],
      "name": "sessionTakeFeedback",
      "outputs": [],
      "payable": false,
      "stateMutability": "nonpayable",
      "type": "function",
      "signature": "0x54096813"
    },
    {
      "constant": true,
      "inputs": [
        {
          "name": "_session",
          "type": "address"
        }
      ],
      "name": "sessionSeeResult",
      "outputs": [
        {
          "name": "",
          "type": "uint8[5]"
        }
      ],
      "payable": false,
      "stateMutability": "view",
      "type": "function",
      "signature": "0x51604d97"
    }
  ],
  "bytecode": "0x60806040523480156200001157600080fd5b50604051620020c1380380620020c1833981018060405260408110156200003757600080fd5b8101908080516401000000008111156200005057600080fd5b828101905060208101848111156200006757600080fd5b81518560018202830111640100000000821117156200008557600080fd5b50509291906020018051640100000000811115620000a257600080fd5b82810190506020810184811115620000b957600080fd5b8151856001820283011164010000000082111715620000d757600080fd5b50509291905050508160019080519060200190620000f792919062000119565b5080600290805190602001906200011092919062000119565b505050620001c8565b828054600181600116156101000203166002900490600052602060002090601f016020900481019282601f106200015c57805160ff19168380011785556200018d565b828001600101855582156200018d579182015b828111156200018c5782518255916020019190600101906200016f565b5b5090506200019c9190620001a0565b5090565b620001c591905b80821115620001c1576000816000905550600101620001a7565b5090565b90565b611ee980620001d86000396000f3fe60806040526004361062000097576000357c0100000000000000000000000000000000000000000000000000000000900463ffffffff168063373c4d64146200009c5780633879d867146200038757806351604d9714620004f05780635409681314620005835780638124b78e146200060557806382e899f5146200069a578063a2d332de1462000707578063e03ba19914620008b0575b600080fd5b348015620000a957600080fd5b5062000345600480360360c0811015620000c257600080fd5b8101908080359060200190640100000000811115620000e057600080fd5b820183602082011115620000f357600080fd5b803590602001918460018302840111640100000000831117156200011657600080fd5b91908080601f016020809104026020016040519081016040528093929190818152602001838380828437600081840152601f19601f820116905080830192505050505050509192919290803590602001906401000000008111156200017a57600080fd5b8201836020820111156200018d57600080fd5b80359060200191846001830284011164010000000083111715620001b057600080fd5b91908080601f016020809104026020016040519081016040528093929190818152602001838380828437600081840152601f19601f8201169050808301925050505050505091929192908035906020019092919080359060200190929190803590602001906401000000008111156200022857600080fd5b8201836020820111156200023b57600080fd5b803590602001918460208302840111640100000000831117156200025e57600080fd5b919080806020026020016040519081016040528093929190818152602001838360200280828437600081840152601f19601f82011690508083019250505050505050919291929080359060200190640100000000811115620002bf57600080fd5b820183602082011115620002d257600080fd5b80359060200191846020830284011164010000000083111715620002f557600080fd5b919080806020026020016040519081016040528093929190818152602001838360200280828437600081840152601f19601f82011690508083019250505050505050919291929050505062000905565b604051808273ffffffffffffffffffffffffffffffffffffffff1673ffffffffffffffffffffffffffffffffffffffff16815260200191505060405180910390f35b3480156200039457600080fd5b50620004ee60048036036040811015620003ad57600080fd5b8101908080359060200190640100000000811115620003cb57600080fd5b820183602082011115620003de57600080fd5b803590602001918460018302840111640100000000831117156200040157600080fd5b91908080601f016020809104026020016040519081016040528093929190818152602001838380828437600081840152601f19601f820116905080830192505050505050509192919290803590602001906401000000008111156200046557600080fd5b8201836020820111156200047857600080fd5b803590602001918460018302840111640100000000831117156200049b57600080fd5b91908080601f016020809104026020016040519081016040528093929190818152602001838380828437600081840152601f19601f82011690508083019250505050505050919291929050505062000d3b565b005b348015620004fd57600080fd5b5062000543600480360360208110156200051657600080fd5b81019080803573ffffffffffffffffffffffffffffffffffffffff16906020019092919050505062000d71565b6040518082600560200280838360005b838110156200057057808201518184015260208101905062000553565b5050505090500191505060405180910390f35b3480156200059057600080fd5b506200060360048036036060811015620005a957600080fd5b81019080803573ffffffffffffffffffffffffffffffffffffffff169060200190929190803573ffffffffffffffffffffffffffffffffffffffff169060200190929190803560ff16906020019092919050505062000e9b565b005b3480156200061257600080fd5b5062000658600480360360208110156200062b57600080fd5b81019080803573ffffffffffffffffffffffffffffffffffffffff16906020019092919050505062000fba565b604051808273ffffffffffffffffffffffffffffffffffffffff1673ffffffffffffffffffffffffffffffffffffffff16815260200191505060405180910390f35b348015620006a757600080fd5b50620006ed60048036036020811015620006c057600080fd5b81019080803573ffffffffffffffffffffffffffffffffffffffff16906020019092919050505062001000565b604051808215151515815260200191505060405180910390f35b3480156200071457600080fd5b506200086e600480360360408110156200072d57600080fd5b81019080803590602001906401000000008111156200074b57600080fd5b8201836020820111156200075e57600080fd5b803590602001918460018302840111640100000000831117156200078157600080fd5b91908080601f016020809104026020016040519081016040528093929190818152602001838380828437600081840152601f19601f82011690508083019250505050505050919291929080359060200190640100000000811115620007e557600080fd5b820183602082011115620007f857600080fd5b803590602001918460018302840111640100000000831117156200081b57600080fd5b91908080601f016020809104026020016040519081016040528093929190818152602001838380828437600081840152601f19601f8201169050808301925050505050505091929192905050506200105f565b604051808273ffffffffffffffffffffffffffffffffffffffff1673ffffffffffffffffffffffffffffffffffffffff16815260200191505060405180910390f35b348015620008bd57600080fd5b506200090360048036036020811015620008d657600080fd5b81019080803573ffffffffffffffffffffffffffffffffffffffff169060200190929190505050620012fc565b005b6000868686868686620009176200133f565b808060200180602001878152602001868152602001806020018060200185810385528b818151815260200191508051906020019080838360005b838110156200096e57808201518184015260208101905062000951565b50505050905090810190601f1680156200099c5780820380516001836020036101000a031916815260200191505b5085810384528a818151815260200191508051906020019080838360005b83811015620009d7578082015181840152602081019050620009ba565b50505050905090810190601f16801562000a055780820380516001836020036101000a031916815260200191505b50858103835287818151815260200191508051906020019060200280838360005b8381101562000a4357808201518184015260208101905062000a26565b50505050905001858103825286818151815260200191508051906020019060200280838360005b8381101562000a8757808201518184015260208101905062000a6a565b505050509050019a5050505050505050505050604051809103906000f08015801562000ab7573d6000803e3d6000fd5b50600360006101000a81548173ffffffffffffffffffffffffffffffffffffffff021916908373ffffffffffffffffffffffffffffffffffffffff160217905550600360009054906101000a900473ffffffffffffffffffffffffffffffffffffffff16600360006101000a81548173ffffffffffffffffffffffffffffffffffffffff021916908373ffffffffffffffffffffffffffffffffffffffff160217905550600760046000600360009054906101000a900473ffffffffffffffffffffffffffffffffffffffff1673ffffffffffffffffffffffffffffffffffffffff1673ffffffffffffffffffffffffffffffffffffffff168152602001908152602001600020819055507f6501c9546c19e0c264ea977f2f67f10185bcb77814fd738d81c7df40358af7af87600360009054906101000a900473ffffffffffffffffffffffffffffffffffffffff166000809054906101000a900473ffffffffffffffffffffffffffffffffffffffff1660405180806020018473ffffffffffffffffffffffffffffffffffffffff1673ffffffffffffffffffffffffffffffffffffffff1681526020018373ffffffffffffffffffffffffffffffffffffffff1673ffffffffffffffffffffffffffffffffffffffff168152602001828103825285818151815260200191508051906020019080838360005b8381101562000ccf57808201518184015260208101905062000cb2565b50505050905090810190601f16801562000cfd5780820380516001836020036101000a031916815260200191505b5094505050505060405180910390a1600360009054906101000a900473ffffffffffffffffffffffffffffffffffffffff1690509695505050505050565b816001908051906020019062000d5392919062001350565b50806002908051906020019062000d6c92919062001350565b505050565b62000d7b620013d7565b816007600460008373ffffffffffffffffffffffffffffffffffffffff1673ffffffffffffffffffffffffffffffffffffffff1681526020019081526020016000205414151562000dcb57600080fd5b600360009054906101000a900473ffffffffffffffffffffffffffffffffffffffff1673ffffffffffffffffffffffffffffffffffffffff1663d6d46ba86040518163ffffffff167c010000000000000000000000000000000000000000000000000000000002815260040160a06040518083038186803b15801562000e5057600080fd5b505afa15801562000e65573d6000803e3d6000fd5b505050506040513d601f19601f8201168201806040525060a081101562000e8b57600080fd5b8101908091905050915050919050565b826007600460008373ffffffffffffffffffffffffffffffffffffffff1673ffffffffffffffffffffffffffffffffffffffff1681526020019081526020016000205414151562000eeb57600080fd5b60008490508073ffffffffffffffffffffffffffffffffffffffff166347228fe385856040518363ffffffff167c0100000000000000000000000000000000000000000000000000000000028152600401808373ffffffffffffffffffffffffffffffffffffffff1673ffffffffffffffffffffffffffffffffffffffff1681526020018260ff1660ff16815260200192505050600060405180830381600087803b15801562000f9a57600080fd5b505af115801562000faf573d6000803e3d6000fd5b505050505050505050565b600080690100000000000000000083027f5880730000000000000000000000000000000000000000803b80938091923cf3176000526020600080f0905080915050919050565b60006007600560008473ffffffffffffffffffffffffffffffffffffffff1673ffffffffffffffffffffffffffffffffffffffff1681526020019081526020016000205414156200105557600190506200105a565b600090505b919050565b6000806200106d3062000fba565b905060008190508073ffffffffffffffffffffffffffffffffffffffff1663e03ba199306040518263ffffffff167c0100000000000000000000000000000000000000000000000000000000028152600401808273ffffffffffffffffffffffffffffffffffffffff1673ffffffffffffffffffffffffffffffffffffffff168152602001915050600060405180830381600087803b1580156200111057600080fd5b505af115801562001125573d6000803e3d6000fd5b505050506007600560008373ffffffffffffffffffffffffffffffffffffffff1673ffffffffffffffffffffffffffffffffffffffff168152602001908152602001600020819055506200117a858562000d3b565b7fd2d30466421d393317d05de1c9b086a7ed7dcd8dc29f322bece423b4b5575068858583306040518080602001806020018573ffffffffffffffffffffffffffffffffffffffff1673ffffffffffffffffffffffffffffffffffffffff1681526020018473ffffffffffffffffffffffffffffffffffffffff1673ffffffffffffffffffffffffffffffffffffffff168152602001838103835287818151815260200191508051906020019080838360005b83811015620012495780820151818401526020810190506200122c565b50505050905090810190601f168015620012775780820380516001836020036101000a031916815260200191505b50838103825286818151815260200191508051906020019080838360005b83811015620012b257808201518184015260208101905062001295565b50505050905090810190601f168015620012e05780820380516001836020036101000a031916815260200191505b50965050505050505060405180910390a1809250505092915050565b806000806101000a81548173ffffffffffffffffffffffffffffffffffffffff021916908373ffffffffffffffffffffffffffffffffffffffff16021790555050565b604051610a9b806200142383390190565b828054600181600116156101000203166002900490600052602060002090601f016020900481019282601f106200139357805160ff1916838001178555620013c4565b82800160010185558215620013c4579182015b82811115620013c3578251825591602001919060010190620013a6565b5b509050620013d39190620013fa565b5090565b60a060405190810160405280600590602082028038833980820191505090505090565b6200141f91905b808211156200141b57600081600090555060010162001401565b5090565b9056fe60806040523480156200001157600080fd5b5060405162000a9b38038062000a9b833981018060405260c08110156200003757600080fd5b8101908080516401000000008111156200005057600080fd5b828101905060208101848111156200006757600080fd5b81518560018202830111640100000000821117156200008557600080fd5b50509291906020018051640100000000811115620000a257600080fd5b82810190506020810184811115620000b957600080fd5b8151856001820283011164010000000082111715620000d757600080fd5b5050929190602001805190602001909291908051906020019092919080516401000000008111156200010857600080fd5b828101905060208101848111156200011f57600080fd5b81518560208202830111640100000000821117156200013d57600080fd5b505092919060200180516401000000008111156200015a57600080fd5b828101905060208101848111156200017157600080fd5b81518560208202830111640100000000821117156200018f57600080fd5b5050929190505050838042101515620001a757600080fd5b8660019080519060200190620001bf9291906200035b565b508560029080519060200190620001d89291906200035b565b5084600381905550836004819055508160069080519060200190620001ff929190620003e2565b50826005908051906020019062000218929190620003e2565b50620002bb6006805480602002602001604051908101604052809291908181526020018280548015620002a157602002820191906000526020600020905b8160009054906101000a900473ffffffffffffffffffffffffffffffffffffffff1673ffffffffffffffffffffffffffffffffffffffff168152602001906001019080831162000256575b5050505050620002c8640100000000026401000000009004565b50505050505050620004df565b60008090505b815181101562000357576006600860008484815181101515620002ed57fe5b9060200190602002015173ffffffffffffffffffffffffffffffffffffffff1673ffffffffffffffffffffffffffffffffffffffff16815260200190815260200160002060006101000a81548160ff021916908360ff1602179055508080600101915050620002ce565b5050565b828054600181600116156101000203166002900490600052602060002090601f016020900481019282601f106200039e57805160ff1916838001178555620003cf565b82800160010185558215620003cf579182015b82811115620003ce578251825591602001919060010190620003b1565b5b509050620003de919062000471565b5090565b8280548282559060005260206000209081019282156200045e579160200282015b828111156200045d5782518260006101000a81548173ffffffffffffffffffffffffffffffffffffffff021916908373ffffffffffffffffffffffffffffffffffffffff1602179055509160200191906001019062000403565b5b5090506200046d919062000499565b5090565b6200049691905b808211156200049257600081600090555060010162000478565b5090565b90565b620004dc91905b80821115620004d857600081816101000a81549073ffffffffffffffffffffffffffffffffffffffff021916905550600101620004a0565b5090565b90565b6105ac80620004ef6000396000f3fe60806040526004361061006d576000357c0100000000000000000000000000000000000000000000000000000000900463ffffffff16806302d05d3f1461007257806347228fe3146100c9578063c8dff62514610127578063d6d46ba814610192578063f8e157ea146101e5575b600080fd5b34801561007e57600080fd5b50610087610214565b604051808273ffffffffffffffffffffffffffffffffffffffff1673ffffffffffffffffffffffffffffffffffffffff16815260200191505060405180910390f35b3480156100d557600080fd5b50610125600480360360408110156100ec57600080fd5b81019080803573ffffffffffffffffffffffffffffffffffffffff169060200190929190803560ff169060200190929190505050610239565b005b34801561013357600080fd5b506101766004803603602081101561014a57600080fd5b81019080803573ffffffffffffffffffffffffffffffffffffffff1690602001909291905050506104a2565b604051808260ff1660ff16815260200191505060405180910390f35b34801561019e57600080fd5b506101a76104c2565b6040518082600560200280838360005b838110156101d25780820151818401526020810190506101b7565b5050505090500191505060405180910390f35b3480156101f157600080fd5b506101fa610533565b604051808215151515815260200191505060405180910390f35b6000809054906101000a900473ffffffffffffffffffffffffffffffffffffffff1681565b816000600860008373ffffffffffffffffffffffffffffffffffffffff1673ffffffffffffffffffffffffffffffffffffffff16815260200190815260200160002060009054906101000a900460ff1660ff161415151561029957600080fd5b6006600860008573ffffffffffffffffffffffffffffffffffffffff1673ffffffffffffffffffffffffffffffffffffffff16815260200190815260200160002060009054906101000a900460ff1660ff161415156103e85760016007600860008673ffffffffffffffffffffffffffffffffffffffff1673ffffffffffffffffffffffffffffffffffffffff16815260200190815260200160002060009054906101000a900460ff1660ff1660058110151561035257fe5b602091828204019190069054906101000a900460ff16036007600860008673ffffffffffffffffffffffffffffffffffffffff1673ffffffffffffffffffffffffffffffffffffffff16815260200190815260200160002060009054906101000a900460ff1660ff166005811015156103c757fe5b602091828204019190066101000a81548160ff021916908360ff1602179055505b81600860008573ffffffffffffffffffffffffffffffffffffffff1673ffffffffffffffffffffffffffffffffffffffff16815260200190815260200160002060006101000a81548160ff021916908360ff160217905550600160078360ff1660058110151561045457fe5b602091828204019190069054906101000a900460ff160160078360ff1660058110151561047d57fe5b602091828204019190066101000a81548160ff021916908360ff160217905550505050565b60086020528060005260406000206000915054906101000a900460ff1681565b6104ca61055d565b6007600580602002604051908101604052809291908260058015610529576020028201916000905b82829054906101000a900460ff1660ff16815260200190600101906020826000010492830192600103820291508084116104f25790505b5050505050905090565b6000600354421015801561054957506004544211155b80156105585750600454600354105b905090565b60a06040519081016040528060059060208202803883398082019150509050509056fea165627a7a72305820828fa8fbb2e467165d91df79948ab901b64d4f77580c22ae2773fb71c968ea0e0029a165627a7a72305820758662cfaf2a1e5439725280d02933c820406f6d8a6ca6aa17fd8bd40e7cb3ce0029",
  "source": "// Session.deployed().then(function(instance){ return instance.take_feedback('0x0fce0e522a2a18ee1e0fbf913e12483aec3f8404',8);});\npragma solidity 0.5.0;\nimport \"./Session.sol\";\n\n\ncontract Organization {\n  \n    address creator;\n    string organizationName;\n    string organizationDiscription;\n    Session session;\n    mapping (address => uint) ISsession;\n    mapping (address => uint) organizations;\n   \n   constructor(string  memory _organizationName, string memory _organizationDiscription) public{\n        organizationName = _organizationName;\n        organizationDiscription = _organizationDiscription;\n      }\n\n    //create Organization\n   function CreateOrganization(string  memory _organizationName, string memory _organizationDiscription) public returns(address) {\n         address childAddress = clone(address(this));\n         Organization child = Organization(childAddress);\n         child.setcreator(address(this));\n         organizations[ address(child)] = 7;\n         setOrganizationInfo(_organizationName,_organizationDiscription);\n         emit organizationCreated(_organizationName,_organizationDiscription,address(child),address(this));\n         return address(child);\n   }\n   function GoToOrganization(address _organization) public view   returns(bool) {\n            if (organizations[_organization] == 7) {\n               return true;\n            } else {\n               return false;\n            }\n   }\n   \n  function setOrganizationInfo(string  memory _organizationName, string memory _organizationDiscription)  public  {\n       organizationName = _organizationName;\n        organizationDiscription = _organizationDiscription;\n  }\n   function setcreator(address addr) public {\n         creator = addr;\n   }\n\n   function clone(address a) public returns(address)  {\n      address retval;\n      assembly{\n         mstore(0x0, or (0x5880730000000000000000000000000000000000000000803b80938091923cF3 ,mul(a,0x1000000000000000000)))\n         retval := create(0,0, 32)\n      }\n      return retval;\n   }\n      \n    event sessionnCreated(string name,address sessionAddress ,address creator);\n    event organizationCreated(string name,string discription,address organizationAddress,address creatorAddress); \n    modifier onlyCreator(){\n        require(msg.sender == creator);\n        _;\n    } \n    modifier onlySession(address _session){\n        require(ISsession[_session] == 7);\n        _;\n    } \n    \n     //construct Session Contract\n     function createdSession(\n      string memory _sessionName,\n      string memory _description,\n      uint _startTime,\n      uint _endTime,\n      address[] memory _lecturer,\n      address[] memory _attendes\n     ) public   returns(address) {\n        \n        session = new Session(_sessionName , _description , _startTime , _endTime, _lecturer,_attendes );\n        session = Session(address(session));\n        ISsession[address(session)] = 7;\n        emit sessionnCreated(_sessionName,address(session),creator);\n        return address(session);\n     }\n     \n     //Session Contract Methods\n     function sessionTakeFeedback(address _session,address _voter,uint8 _feedback) public onlySession(_session){\n        Session targetSession = Session(_session);\n        targetSession.take_feedback(_voter,_feedback);  \n     }\n   function sessionSeeResult(address _session) public view onlySession(_session) returns(uint8[5] memory) {\n        return   Session(address(session)).seeResult();\n   }\n}\n\n",
  "sourcePath": "/home/yehia/Documents/Projects/solidity/Think Big/Events-Feedback/feedblock/contracts/Organization.sol",
  "compiler": {
    "name": "solc",
    "version": "0.5.0+commit.1d4f565a.Emscripten.clang"
  },
  "schemaVersion": "3.0.8",
  "updatedAt": "2019-06-30T12:16:01.220Z",
  "devdoc": {
    "methods": {}
  },
  "userdoc": {
    "methods": {}
  }
}