{
  "contractName": "OrganizationCreator",
  "abi": [
    {
      "constant": false,
      "inputs": [
        {
          "name": "_organizationName",
          "type": "string"
        },
        {
          "name": "_organizationDiscription",
          "type": "string"
        }
      ],
      "name": "Create",
      "outputs": [
        {
          "name": "",
          "type": "address"
        }
      ],
      "payable": false,
      "stateMutability": "nonpayable",
      "type": "function",
      "signature": "0x38a96ba3"
    },
    {
      "constant": true,
      "inputs": [
        {
          "name": "_organizationAddress",
          "type": "address"
        }
      ],
      "name": "GoTo",
      "outputs": [
        {
          "name": "",
          "type": "bool"
        }
      ],
      "payable": false,
      "stateMutability": "view",
      "type": "function",
      "signature": "0xed4edb89"
    }
  ],
  "bytecode": "0x608060405234801561001057600080fd5b50611d73806100206000396000f3fe60806040526004361061004c576000357c0100000000000000000000000000000000000000000000000000000000900463ffffffff16806338a96ba314610051578063ed4edb89146101f0575b600080fd5b34801561005d57600080fd5b506101ae6004803603604081101561007457600080fd5b810190808035906020019064010000000081111561009157600080fd5b8201836020820111156100a357600080fd5b803590602001918460018302840111640100000000831117156100c557600080fd5b91908080601f016020809104026020016040519081016040528093929190818152602001838380828437600081840152601f19601f8201169050808301925050505050505091929192908035906020019064010000000081111561012857600080fd5b82018360208201111561013a57600080fd5b8035906020019184600183028401116401000000008311171561015c57600080fd5b91908080601f016020809104026020016040519081016040528093929190818152602001838380828437600081840152601f19601f820116905080830192505050505050509192919290505050610259565b604051808273ffffffffffffffffffffffffffffffffffffffff1673ffffffffffffffffffffffffffffffffffffffff16815260200191505060405180910390f35b3480156101fc57600080fd5b5061023f6004803603602081101561021357600080fd5b81019080803573ffffffffffffffffffffffffffffffffffffffff1690602001909291905050506103e8565b604051808215151515815260200191505060405180910390f35b60008083836102666103fb565b808060200180602001838103835285818151815260200191508051906020019080838360005b838110156102a757808201518184015260208101905061028c565b50505050905090810190601f1680156102d45780820380516001836020036101000a031916815260200191505b50838103825284818151815260200191508051906020019080838360005b8381101561030d5780820151818401526020810190506102f2565b50505050905090810190601f16801561033a5780820380516001836020036101000a031916815260200191505b50945050505050604051809103906000f08015801561035d573d6000803e3d6000fd5b50905080600260008373ffffffffffffffffffffffffffffffffffffffff1673ffffffffffffffffffffffffffffffffffffffff16815260200190815260200160002060006101000a81548173ffffffffffffffffffffffffffffffffffffffff021916908373ffffffffffffffffffffffffffffffffffffffff1602179055508091505092915050565b600080823b905060008111915050919050565b60405161193c8061040c8339019056fe60806040523480156200001157600080fd5b506040516200193c3803806200193c833981018060405260408110156200003757600080fd5b8101908080516401000000008111156200005057600080fd5b828101905060208101848111156200006757600080fd5b81518560018202830111640100000000821117156200008557600080fd5b50509291906020018051640100000000811115620000a257600080fd5b82810190506020810184811115620000b957600080fd5b8151856001820283011164010000000082111715620000d757600080fd5b50509291905050508160019080519060200190620000f792919062000119565b5080600290805190602001906200011092919062000119565b505050620001c8565b828054600181600116156101000203166002900490600052602060002090601f016020900481019282601f106200015c57805160ff19168380011785556200018d565b828001600101855582156200018d579182015b828111156200018c5782518255916020019190600101906200016f565b5b5090506200019c9190620001a0565b5090565b620001c591905b80821115620001c1576000816000905550600101620001a7565b5090565b90565b61176480620001d86000396000f3fe60806040526004361062000073576000357c0100000000000000000000000000000000000000000000000000000000900463ffffffff168063373c4d64146200007857806355d22ce1146200036357806382e899f514620003c557806387814cb51462000432578063a2d332de14620004a3575b600080fd5b3480156200008557600080fd5b5062000321600480360360c08110156200009e57600080fd5b8101908080359060200190640100000000811115620000bc57600080fd5b820183602082011115620000cf57600080fd5b80359060200191846001830284011164010000000083111715620000f257600080fd5b91908080601f016020809104026020016040519081016040528093929190818152602001838380828437600081840152601f19601f820116905080830192505050505050509192919290803590602001906401000000008111156200015657600080fd5b8201836020820111156200016957600080fd5b803590602001918460018302840111640100000000831117156200018c57600080fd5b91908080601f016020809104026020016040519081016040528093929190818152602001838380828437600081840152601f19601f8201169050808301925050505050505091929192908035906020019092919080359060200190929190803590602001906401000000008111156200020457600080fd5b8201836020820111156200021757600080fd5b803590602001918460208302840111640100000000831117156200023a57600080fd5b919080806020026020016040519081016040528093929190818152602001838360200280828437600081840152601f19601f820116905080830192505050505050509192919290803590602001906401000000008111156200029b57600080fd5b820183602082011115620002ae57600080fd5b80359060200191846020830284011164010000000083111715620002d157600080fd5b919080806020026020016040519081016040528093929190818152602001838360200280828437600081840152601f19601f8201169050808301925050505050505091929192905050506200064c565b604051808273ffffffffffffffffffffffffffffffffffffffff1673ffffffffffffffffffffffffffffffffffffffff16815260200191505060405180910390f35b3480156200037057600080fd5b50620003c3600480360360408110156200038957600080fd5b81019080803573ffffffffffffffffffffffffffffffffffffffff169060200190929190803560ff169060200190929190505050620009b8565b005b348015620003d257600080fd5b506200041860048036036020811015620003eb57600080fd5b81019080803573ffffffffffffffffffffffffffffffffffffffff16906020019092919050505062000aa1565b604051808215151515815260200191505060405180910390f35b3480156200043f57600080fd5b506200044a62000ba3565b6040518080602001828103825283818151815260200191508051906020019060200280838360005b838110156200048f57808201518184015260208101905062000472565b505050509050019250505060405180910390f35b348015620004b057600080fd5b506200060a60048036036040811015620004c957600080fd5b8101908080359060200190640100000000811115620004e757600080fd5b820183602082011115620004fa57600080fd5b803590602001918460018302840111640100000000831117156200051d57600080fd5b91908080601f016020809104026020016040519081016040528093929190818152602001838380828437600081840152601f19601f820116905080830192505050505050509192919290803590602001906401000000008111156200058157600080fd5b8201836020820111156200059457600080fd5b80359060200191846001830284011164010000000083111715620005b757600080fd5b91908080601f016020809104026020016040519081016040528093929190818152602001838380828437600081840152601f19601f82011690508083019250505050505050919291929050505062000cc5565b604051808273ffffffffffffffffffffffffffffffffffffffff1673ffffffffffffffffffffffffffffffffffffffff16815260200191505060405180910390f35b60008686868686866200065e62000e76565b808060200180602001878152602001868152602001806020018060200185810385528b818151815260200191508051906020019080838360005b83811015620006b557808201518184015260208101905062000698565b50505050905090810190601f168015620006e35780820380516001836020036101000a031916815260200191505b5085810384528a818151815260200191508051906020019080838360005b838110156200071e57808201518184015260208101905062000701565b50505050905090810190601f1680156200074c5780820380516001836020036101000a031916815260200191505b50858103835287818151815260200191508051906020019060200280838360005b838110156200078a5780820151818401526020810190506200076d565b50505050905001858103825286818151815260200191508051906020019060200280838360005b83811015620007ce578082015181840152602081019050620007b1565b505050509050019a5050505050505050505050604051809103906000f080158015620007fe573d6000803e3d6000fd5b50600360006101000a81548173ffffffffffffffffffffffffffffffffffffffff021916908373ffffffffffffffffffffffffffffffffffffffff1602179055507f6501c9546c19e0c264ea977f2f67f10185bcb77814fd738d81c7df40358af7af87600360009054906101000a900473ffffffffffffffffffffffffffffffffffffffff166000809054906101000a900473ffffffffffffffffffffffffffffffffffffffff1660405180806020018473ffffffffffffffffffffffffffffffffffffffff1673ffffffffffffffffffffffffffffffffffffffff1681526020018373ffffffffffffffffffffffffffffffffffffffff1673ffffffffffffffffffffffffffffffffffffffff168152602001828103825285818151815260200191508051906020019080838360005b838110156200094c5780820151818401526020810190506200092f565b50505050905090810190601f1680156200097a5780820380516001836020036101000a031916815260200191505b5094505050505060405180910390a1600360009054906101000a900473ffffffffffffffffffffffffffffffffffffffff1690509695505050505050565b600360009054906101000a900473ffffffffffffffffffffffffffffffffffffffff1673ffffffffffffffffffffffffffffffffffffffff166347228fe383836040518363ffffffff167c0100000000000000000000000000000000000000000000000000000000028152600401808373ffffffffffffffffffffffffffffffffffffffff1673ffffffffffffffffffffffffffffffffffffffff1681526020018260ff1660ff16815260200192505050600060405180830381600087803b15801562000a8457600080fd5b505af115801562000a99573d6000803e3d6000fd5b505050505050565b6000600460009054906101000a900473ffffffffffffffffffffffffffffffffffffffff1673ffffffffffffffffffffffffffffffffffffffff1663ed4edb89836040518263ffffffff167c0100000000000000000000000000000000000000000000000000000000028152600401808273ffffffffffffffffffffffffffffffffffffffff1673ffffffffffffffffffffffffffffffffffffffff16815260200191505060206040518083038186803b15801562000b5f57600080fd5b505afa15801562000b74573d6000803e3d6000fd5b505050506040513d602081101562000b8b57600080fd5b81019080805190602001909291905050509050919050565b6060600360009054906101000a900473ffffffffffffffffffffffffffffffffffffffff1673ffffffffffffffffffffffffffffffffffffffff1663d6d46ba86040518163ffffffff167c010000000000000000000000000000000000000000000000000000000002815260040160006040518083038186803b15801562000c2a57600080fd5b505afa15801562000c3f573d6000803e3d6000fd5b505050506040513d6000823e3d601f19601f82011682018060405250602081101562000c6a57600080fd5b81019080805164010000000081111562000c8357600080fd5b8281019050602081018481111562000c9a57600080fd5b815185602082028301116401000000008211171562000cb857600080fd5b5050929190505050905090565b6000600460009054906101000a900473ffffffffffffffffffffffffffffffffffffffff1673ffffffffffffffffffffffffffffffffffffffff166338a96ba384846040518363ffffffff167c0100000000000000000000000000000000000000000000000000000000028152600401808060200180602001838103835285818151815260200191508051906020019080838360005b8381101562000d7857808201518184015260208101905062000d5b565b50505050905090810190601f16801562000da65780820380516001836020036101000a031916815260200191505b50838103825284818151815260200191508051906020019080838360005b8381101562000de157808201518184015260208101905062000dc4565b50505050905090810190601f16801562000e0f5780820380516001836020036101000a031916815260200191505b50945050505050602060405180830381600087803b15801562000e3157600080fd5b505af115801562000e46573d6000803e3d6000fd5b505050506040513d602081101562000e5d57600080fd5b8101908080519060200190929190505050905092915050565b6040516108b18062000e888339019056fe608060405234801561001057600080fd5b506040516108b13803806108b1833981018060405260c081101561003357600080fd5b81019080805164010000000081111561004b57600080fd5b8281019050602081018481111561006157600080fd5b815185600182028301116401000000008211171561007e57600080fd5b5050929190602001805164010000000081111561009a57600080fd5b828101905060208101848111156100b057600080fd5b81518560018202830111640100000000821117156100cd57600080fd5b5050929190602001805190602001909291908051906020019092919080516401000000008111156100fd57600080fd5b8281019050602081018481111561011357600080fd5b815185602082028301116401000000008211171561013057600080fd5b5050929190602001805164010000000081111561014c57600080fd5b8281019050602081018481111561016257600080fd5b815185602082028301116401000000008211171561017f57600080fd5b505092919050505083804210151561019657600080fd5b86600190805190602001906101ac929190610345565b5085600290805190602001906101c3929190610345565b50846003819055508360048190555081600690805190602001906101e89291906103c5565b5082600590805190602001906101ff9291906103c5565b5061029e600680548060200260200160405190810160405280929190818152602001828054801561028557602002820191906000526020600020905b8160009054906101000a900473ffffffffffffffffffffffffffffffffffffffff1673ffffffffffffffffffffffffffffffffffffffff168152602001906001019080831161023b575b50505050506102aa640100000000026401000000009004565b505050505050506104b7565b60008090505b8151811015610341577fffffffffffffffffffffffffffffffffffffffffffffffffffffffffffffffff6008600084848151811015156102ec57fe5b9060200190602002015173ffffffffffffffffffffffffffffffffffffffff1673ffffffffffffffffffffffffffffffffffffffff1681526020019081526020016000208190555080806001019150506102b0565b5050565b828054600181600116156101000203166002900490600052602060002090601f016020900481019282601f1061038657805160ff19168380011785556103b4565b828001600101855582156103b4579182015b828111156103b3578251825591602001919060010190610398565b5b5090506103c1919061044f565b5090565b82805482825590600052602060002090810192821561043e579160200282015b8281111561043d5782518260006101000a81548173ffffffffffffffffffffffffffffffffffffffff021916908373ffffffffffffffffffffffffffffffffffffffff160217905550916020019190600101906103e5565b5b50905061044b9190610474565b5090565b61047191905b8082111561046d576000816000905550600101610455565b5090565b90565b6104b491905b808211156104b057600081816101000a81549073ffffffffffffffffffffffffffffffffffffffff02191690555060010161047a565b5090565b90565b6103eb806104c66000396000f3fe60806040526004361061006d576000357c0100000000000000000000000000000000000000000000000000000000900463ffffffff16806302d05d3f1461007257806347228fe3146100c9578063c8dff62514610127578063d6d46ba81461018c578063f8e157ea146101f8575b600080fd5b34801561007e57600080fd5b50610087610227565b604051808273ffffffffffffffffffffffffffffffffffffffff1673ffffffffffffffffffffffffffffffffffffffff16815260200191505060405180910390f35b3480156100d557600080fd5b50610125600480360360408110156100ec57600080fd5b81019080803573ffffffffffffffffffffffffffffffffffffffff169060200190929190803560ff16906020019092919050505061024c565b005b34801561013357600080fd5b506101766004803603602081101561014a57600080fd5b81019080803573ffffffffffffffffffffffffffffffffffffffff169060200190929190505050610325565b6040518082815260200191505060405180910390f35b34801561019857600080fd5b506101a161033d565b6040518080602001828103825283818151815260200191508051906020019060200280838360005b838110156101e45780820151818401526020810190506101c9565b505050509050019250505060405180910390f35b34801561020457600080fd5b5061020d610395565b604051808215151515815260200191505060405180910390f35b6000809054906101000a900473ffffffffffffffffffffffffffffffffffffffff1681565b610254610395565b151561025f57600080fd5b6000600860008473ffffffffffffffffffffffffffffffffffffffff1673ffffffffffffffffffffffffffffffffffffffff16815260200190815260200160002054141515156102ae57600080fd5b8060ff16600860008473ffffffffffffffffffffffffffffffffffffffff1673ffffffffffffffffffffffffffffffffffffffff1681526020019081526020016000208190555060078160ff1681548110151561030757fe5b90600052602060002001600081548092919060010191905055505050565b60086020528060005260406000206000915090505481565b6060600780548060200260200160405190810160405280929190818152602001828054801561038b57602002820191906000526020600020905b815481526020019060010190808311610377575b5050505050905090565b600060035442101580156103ab57506004544211155b80156103ba5750600454600354105b90509056fea165627a7a72305820c6233a7afec9729898220caa5766f12af1964db3bbb9c0e42e659044c2d95f610029a165627a7a72305820aa0be79b3e39daa64a67ecdb9f3976988163829873d15f623058e6a0d961d2ee0029a165627a7a723058205aee33a507dd8636e855d65a94efa81860b5d5ef61da7bf80ada60f604faf5760029",
  "source": "pragma solidity 0.5.0;\nimport  \"./Organization.sol\";\ncontract OrganizationCreator {\n      string organizationName;\n     string organizationDiscription;\n     mapping (address => Organization) organizations;\n     function Create(string memory _organizationName,string memory _organizationDiscription) public returns (address) {\n       Organization organization = new Organization(_organizationName,_organizationDiscription);\n       organizations[address(organization)] = organization;\n       return address(organization);\n      }\n     function GoTo(address _organizationAddress) view public returns (bool) {\n      uint size;\n      assembly {\n        size := extcodesize(_organizationAddress)\n        }\n        return size > 0;\n     }\n}",
  "sourcePath": "/home/yehia/Documents/Projects/solidity/Think Big/Events-Feedback/contracts/OrganizationCreator.sol",
  "compiler": {
    "name": "solc",
    "version": "0.5.0+commit.1d4f565a.Emscripten.clang"
  },
  "schemaVersion": "3.0.8",
  "updatedAt": "2019-06-23T19:54:56.446Z",
  "devdoc": {
    "methods": {}
  },
  "userdoc": {
    "methods": {}
  }
}