{
  "contractName": "Organization",
  "abi": [
    {
      "anonymous": false,
      "inputs": [
        {
          "indexed": false,
          "name": "name",
          "type": "string"
        },
        {
          "indexed": false,
          "name": "sessionAddress",
          "type": "address"
        },
        {
          "indexed": false,
          "name": "creator",
          "type": "address"
        }
      ],
      "name": "sessionnCreated",
      "type": "event",
      "signature": "0x6501c9546c19e0c264ea977f2f67f10185bcb77814fd738d81c7df40358af7af"
    },
    {
      "constant": false,
      "inputs": [
        {
          "name": "_sessionName",
          "type": "string"
        },
        {
          "name": "_description",
          "type": "string"
        },
        {
          "name": "_startTime",
          "type": "uint256"
        },
        {
          "name": "_endTime",
          "type": "uint256"
        },
        {
          "name": "_lecturer",
          "type": "address[]"
        },
        {
          "name": "_attendes",
          "type": "address[]"
        }
      ],
      "name": "createdSession",
      "outputs": [
        {
          "name": "",
          "type": "address"
        }
      ],
      "payable": false,
      "stateMutability": "nonpayable",
      "type": "function",
      "signature": "0x373c4d64"
    },
    {
      "constant": false,
      "inputs": [
        {
          "name": "_voter",
          "type": "address"
        },
        {
          "name": "_feedback",
          "type": "uint8"
        }
      ],
      "name": "sessionTakeFeedback",
      "outputs": [],
      "payable": false,
      "stateMutability": "nonpayable",
      "type": "function",
      "signature": "0x55d22ce1"
    },
    {
      "constant": true,
      "inputs": [],
      "name": "sessionSeeResult",
      "outputs": [
        {
          "name": "",
          "type": "int256[]"
        }
      ],
      "payable": false,
      "stateMutability": "view",
      "type": "function"
    }
  ],
  "bytecode": "0x608060405234801561001057600080fd5b506112b7806100206000396000f3fe6080604052600436106200005b576000357c0100000000000000000000000000000000000000000000000000000000900463ffffffff168063373c4d64146200006057806355d22ce1146200034b57806387814cb514620003ad575b600080fd5b3480156200006d57600080fd5b5062000309600480360360c08110156200008657600080fd5b8101908080359060200190640100000000811115620000a457600080fd5b820183602082011115620000b757600080fd5b80359060200191846001830284011164010000000083111715620000da57600080fd5b91908080601f016020809104026020016040519081016040528093929190818152602001838380828437600081840152601f19601f820116905080830192505050505050509192919290803590602001906401000000008111156200013e57600080fd5b8201836020820111156200015157600080fd5b803590602001918460018302840111640100000000831117156200017457600080fd5b91908080601f016020809104026020016040519081016040528093929190818152602001838380828437600081840152601f19601f820116905080830192505050505050509192919290803590602001909291908035906020019092919080359060200190640100000000811115620001ec57600080fd5b820183602082011115620001ff57600080fd5b803590602001918460208302840111640100000000831117156200022257600080fd5b919080806020026020016040519081016040528093929190818152602001838360200280828437600081840152601f19601f820116905080830192505050505050509192919290803590602001906401000000008111156200028357600080fd5b8201836020820111156200029657600080fd5b80359060200191846020830284011164010000000083111715620002b957600080fd5b919080806020026020016040519081016040528093929190818152602001838360200280828437600081840152601f19601f8201169050808301925050505050505091929192905050506200041e565b604051808273ffffffffffffffffffffffffffffffffffffffff1673ffffffffffffffffffffffffffffffffffffffff16815260200191505060405180910390f35b3480156200035857600080fd5b50620003ab600480360360408110156200037157600080fd5b81019080803573ffffffffffffffffffffffffffffffffffffffff169060200190929190803560ff1690602001909291905050506200078a565b005b348015620003ba57600080fd5b50620003c562000873565b6040518080602001828103825283818151815260200191508051906020019060200280838360005b838110156200040a578082015181840152602081019050620003ed565b505050509050019250505060405180910390f35b60008686868686866200043062000995565b808060200180602001878152602001868152602001806020018060200185810385528b818151815260200191508051906020019080838360005b83811015620004875780820151818401526020810190506200046a565b50505050905090810190601f168015620004b55780820380516001836020036101000a031916815260200191505b5085810384528a818151815260200191508051906020019080838360005b83811015620004f0578082015181840152602081019050620004d3565b50505050905090810190601f1680156200051e5780820380516001836020036101000a031916815260200191505b50858103835287818151815260200191508051906020019060200280838360005b838110156200055c5780820151818401526020810190506200053f565b50505050905001858103825286818151815260200191508051906020019060200280838360005b83811015620005a057808201518184015260208101905062000583565b505050509050019a5050505050505050505050604051809103906000f080158015620005d0573d6000803e3d6000fd5b50600160006101000a81548173ffffffffffffffffffffffffffffffffffffffff021916908373ffffffffffffffffffffffffffffffffffffffff1602179055507f6501c9546c19e0c264ea977f2f67f10185bcb77814fd738d81c7df40358af7af87600160009054906101000a900473ffffffffffffffffffffffffffffffffffffffff166000809054906101000a900473ffffffffffffffffffffffffffffffffffffffff1660405180806020018473ffffffffffffffffffffffffffffffffffffffff1673ffffffffffffffffffffffffffffffffffffffff1681526020018373ffffffffffffffffffffffffffffffffffffffff1673ffffffffffffffffffffffffffffffffffffffff168152602001828103825285818151815260200191508051906020019080838360005b838110156200071e57808201518184015260208101905062000701565b50505050905090810190601f1680156200074c5780820380516001836020036101000a031916815260200191505b5094505050505060405180910390a1600160009054906101000a900473ffffffffffffffffffffffffffffffffffffffff1690509695505050505050565b600160009054906101000a900473ffffffffffffffffffffffffffffffffffffffff1673ffffffffffffffffffffffffffffffffffffffff166347228fe383836040518363ffffffff167c0100000000000000000000000000000000000000000000000000000000028152600401808373ffffffffffffffffffffffffffffffffffffffff1673ffffffffffffffffffffffffffffffffffffffff1681526020018260ff1660ff16815260200192505050600060405180830381600087803b1580156200085657600080fd5b505af11580156200086b573d6000803e3d6000fd5b505050505050565b6060600160009054906101000a900473ffffffffffffffffffffffffffffffffffffffff1673ffffffffffffffffffffffffffffffffffffffff1663d6d46ba86040518163ffffffff167c010000000000000000000000000000000000000000000000000000000002815260040160006040518083038186803b158015620008fa57600080fd5b505afa1580156200090f573d6000803e3d6000fd5b505050506040513d6000823e3d601f19601f8201168201806040525060208110156200093a57600080fd5b8101908080516401000000008111156200095357600080fd5b828101905060208101848111156200096a57600080fd5b81518560208202830111640100000000821117156200098857600080fd5b5050929190505050905090565b6040516108e580620009a78339019056fe608060405234801561001057600080fd5b506040516108e53803806108e5833981018060405260c081101561003357600080fd5b81019080805164010000000081111561004b57600080fd5b8281019050602081018481111561006157600080fd5b815185600182028301116401000000008211171561007e57600080fd5b5050929190602001805164010000000081111561009a57600080fd5b828101905060208101848111156100b057600080fd5b81518560018202830111640100000000821117156100cd57600080fd5b5050929190602001805190602001909291908051906020019092919080516401000000008111156100fd57600080fd5b8281019050602081018481111561011357600080fd5b815185602082028301116401000000008211171561013057600080fd5b5050929190602001805164010000000081111561014c57600080fd5b8281019050602081018481111561016257600080fd5b815185602082028301116401000000008211171561017f57600080fd5b505092919050505083804210151561019657600080fd5b86600190805190602001906101ac929190610345565b5085600290805190602001906101c3929190610345565b50846003819055508360048190555081600690805190602001906101e89291906103c5565b5082600590805190602001906101ff9291906103c5565b5061029e600680548060200260200160405190810160405280929190818152602001828054801561028557602002820191906000526020600020905b8160009054906101000a900473ffffffffffffffffffffffffffffffffffffffff1673ffffffffffffffffffffffffffffffffffffffff168152602001906001019080831161023b575b50505050506102aa640100000000026401000000009004565b505050505050506104b7565b60008090505b8151811015610341577fffffffffffffffffffffffffffffffffffffffffffffffffffffffffffffffff6008600084848151811015156102ec57fe5b9060200190602002015173ffffffffffffffffffffffffffffffffffffffff1673ffffffffffffffffffffffffffffffffffffffff1681526020019081526020016000208190555080806001019150506102b0565b5050565b828054600181600116156101000203166002900490600052602060002090601f016020900481019282601f1061038657805160ff19168380011785556103b4565b828001600101855582156103b4579182015b828111156103b3578251825591602001919060010190610398565b5b5090506103c1919061044f565b5090565b82805482825590600052602060002090810192821561043e579160200282015b8281111561043d5782518260006101000a81548173ffffffffffffffffffffffffffffffffffffffff021916908373ffffffffffffffffffffffffffffffffffffffff160217905550916020019190600101906103e5565b5b50905061044b9190610474565b5090565b61047191905b8082111561046d576000816000905550600101610455565b5090565b90565b6104b491905b808211156104b057600081816101000a81549073ffffffffffffffffffffffffffffffffffffffff02191690555060010161047a565b5090565b90565b61041f806104c66000396000f3fe608060405260043610610078576000357c0100000000000000000000000000000000000000000000000000000000900463ffffffff16806302d05d3f1461007d57806347228fe3146100d4578063c8dff62514610132578063d6d46ba814610197578063f8a8fd6d14610203578063f8e157ea14610232575b600080fd5b34801561008957600080fd5b50610092610261565b604051808273ffffffffffffffffffffffffffffffffffffffff1673ffffffffffffffffffffffffffffffffffffffff16815260200191505060405180910390f35b3480156100e057600080fd5b50610130600480360360408110156100f757600080fd5b81019080803573ffffffffffffffffffffffffffffffffffffffff169060200190929190803560ff169060200190929190505050610286565b005b34801561013e57600080fd5b506101816004803603602081101561015557600080fd5b81019080803573ffffffffffffffffffffffffffffffffffffffff16906020019092919050505061035f565b6040518082815260200191505060405180910390f35b3480156101a357600080fd5b506101ac610377565b6040518080602001828103825283818151815260200191508051906020019060200280838360005b838110156101ef5780820151818401526020810190506101d4565b505050509050019250505060405180910390f35b34801561020f57600080fd5b506102186103cf565b604051808215151515815260200191505060405180910390f35b34801561023e57600080fd5b506102476103d8565b604051808215151515815260200191505060405180910390f35b6000809054906101000a900473ffffffffffffffffffffffffffffffffffffffff1681565b61028e6103d8565b151561029957600080fd5b6000600860008473ffffffffffffffffffffffffffffffffffffffff1673ffffffffffffffffffffffffffffffffffffffff16815260200190815260200160002054141515156102e857600080fd5b8060ff16600860008473ffffffffffffffffffffffffffffffffffffffff1673ffffffffffffffffffffffffffffffffffffffff1681526020019081526020016000208190555060078160ff1681548110151561034157fe5b90600052602060002001600081548092919060010191905055505050565b60086020528060005260406000206000915090505481565b606060078054806020026020016040519081016040528092919081815260200182805480156103c557602002820191906000526020600020905b8154815260200190600101908083116103b1575b5050505050905090565b60006001905090565b600060035442101580156103ee57506004544211155b90509056fea165627a7a72305820eb558433600f76038bf4e4c832886699e1a089c314481cdb53058e230e03fc1e0029a165627a7a7230582077cef520c3b024bc68bf9ad7f3b27d81104c409fead0925d504540b25089371a0029",
  "source": "// Session.deployed().then(function(instance){ return instance.take_feedback('0x0fce0e522a2a18ee1e0fbf913e12483aec3f8404',8);});\npragma solidity 0.5.0;\nimport \"./Session.sol\";\ncontract Organization {\n\n     address creator;\n     Session session;\n     event sessionnCreated(string name,address sessionAddress ,address creator);\n     \n       modifier onlyCreator(){\n        require(msg.sender == creator);\n        _;\n    } \n     \n     //construct Session Contract\n     function createdSession(\n      string memory _sessionName,\n      string memory _description,\n      uint _startTime,\n      uint _endTime,\n      address[] memory _lecturer,\n      address[] memory _attendes\n     ) public   returns(address) {\n        \n        session = new Session(_sessionName , _description , _startTime , _endTime, _lecturer,_attendes );\n        emit sessionnCreated(_sessionName,address(session),creator);\n        return address(session);\n     }\n     \n     //Session Contract Methods\n     function sessionTakeFeedback(address _voter,uint8 _feedback) public{\n       session.take_feedback(_voter,_feedback);\n     \n     }\n   function sessionSeeResult() public view returns(int[] memory) {\n        return  session.seeResult();\n   }\n}\n\n",
  "sourcePath": "/home/yehia/Documents/Projects/solidity/Think Big/Events-Feedback/contracts/Organization.sol",
  "compiler": {
    "name": "solc",
    "version": "0.5.0+commit.1d4f565a.Emscripten.clang"
  },
  "schemaVersion": "3.0.8",
  "updatedAt": "2019-06-23T12:58:31.844Z",
  "devdoc": {
    "methods": {}
  },
  "userdoc": {
    "methods": {}
  }
}