{
  "contractName": "Organization",
  "abi": [
    {
      "inputs": [
        {
          "name": "_organizationName",
          "type": "string"
        },
        {
          "name": "_organizationDiscription",
          "type": "string"
        }
      ],
      "payable": false,
      "stateMutability": "nonpayable",
      "type": "constructor",
      "signature": "constructor"
    },
    {
      "anonymous": false,
      "inputs": [
        {
          "indexed": false,
          "name": "name",
          "type": "string"
        },
        {
          "indexed": false,
          "name": "sessionAddress",
          "type": "address"
        },
        {
          "indexed": false,
          "name": "creator",
          "type": "address"
        }
      ],
      "name": "sessionnCreated",
      "type": "event",
      "signature": "0x6501c9546c19e0c264ea977f2f67f10185bcb77814fd738d81c7df40358af7af"
    },
    {
      "constant": false,
      "inputs": [
        {
          "name": "_sessionName",
          "type": "string"
        },
        {
          "name": "_description",
          "type": "string"
        },
        {
          "name": "_startTime",
          "type": "uint256"
        },
        {
          "name": "_endTime",
          "type": "uint256"
        },
        {
          "name": "_lecturer",
          "type": "address[]"
        },
        {
          "name": "_attendes",
          "type": "address[]"
        },
        {
          "name": "_organizationAddress",
          "type": "address"
        }
      ],
      "name": "createSession",
      "outputs": [
        {
          "name": "",
          "type": "address"
        }
      ],
      "payable": false,
      "stateMutability": "nonpayable",
      "type": "function",
      "signature": "0x5c6a1287"
    }
  ],
  "bytecode": "0x608060405234801561001057600080fd5b50604051610fe9380380610fe98339810180604052604081101561003357600080fd5b81019080805164010000000081111561004b57600080fd5b8201602081018481111561005e57600080fd5b815164010000000081118282018710171561007857600080fd5b5050929190602001805164010000000081111561009457600080fd5b820160208101848111156100a757600080fd5b81516401000000008111828201871017156100c157600080fd5b505084519093506100db9250600191506020850190610109565b5080516100ef906002906020840190610109565b505060008054600160a060020a03191633179055506101a4565b828054600181600116156101000203166002900490600052602060002090601f016020900481019282601f1061014a57805160ff1916838001178555610177565b82800160010185558215610177579182015b8281111561017757825182559160200191906001019061015c565b50610183929150610187565b5090565b6101a191905b80821115610183576000815560010161018d565b90565b610e36806101b36000396000f3fe6080604052600436106100405763ffffffff7c01000000000000000000000000000000000000000000000000000000006000350416635c6a12878114610045575b600080fd5b34801561005157600080fd5b506102ab600480360360e081101561006857600080fd5b81019060208101813564010000000081111561008357600080fd5b82018360208201111561009557600080fd5b803590602001918460018302840111640100000000831117156100b757600080fd5b91908080601f016020809104026020016040519081016040528093929190818152602001838380828437600092019190915250929594936020810193503591505064010000000081111561010a57600080fd5b82018360208201111561011c57600080fd5b8035906020019184600183028401116401000000008311171561013e57600080fd5b91908080601f016020809104026020016040519081016040528093929190818152602001838380828437600092019190915250929584359560208601359591945092506060810191506040013564010000000081111561019d57600080fd5b8201836020820111156101af57600080fd5b803590602001918460208302840111640100000000831117156101d157600080fd5b919080806020026020016040519081016040528093929190818152602001838360200280828437600092019190915250929594936020810193503591505064010000000081111561022157600080fd5b82018360208201111561023357600080fd5b8035906020019184602083028401116401000000008311171561025557600080fd5b9190808060200260200160405190810160405280939291908181526020018383602002808284376000920191909152509295505050903573ffffffffffffffffffffffffffffffffffffffff1691506102d49050565b6040805173ffffffffffffffffffffffffffffffffffffffff9092168252519081900360200190f35b6000805473ffffffffffffffffffffffffffffffffffffffff1633146102f957600080fd5b60008888888888888861030a610601565b80806020018060200188815260200187815260200180602001806020018673ffffffffffffffffffffffffffffffffffffffff1673ffffffffffffffffffffffffffffffffffffffff16815260200185810385528c818151815260200191508051906020019080838360005b8381101561038e578181015183820152602001610376565b50505050905090810190601f1680156103bb5780820380516001836020036101000a031916815260200191505b5085810384528b5181528b516020918201918d019080838360005b838110156103ee5781810151838201526020016103d6565b50505050905090810190601f16801561041b5780820380516001836020036101000a031916815260200191505b508581038352885181528851602091820191808b01910280838360005b83811015610450578181015183820152602001610438565b50505050905001858103825287818151815260200191508051906020019060200280838360005b8381101561048f578181015183820152602001610477565b505050509050019b505050505050505050505050604051809103906000f0801580156104bf573d6000803e3d6000fd5b5073ffffffffffffffffffffffffffffffffffffffff8082166000818152600360209081526040808320805460ff1916600190811790915560048054918201815584527f8a35acfbc15ff81a39ae7d344fd709f28e8600b4aa8c65c6b64bfe7fe36bd19b01805473ffffffffffffffffffffffffffffffffffffffff191685179055825481518084019590955290941693830184905260608084528e51908401528d519495507f6501c9546c19e0c264ea977f2f67f10185bcb77814fd738d81c7df40358af7af948e9487949093909283926080840192918801918190849084905b838110156105b95781810151838201526020016105a1565b50505050905090810190601f1680156105e65780820380516001836020036101000a031916815260200191505b5094505050505060405180910390a198975050505050505050565b6040516107f9806106128339019056fe608060405234801561001057600080fd5b506040516107f93803806107f9833981018060405260e081101561003357600080fd5b81019080805164010000000081111561004b57600080fd5b8201602081018481111561005e57600080fd5b815164010000000081118282018710171561007857600080fd5b5050929190602001805164010000000081111561009457600080fd5b820160208101848111156100a757600080fd5b81516401000000008111828201871017156100c157600080fd5b505060208201516040830151606090930180519295919491926401000000008111156100ec57600080fd5b820160208101848111156100ff57600080fd5b815185602082028301116401000000008211171561011c57600080fd5b5050929190602001805164010000000081111561013857600080fd5b8201602081018481111561014b57600080fd5b815185602082028301116401000000008211171561016857600080fd5b505060209091015190925090508442811161018257600080fd5b87516101959060019060208b01906102d6565b5086516101a99060029060208a01906102d6565b506003869055600485905582516101c7906006906020860190610354565b5083516101db906005906020870190610354565b5060008054600160a060020a031916600160a060020a0384161790556006805460408051602080840282018101909252828152610268939092909183018282801561024f57602002820191906000526020600020905b8154600160a060020a03168152600190910190602001808311610231575b5050505050610275640100000000026401000000009004565b50505050505050506103f6565b60005b81518110156102d257600660086000848481518110151561029557fe5b602090810291909101810151600160a060020a03168252810191909152604001600020805460ff191660ff92909216919091179055600101610278565b5050565b828054600181600116156101000203166002900490600052602060002090601f016020900481019282601f1061031757805160ff1916838001178555610344565b82800160010185558215610344579182015b82811115610344578251825591602001919060010190610329565b506103509291506103b5565b5090565b8280548282559060005260206000209081019282156103a9579160200282015b828111156103a95782518254600160a060020a031916600160a060020a03909116178255602090920191600190910190610374565b506103509291506103d2565b6103cf91905b8082111561035057600081556001016103bb565b90565b6103cf91905b80821115610350578054600160a060020a03191681556001016103d8565b6103f4806104056000396000f3fe60806040526004361061006c5763ffffffff7c010000000000000000000000000000000000000000000000000000000060003504166302d05d3f811461007157806347228fe3146100a2578063c8dff625146100e0578063d6d46ba814610129578063f8e157ea14610176575b600080fd5b34801561007d57600080fd5b5061008661019f565b60408051600160a060020a039092168252519081900360200190f35b3480156100ae57600080fd5b506100de600480360360408110156100c557600080fd5b508035600160a060020a0316906020013560ff166101ae565b005b3480156100ec57600080fd5b506101136004803603602081101561010357600080fd5b5035600160a060020a0316610312565b6040805160ff9092168252519081900360200190f35b34801561013557600080fd5b5061013e610327565b604051808260a080838360005b8381101561016357818101518382015260200161014b565b5050505090500191505060405180910390f35b34801561018257600080fd5b5061018b61037f565b604080519115158252519081900360200190f35b600054600160a060020a031681565b600160a060020a038216600090815260086020526040902054829060ff1615156101d757600080fd5b600160a060020a03831660009081526008602052604090205460ff1660061461028d57600160a060020a03831660009081526008602052604090205460019060079060ff166005811061022657fe5b602080820490920154600160a060020a0387166000908152600890935260409092205460ff601f9092166101000a90920481169290920391600791166005811061026c57fe5b602091828204019190066101000a81548160ff021916908360ff1602179055505b600160a060020a0383166000908152600860205260409020805460ff191660ff8416908117909155600790600581106102c257fe5b602091828204019190069054906101000a900460ff1660010160078360ff166005811015156102ed57fe5b602091828204019190066101000a81548160ff021916908360ff160217905550505050565b60086020526000908152604090205460ff1681565b61032f6103a9565b6040805160a081019182905290600790600590826000855b825461010083900a900460ff168152602060019283018181049485019490930390920291018084116103475790505050505050905090565b6000600354421015801561039557506004544211155b80156103a45750600454600354105b905090565b60a060405190810160405280600590602082028038833950919291505056fea165627a7a723058201883637c7885a958800c22b2e5c0f32d50022c5fade53dd95183ea4a632756190029a165627a7a72305820f96580bb95afd17964012657db69668033054672f0407e37d6cb60bf8d70456a0029",
  "source": "// Session.deployed().then(function(instance){ return instance.take_feedback('0x0fce0e522a2a18ee1e0fbf913e12483aec3f8404',8);});\npragma solidity 0.5.0;\nimport \"./Session.sol\";\n\n\ncontract Organization {\n  \n    address creator;\n    string organizationName;\n    string organizationDiscription;\n    mapping (address => bool) ISsession;\n    Session[] sessions;\n   \n   \n   constructor(string  memory _organizationName, string memory _organizationDiscription) public{\n        organizationName = _organizationName;\n        organizationDiscription = _organizationDiscription;\n        creator =  msg.sender;\n   }    \n    event sessionnCreated(string name,address sessionAddress ,address creator);\n    modifier onlyCreator(){\n        require(msg.sender == creator);\n        _;\n    } \n  \n    \n     //construct Session Contract\n     function createSession(\n      string memory _sessionName,\n      string memory _description,\n      uint _startTime,\n      uint _endTime,\n      address[] memory _lecturer,\n      address[] memory _attendes,\n      address _organizationAddress\n     ) public  onlyCreator returns(address) {\n        \n         Session session = new Session(_sessionName , _description , _startTime , _endTime, _lecturer,_attendes,_organizationAddress );\n        ISsession[address(session)] = true;\n        sessions.push(session);\n        emit sessionnCreated(_sessionName,address(session),creator);\n        return address(session);\n     }\n     \n  \n}\n\n",
  "sourcePath": "/home/yehia/Documents/Projects/solidity/Feedblock/contracts/Organization.sol",
  "compiler": {
    "name": "solc",
    "version": "0.5.0+commit.1d4f565a.Emscripten.clang"
  },
  "schemaVersion": "3.0.8",
  "updatedAt": "2019-07-02T17:24:27.445Z",
  "devdoc": {
    "methods": {}
  },
  "userdoc": {
    "methods": {}
  }
}