{
  "contractName": "Organization",
  "abi": [
    {
      "inputs": [
        {
          "name": "_organizationName",
          "type": "string"
        },
        {
          "name": "_organizationDiscription",
          "type": "string"
        }
      ],
      "payable": false,
      "stateMutability": "nonpayable",
      "type": "constructor"
    },
    {
      "anonymous": false,
      "inputs": [
        {
          "indexed": false,
          "name": "name",
          "type": "string"
        },
        {
          "indexed": false,
          "name": "sessionAddress",
          "type": "address"
        },
        {
          "indexed": false,
          "name": "creator",
          "type": "address"
        }
      ],
      "name": "sessionnCreated",
      "type": "event"
    },
    {
      "constant": true,
      "inputs": [
        {
          "name": "_address",
          "type": "address"
        }
      ],
      "name": "checkForSession",
      "outputs": [
        {
          "name": "",
          "type": "bool"
        }
      ],
      "payable": false,
      "stateMutability": "view",
      "type": "function"
    },
    {
      "constant": false,
      "inputs": [
        {
          "name": "_sessionName",
          "type": "string"
        },
        {
          "name": "_description",
          "type": "string"
        },
        {
          "name": "_startTime",
          "type": "uint256"
        },
        {
          "name": "_endTime",
          "type": "uint256"
        },
        {
          "name": "_lecturer",
          "type": "address[]"
        },
        {
          "name": "_attendes",
          "type": "address[]"
        },
        {
          "name": "_organizationAddress",
          "type": "address"
        }
      ],
      "name": "createSession",
      "outputs": [
        {
          "name": "",
          "type": "address"
        }
      ],
      "payable": false,
      "stateMutability": "nonpayable",
      "type": "function"
    }
  ],
  "bytecode": "0x608060405234801561001057600080fd5b5060405161123b38038061123b8339810180604052604081101561003357600080fd5b81019080805164010000000081111561004b57600080fd5b8201602081018481111561005e57600080fd5b815164010000000081118282018710171561007857600080fd5b5050929190602001805164010000000081111561009457600080fd5b820160208101848111156100a757600080fd5b81516401000000008111828201871017156100c157600080fd5b505084519093506100db9250600191506020850190610109565b5080516100ef906002906020840190610109565b505060008054600160a060020a03191633179055506101a4565b828054600181600116156101000203166002900490600052602060002090601f016020900481019282601f1061014a57805160ff1916838001178555610177565b82800160010185558215610177579182015b8281111561017757825182559160200191906001019061015c565b50610183929150610187565b5090565b6101a191905b80821115610183576000815560010161018d565b90565b611088806101b36000396000f3fe60806040526004361061004b5763ffffffff7c01000000000000000000000000000000000000000000000000000000006000350416635c6a12878114610050578063d82d3a6f146102c5575b600080fd5b34801561005c57600080fd5b506102a9600480360360e081101561007357600080fd5b81019060208101813564010000000081111561008e57600080fd5b8201836020820111156100a057600080fd5b803590602001918460018302840111640100000000831117156100c257600080fd5b91908080601f016020809104026020016040519081016040528093929190818152602001838380828437600092019190915250929594936020810193503591505064010000000081111561011557600080fd5b82018360208201111561012757600080fd5b8035906020019184600183028401116401000000008311171561014957600080fd5b91908080601f01602080910402602001604051908101604052809392919081815260200183838082843760009201919091525092958435956020860135959194509250606081019150604001356401000000008111156101a857600080fd5b8201836020820111156101ba57600080fd5b803590602001918460208302840111640100000000831117156101dc57600080fd5b919080806020026020016040519081016040528093929190818152602001838360200280828437600092019190915250929594936020810193503591505064010000000081111561022c57600080fd5b82018360208201111561023e57600080fd5b8035906020019184602083028401116401000000008311171561026057600080fd5b91908080602002602001604051908101604052809392919081815260200183836020028082843760009201919091525092955050509035600160a060020a0316915061030c9050565b60408051600160a060020a039092168252519081900360200190f35b3480156102d157600080fd5b506102f8600480360360208110156102e857600080fd5b5035600160a060020a0316610605565b604080519115158252519081900360200190f35b60008054600160a060020a0316331461032457600080fd5b600088888888888888610335610623565b808060200180602001888152602001878152602001806020018060200186600160a060020a0316600160a060020a0316815260200185810385528c818151815260200191508051906020019080838360005b8381101561039f578181015183820152602001610387565b50505050905090810190601f1680156103cc5780820380516001836020036101000a031916815260200191505b5085810384528b5181528b516020918201918d019080838360005b838110156103ff5781810151838201526020016103e7565b50505050905090810190601f16801561042c5780820380516001836020036101000a031916815260200191505b508581038352885181528851602091820191808b01910280838360005b83811015610461578181015183820152602001610449565b50505050905001858103825287818151815260200191508051906020019060200280838360005b838110156104a0578181015183820152602001610488565b505050509050019b505050505050505050505050604051809103906000f0801580156104d0573d6000803e3d6000fd5b50600160a060020a038082166000818152600460209081526040808320805460ff1916600190811790915560038054918201815584527fc2575a0e9e593c00f959f8c92f12db2869c3395a3b0502d05e2516446f71f85b01805473ffffffffffffffffffffffffffffffffffffffff191685179055825481518084019590955290941693830184905260608084528e51908401528d519495507f6501c9546c19e0c264ea977f2f67f10185bcb77814fd738d81c7df40358af7af948e9487949093909283926080840192918801918190849084905b838110156105bd5781810151838201526020016105a5565b50505050905090810190601f1680156105ea5780820380516001836020036101000a031916815260200191505b5094505050505060405180910390a198975050505050505050565b600160a060020a031660009081526004602052604090205460ff1690565b604051610a29806106348339019056fe60806040523480156200001157600080fd5b5060405162000a2938038062000a29833981018060405260e08110156200003757600080fd5b8101908080516401000000008111156200005057600080fd5b820160208101848111156200006457600080fd5b81516401000000008111828201871017156200007f57600080fd5b505092919060200180516401000000008111156200009c57600080fd5b82016020810184811115620000b057600080fd5b8151640100000000811182820187101715620000cb57600080fd5b50506020820151604083015160609093018051929591949192640100000000811115620000f757600080fd5b820160208101848111156200010b57600080fd5b81518560208202830111640100000000821117156200012957600080fd5b505092919060200180516401000000008111156200014657600080fd5b820160208101848111156200015a57600080fd5b81518560208202830111640100000000821117156200017857600080fd5b5050602091820151895191945092506200019991600191908a019062000347565b508551620001af90600290602089019062000347565b50600385905560048490558151620001cf906006906020850190620003cc565b508251620001e5906005906020860190620003cc565b5060008054600160a060020a031916600160a060020a03831617905560058054604080516020808402820181019092528281526200027993869391929091908301828280156200025f57602002820191906000526020600020905b8154600160a060020a0316815260019091019060200180831162000240575b505050505062000286640100000000026401000000009004565b5050505050505062000479565b60005b8251811015620002e3576001600960008584815181101515620002a857fe5b602090810291909101810151600160a060020a03168252810191909152604001600020805460ff191691151591909117905560010162000289565b5060005b60055481101562000342576001600a600084848151811015156200030757fe5b602090810291909101810151600160a060020a03168252810191909152604001600020805460ff1916911515919091179055600101620002e7565b505050565b828054600181600116156101000203166002900490600052602060002090601f016020900481019282601f106200038a57805160ff1916838001178555620003ba565b82800160010185558215620003ba579182015b82811115620003ba5782518255916020019190600101906200039d565b50620003c892915062000432565b5090565b82805482825590600052602060002090810192821562000424579160200282015b82811115620004245782518254600160a060020a031916600160a060020a03909116178255602090920191600190910190620003ed565b50620003c892915062000452565b6200044f91905b80821115620003c8576000815560010162000439565b90565b6200044f91905b80821115620003c8578054600160a060020a031916815560010162000459565b6105a080620004896000396000f3fe60806040526004361061008d5763ffffffff7c010000000000000000000000000000000000000000000000000000000060003504166302d05d3f811461009257806341394a9d146100c357806347228fe3146101285780635a6f65f314610166578063c8dff625146101ad578063d6d46ba8146101f6578063d6f6e0c514610243578063e52f26df14610258575b600080fd5b34801561009e57600080fd5b506100a761028b565b60408051600160a060020a039092168252519081900360200190f35b3480156100cf57600080fd5b506100d861029a565b60408051602080825283518183015283519192839290830191858101910280838360005b838110156101145781810151838201526020016100fc565b505050509050019250505060405180910390f35b34801561013457600080fd5b506101646004803603604081101561014b57600080fd5b508035600160a060020a0316906020013560ff166102fc565b005b34801561017257600080fd5b506101996004803603602081101561018957600080fd5b5035600160a060020a031661045e565b604080519115158252519081900360200190f35b3480156101b957600080fd5b506101e0600480360360208110156101d057600080fd5b5035600160a060020a0316610473565b6040805160ff9092168252519081900360200190f35b34801561020257600080fd5b5061020b610488565b604051808260a080838360005b83811015610230578181015183820152602001610218565b5050505090500191505060405180910390f35b34801561024f57600080fd5b506100d86104e0565b34801561026457600080fd5b506101996004803603602081101561027b57600080fd5b5035600160a060020a0316610540565b600054600160a060020a031681565b606060068054806020026020016040519081016040528092919081815260200182805480156102f257602002820191906000526020600020905b8154600160a060020a031681526001909101906020018083116102d4575b5050505050905090565b600160a060020a038216600090815260096020526040902054829060ff16151561032557600080fd5b600160a060020a03831660009081526008602052604090205460ff16156103d957600160a060020a03831660009081526008602052604090205460019060079060ff166005811061037257fe5b602080820490920154600160a060020a0387166000908152600890935260409092205460ff601f9092166101000a9092048116929092039160079116600581106103b857fe5b602091828204019190066101000a81548160ff021916908360ff1602179055505b600160a060020a0383166000908152600860205260409020805460ff191660ff84169081179091556007906005811061040e57fe5b602091828204019190069054906101000a900460ff1660010160078360ff1660058110151561043957fe5b602091828204019190066101000a81548160ff021916908360ff160217905550505050565b600a6020526000908152604090205460ff1681565b60086020526000908152604090205460ff1681565b610490610555565b6040805160a081019182905290600790600590826000855b825461010083900a900460ff168152602060019283018181049485019490930390920291018084116104a85790505050505050905090565b606060058054806020026020016040519081016040528092919081815260200182805480156102f257602002820191906000526020600020908154600160a060020a031681526001909101906020018083116102d4575050505050905090565b60096020526000908152604090205460ff1681565b60a060405190810160405280600590602082028038833950919291505056fea165627a7a72305820dac227ef1b960d7f99bb897c8b9332155aaebabaa82323db8ef10174364969120029a165627a7a723058203f77661ea2876ec0c6fe82955bfa1c9774fc64ab690f2816115388cb24c22abf0029",
  "source": "// Session.deployed().then(function(instance){ return instance.take_feedback('0x0fce0e522a2a18ee1e0fbf913e12483aec3f8404',8);});\npragma solidity 0.5.0;\nimport \"./Session.sol\";\n\n\ncontract Organization {\n  \n    address creator;\n    string organizationName;\n    string organizationDiscription;\n    Session[] sessions;\n    mapping (address => bool) ISsession;\n\n   constructor(string  memory _organizationName, string memory _organizationDiscription) public{\n        organizationName = _organizationName;\n        organizationDiscription = _organizationDiscription;\n        creator =  msg.sender;\n   }    \n    event sessionnCreated(string name,address sessionAddress ,address creator);\n    modifier onlyCreator(){\n        require(msg.sender == creator);\n        _;\n    } \n     function checkForSession(address _address) view public returns (bool) {\n        return ISsession[_address];\n     }\n    \n     //construct Session Contract\n     function createSession(\n      string memory _sessionName,\n      string memory _description,\n      uint _startTime,\n      uint _endTime,\n      address[] memory _lecturer,\n      address[] memory _attendes,\n      address _organizationAddress\n     ) public  onlyCreator returns(address) {\n        \n         Session session = new Session(_sessionName , _description , _startTime , _endTime, _lecturer,_attendes,_organizationAddress );\n        ISsession[address(session)] = true;\n        sessions.push(session);\n        emit sessionnCreated(_sessionName,address(session),creator);\n        return address(session);\n     }\n     \n  \n}\n\n",
  "sourcePath": "/home/yehia/Documents/Projects/solidity/Feedblock/contracts/Organization.sol",
  "compiler": {
    "name": "solc",
    "version": "0.5.0+commit.1d4f565a.Emscripten.clang"
  },
  "schemaVersion": "3.0.8",
  "updatedAt": "2019-07-03T08:09:45.579Z",
  "devdoc": {
    "methods": {}
  },
  "userdoc": {
    "methods": {}
  }
}