{
  "contractName": "Organization",
  "abi": [
    {
      "inputs": [
        {
          "name": "_organizationName",
          "type": "string"
        },
        {
          "name": "_organizationDiscription",
          "type": "string"
        },
        {
          "name": "_creator",
          "type": "address"
        }
      ],
      "payable": false,
      "stateMutability": "nonpayable",
      "type": "constructor"
    },
    {
      "anonymous": false,
      "inputs": [
        {
          "indexed": false,
          "name": "name",
          "type": "string"
        },
        {
          "indexed": false,
          "name": "sessionAddress",
          "type": "address"
        },
        {
          "indexed": false,
          "name": "creator",
          "type": "address"
        }
      ],
      "name": "sessionnCreated",
      "type": "event"
    },
    {
      "constant": true,
      "inputs": [
        {
          "name": "_address",
          "type": "address"
        }
      ],
      "name": "checkForSession",
      "outputs": [
        {
          "name": "",
          "type": "bool"
        }
      ],
      "payable": false,
      "stateMutability": "view",
      "type": "function"
    },
    {
      "constant": false,
      "inputs": [
        {
          "name": "_sessionName",
          "type": "string"
        },
        {
          "name": "_description",
          "type": "string"
        },
        {
          "name": "_startTime",
          "type": "uint256"
        },
        {
          "name": "_endTime",
          "type": "uint256"
        },
        {
          "name": "_lecturer",
          "type": "address[]"
        },
        {
          "name": "_attendes",
          "type": "address[]"
        },
        {
          "name": "_organizationAddress",
          "type": "address"
        }
      ],
      "name": "createSession",
      "outputs": [
        {
          "name": "",
          "type": "address"
        }
      ],
      "payable": false,
      "stateMutability": "nonpayable",
      "type": "function"
    }
  ],
  "bytecode": "0x608060405234801561001057600080fd5b506040516111213803806111218339810180604052606081101561003357600080fd5b81019080805164010000000081111561004b57600080fd5b8201602081018481111561005e57600080fd5b815164010000000081118282018710171561007857600080fd5b5050929190602001805164010000000081111561009457600080fd5b820160208101848111156100a757600080fd5b81516401000000008111828201871017156100c157600080fd5b5050602091820151855191945092506100e0916001919086019061011d565b5081516100f490600290602085019061011d565b5060008054600160a060020a031916600160a060020a0392909216919091179055506101b89050565b828054600181600116156101000203166002900490600052602060002090601f016020900481019282601f1061015e57805160ff191683800117855561018b565b8280016001018555821561018b579182015b8281111561018b578251825591602001919060010190610170565b5061019792915061019b565b5090565b6101b591905b8082111561019757600081556001016101a1565b90565b610f5a806101c76000396000f3fe60806040526004361061004b5763ffffffff7c01000000000000000000000000000000000000000000000000000000006000350416635c6a12878114610050578063d82d3a6f146102c5575b600080fd5b34801561005c57600080fd5b506102a9600480360360e081101561007357600080fd5b81019060208101813564010000000081111561008e57600080fd5b8201836020820111156100a057600080fd5b803590602001918460018302840111640100000000831117156100c257600080fd5b91908080601f016020809104026020016040519081016040528093929190818152602001838380828437600092019190915250929594936020810193503591505064010000000081111561011557600080fd5b82018360208201111561012757600080fd5b8035906020019184600183028401116401000000008311171561014957600080fd5b91908080601f01602080910402602001604051908101604052809392919081815260200183838082843760009201919091525092958435956020860135959194509250606081019150604001356401000000008111156101a857600080fd5b8201836020820111156101ba57600080fd5b803590602001918460208302840111640100000000831117156101dc57600080fd5b919080806020026020016040519081016040528093929190818152602001838360200280828437600092019190915250929594936020810193503591505064010000000081111561022c57600080fd5b82018360208201111561023e57600080fd5b8035906020019184602083028401116401000000008311171561026057600080fd5b91908080602002602001604051908101604052809392919081815260200183836020028082843760009201919091525092955050509035600160a060020a0316915061030c9050565b60408051600160a060020a039092168252519081900360200190f35b3480156102d157600080fd5b506102f8600480360360208110156102e857600080fd5b5035600160a060020a0316610605565b604080519115158252519081900360200190f35b60008054600160a060020a0316331461032457600080fd5b600088888888888888610335610623565b808060200180602001888152602001878152602001806020018060200186600160a060020a0316600160a060020a0316815260200185810385528c818151815260200191508051906020019080838360005b8381101561039f578181015183820152602001610387565b50505050905090810190601f1680156103cc5780820380516001836020036101000a031916815260200191505b5085810384528b5181528b516020918201918d019080838360005b838110156103ff5781810151838201526020016103e7565b50505050905090810190601f16801561042c5780820380516001836020036101000a031916815260200191505b508581038352885181528851602091820191808b01910280838360005b83811015610461578181015183820152602001610449565b50505050905001858103825287818151815260200191508051906020019060200280838360005b838110156104a0578181015183820152602001610488565b505050509050019b505050505050505050505050604051809103906000f0801580156104d0573d6000803e3d6000fd5b50600160a060020a038082166000818152600460209081526040808320805460ff1916600190811790915560038054918201815584527fc2575a0e9e593c00f959f8c92f12db2869c3395a3b0502d05e2516446f71f85b01805473ffffffffffffffffffffffffffffffffffffffff191685179055825481518084019590955290941693830184905260608084528e51908401528d519495507f6501c9546c19e0c264ea977f2f67f10185bcb77814fd738d81c7df40358af7af948e9487949093909283926080840192918801918190849084905b838110156105bd5781810151838201526020016105a5565b50505050905090810190601f1680156105ea5780820380516001836020036101000a031916815260200191505b5094505050505060405180910390a198975050505050505050565b600160a060020a031660009081526004602052604090205460ff1690565b6040516108fb806106348339019056fe608060405234801561001057600080fd5b506040516108fb3803806108fb833981018060405260e081101561003357600080fd5b81019080805164010000000081111561004b57600080fd5b8201602081018481111561005e57600080fd5b815164010000000081118282018710171561007857600080fd5b5050929190602001805164010000000081111561009457600080fd5b820160208101848111156100a757600080fd5b81516401000000008111828201871017156100c157600080fd5b505060208201516040830151606090930180519295919491926401000000008111156100ec57600080fd5b820160208101848111156100ff57600080fd5b815185602082028301116401000000008211171561011c57600080fd5b5050929190602001805164010000000081111561013857600080fd5b8201602081018481111561014b57600080fd5b815185602082028301116401000000008211171561016857600080fd5b50506020918201518951919450925061018791600191908a019061037c565b50855161019b90600290602089019061037c565b506003859055600484905582516101b99060059060208601906103fa565b5081516101cd9060069060208501906103fa565b5060008054600160a060020a031916600160a060020a03831617905560068054604080516020808402820181019092528281526102b5939092909183018282801561024157602002820191906000526020600020905b8154600160a060020a03168152600190910190602001808311610223575b5050505050600580548060200260200160405190810160405280929190818152602001828054801561029c57602002820191906000526020600020905b8154600160a060020a0316815260019091019060200180831161027e575b50505050506102c1640100000000026401000000009004565b5050505050505061049c565b60005b825181101561031b5760016009600085848151811015156102e157fe5b602090810291909101810151600160a060020a03168252810191909152604001600020805460ff19169115159190911790556001016102c4565b5060005b600554811015610377576001600a6000848481518110151561033d57fe5b602090810291909101810151600160a060020a03168252810191909152604001600020805460ff191691151591909117905560010161031f565b505050565b828054600181600116156101000203166002900490600052602060002090601f016020900481019282601f106103bd57805160ff19168380011785556103ea565b828001600101855582156103ea579182015b828111156103ea5782518255916020019190600101906103cf565b506103f692915061045b565b5090565b82805482825590600052602060002090810192821561044f579160200282015b8281111561044f5782518254600160a060020a031916600160a060020a0390911617825560209092019160019091019061041a565b506103f6929150610478565b61047591905b808211156103f65760008155600101610461565b90565b61047591905b808211156103f6578054600160a060020a031916815560010161047e565b610450806104ab6000396000f3fe6080604052600436106100775763ffffffff7c010000000000000000000000000000000000000000000000000000000060003504166302d05d3f811461007c5780635a6f65f3146100ba578063bf588de31461010e578063c8dff6251461013d578063d6d46ba814610193578063e52f26df146101e0575b600080fd5b34801561008857600080fd5b50610091610220565b6040805173ffffffffffffffffffffffffffffffffffffffff9092168252519081900360200190f35b3480156100c657600080fd5b506100fa600480360360208110156100dd57600080fd5b503573ffffffffffffffffffffffffffffffffffffffff1661023c565b604080519115158252519081900360200190f35b34801561011a57600080fd5b5061013b6004803603602081101561013157600080fd5b503560ff16610251565b005b34801561014957600080fd5b5061017d6004803603602081101561016057600080fd5b503573ffffffffffffffffffffffffffffffffffffffff16610383565b6040805160ff9092168252519081900360200190f35b34801561019f57600080fd5b506101a8610398565b604051808260a080838360005b838110156101cd5781810151838201526020016101b5565b5050505090500191505060405180910390f35b3480156101ec57600080fd5b506100fa6004803603602081101561020357600080fd5b503573ffffffffffffffffffffffffffffffffffffffff166103f0565b60005473ffffffffffffffffffffffffffffffffffffffff1681565b600a6020526000908152604090205460ff1681565b3360008181526009602052604090205460ff16151561026f57600080fd5b3360009081526008602052604090205460ff1615610308573360009081526008602052604090205460019060079060ff16600581106102aa57fe5b602080820490920154336000908152600890935260409092205460ff601f9092166101000a9092048116929092039160079116600581106102e757fe5b602091828204019190066101000a81548160ff021916908360ff1602179055505b336000908152600860205260409020805460ff191660ff84169081179091556007906005811061033457fe5b602091828204019190069054906101000a900460ff1660010160078360ff1660058110151561035f57fe5b602091828204019190066101000a81548160ff021916908360ff1602179055505050565b60086020526000908152604090205460ff1681565b6103a0610405565b6040805160a081019182905290600790600590826000855b825461010083900a900460ff168152602060019283018181049485019490930390920291018084116103b85790505050505050905090565b60096020526000908152604090205460ff1681565b60a060405190810160405280600590602082028038833950919291505056fea165627a7a723058204645e9a73ae3080f6102d3fc2d796c13b861be41a2ac6065175f4ad8828460bb0029a165627a7a72305820a2d3b89fc5d959631672d07f0385fa0416e23a34413b4578fec22ac75609eceb0029",
  "source": "// Session.deployed().then(function(instance){ return instance.take_feedback('0x0fce0e522a2a18ee1e0fbf913e12483aec3f8404',8);});\npragma solidity 0.5.0;\nimport \"./Session.sol\";\n\n\ncontract Organization {\n  \n    address creator;\n    string organizationName;\n    string organizationDiscription;\n    Session[] sessions;\n    mapping (address => bool) ISsession;\n\n   constructor(string  memory _organizationName, string memory _organizationDiscription, address _creator) public{\n        organizationName = _organizationName;\n        organizationDiscription = _organizationDiscription;\n        creator =  _creator;\n   }    \n    event sessionnCreated(string name,address sessionAddress ,address creator);\n    modifier onlyCreator(){\n        require(msg.sender == creator);\n        _;\n    } \n     function checkForSession(address _address) view public returns (bool) {\n        return ISsession[_address];\n     }\n    \n     //construct Session Contract\n     function createSession(\n      string memory _sessionName,\n      string memory _description,\n      uint _startTime,\n      uint _endTime,\n      address[] memory _lecturer,\n      address[] memory _attendes,\n      address _organizationAddress\n     ) public  onlyCreator returns(address) {\n        \n        Session session = new Session(_sessionName , _description , _startTime , _endTime, _lecturer,_attendes,_organizationAddress );\n        ISsession[address(session)] = true;\n        sessions.push(session);\n        emit sessionnCreated(_sessionName,address(session),creator);\n        return address(session);\n     }\n     \n  \n}\n\n",
  "sourcePath": "/home/yehia/Documents/Projects/solidity/Feedblock/contracts/Organization.sol",
  "compiler": {
    "name": "solc",
    "version": "0.5.0+commit.1d4f565a.Emscripten.clang"
  },
  "schemaVersion": "3.0.8",
  "updatedAt": "2019-07-14T07:23:32.216Z",
  "devdoc": {
    "methods": {}
  },
  "userdoc": {
    "methods": {}
  }
}