{
  "contractName": "Organization",
  "abi": [
    {
      "inputs": [
        {
          "name": "_organizationName",
          "type": "string"
        },
        {
          "name": "_organizationDiscription",
          "type": "string"
        }
      ],
      "payable": false,
      "stateMutability": "nonpayable",
      "type": "constructor",
      "signature": "constructor"
    },
    {
      "anonymous": false,
      "inputs": [
        {
          "indexed": false,
          "name": "name",
          "type": "string"
        },
        {
          "indexed": false,
          "name": "sessionAddress",
          "type": "address"
        },
        {
          "indexed": false,
          "name": "creator",
          "type": "address"
        }
      ],
      "name": "sessionnCreated",
      "type": "event",
      "signature": "0x6501c9546c19e0c264ea977f2f67f10185bcb77814fd738d81c7df40358af7af"
    },
    {
      "constant": false,
      "inputs": [
        {
          "name": "_organizationName",
          "type": "string"
        },
        {
          "name": "_organizationDiscription",
          "type": "string"
        }
      ],
      "name": "CreateOrganization",
      "outputs": [
        {
          "name": "",
          "type": "address"
        }
      ],
      "payable": false,
      "stateMutability": "nonpayable",
      "type": "function",
      "signature": "0xa2d332de"
    },
    {
      "constant": true,
      "inputs": [
        {
          "name": "_organization",
          "type": "address"
        }
      ],
      "name": "GoToOrganization",
      "outputs": [
        {
          "name": "",
          "type": "bool"
        }
      ],
      "payable": false,
      "stateMutability": "view",
      "type": "function",
      "signature": "0x82e899f5"
    },
    {
      "constant": false,
      "inputs": [
        {
          "name": "_organizationName",
          "type": "string"
        },
        {
          "name": "_organizationDiscription",
          "type": "string"
        }
      ],
      "name": "setOrganizationInfo",
      "outputs": [],
      "payable": false,
      "stateMutability": "nonpayable",
      "type": "function",
      "signature": "0x3879d867"
    },
    {
      "constant": false,
      "inputs": [
        {
          "name": "addr",
          "type": "address"
        }
      ],
      "name": "setcreator",
      "outputs": [],
      "payable": false,
      "stateMutability": "nonpayable",
      "type": "function",
      "signature": "0xe03ba199"
    },
    {
      "constant": false,
      "inputs": [
        {
          "name": "a",
          "type": "address"
        }
      ],
      "name": "clone",
      "outputs": [
        {
          "name": "",
          "type": "address"
        }
      ],
      "payable": false,
      "stateMutability": "nonpayable",
      "type": "function",
      "signature": "0x8124b78e"
    },
    {
      "constant": false,
      "inputs": [
        {
          "name": "_sessionName",
          "type": "string"
        },
        {
          "name": "_description",
          "type": "string"
        },
        {
          "name": "_startTime",
          "type": "uint256"
        },
        {
          "name": "_endTime",
          "type": "uint256"
        },
        {
          "name": "_lecturer",
          "type": "address[]"
        },
        {
          "name": "_attendes",
          "type": "address[]"
        }
      ],
      "name": "createdSession",
      "outputs": [
        {
          "name": "",
          "type": "address"
        }
      ],
      "payable": false,
      "stateMutability": "nonpayable",
      "type": "function",
      "signature": "0x373c4d64"
    },
    {
      "constant": false,
      "inputs": [
        {
          "name": "_session",
          "type": "address"
        },
        {
          "name": "_voter",
          "type": "address"
        },
        {
          "name": "_feedback",
          "type": "uint8"
        }
      ],
      "name": "sessionTakeFeedback",
      "outputs": [],
      "payable": false,
      "stateMutability": "nonpayable",
      "type": "function",
      "signature": "0x54096813"
    },
    {
      "constant": true,
      "inputs": [
        {
          "name": "_session",
          "type": "address"
        }
      ],
      "name": "sessionSeeResult",
      "outputs": [
        {
          "name": "",
          "type": "int256[]"
        }
      ],
      "payable": false,
      "stateMutability": "view",
      "type": "function",
      "signature": "0x51604d97"
    }
  ],
  "bytecode": "0x60806040523480156200001157600080fd5b5060405162001db938038062001db9833981018060405260408110156200003757600080fd5b8101908080516401000000008111156200005057600080fd5b828101905060208101848111156200006757600080fd5b81518560018202830111640100000000821117156200008557600080fd5b50509291906020018051640100000000811115620000a257600080fd5b82810190506020810184811115620000b957600080fd5b8151856001820283011164010000000082111715620000d757600080fd5b50509291905050508160019080519060200190620000f792919062000119565b5080600290805190602001906200011092919062000119565b505050620001c8565b828054600181600116156101000203166002900490600052602060002090601f016020900481019282601f106200015c57805160ff19168380011785556200018d565b828001600101855582156200018d579182015b828111156200018c5782518255916020019190600101906200016f565b5b5090506200019c9190620001a0565b5090565b620001c591905b80821115620001c1576000816000905550600101620001a7565b5090565b90565b611be180620001d86000396000f3fe60806040526004361062000097576000357c0100000000000000000000000000000000000000000000000000000000900463ffffffff168063373c4d64146200009c5780633879d867146200038757806351604d9714620004f057806354096813146200059c5780638124b78e146200061e57806382e899f514620006b3578063a2d332de1462000720578063e03ba19914620008c9575b600080fd5b348015620000a957600080fd5b5062000345600480360360c0811015620000c257600080fd5b8101908080359060200190640100000000811115620000e057600080fd5b820183602082011115620000f357600080fd5b803590602001918460018302840111640100000000831117156200011657600080fd5b91908080601f016020809104026020016040519081016040528093929190818152602001838380828437600081840152601f19601f820116905080830192505050505050509192919290803590602001906401000000008111156200017a57600080fd5b8201836020820111156200018d57600080fd5b80359060200191846001830284011164010000000083111715620001b057600080fd5b91908080601f016020809104026020016040519081016040528093929190818152602001838380828437600081840152601f19601f8201169050808301925050505050505091929192908035906020019092919080359060200190929190803590602001906401000000008111156200022857600080fd5b8201836020820111156200023b57600080fd5b803590602001918460208302840111640100000000831117156200025e57600080fd5b919080806020026020016040519081016040528093929190818152602001838360200280828437600081840152601f19601f82011690508083019250505050505050919291929080359060200190640100000000811115620002bf57600080fd5b820183602082011115620002d257600080fd5b80359060200191846020830284011164010000000083111715620002f557600080fd5b919080806020026020016040519081016040528093929190818152602001838360200280828437600081840152601f19601f8201169050808301925050505050505091929192905050506200091e565b604051808273ffffffffffffffffffffffffffffffffffffffff1673ffffffffffffffffffffffffffffffffffffffff16815260200191505060405180910390f35b3480156200039457600080fd5b50620004ee60048036036040811015620003ad57600080fd5b8101908080359060200190640100000000811115620003cb57600080fd5b820183602082011115620003de57600080fd5b803590602001918460018302840111640100000000831117156200040157600080fd5b91908080601f016020809104026020016040519081016040528093929190818152602001838380828437600081840152601f19601f820116905080830192505050505050509192919290803590602001906401000000008111156200046557600080fd5b8201836020820111156200047857600080fd5b803590602001918460018302840111640100000000831117156200049b57600080fd5b91908080601f016020809104026020016040519081016040528093929190818152602001838380828437600081840152601f19601f82011690508083019250505050505050919291929050505062000d54565b005b348015620004fd57600080fd5b5062000543600480360360208110156200051657600080fd5b81019080803573ffffffffffffffffffffffffffffffffffffffff16906020019092919050505062000d8a565b6040518080602001828103825283818151815260200191508051906020019060200280838360005b83811015620005885780820151818401526020810190506200056b565b505050509050019250505060405180910390f35b348015620005a957600080fd5b506200061c60048036036060811015620005c257600080fd5b81019080803573ffffffffffffffffffffffffffffffffffffffff169060200190929190803573ffffffffffffffffffffffffffffffffffffffff169060200190929190803560ff16906020019092919050505062000efd565b005b3480156200062b57600080fd5b5062000671600480360360208110156200064457600080fd5b81019080803573ffffffffffffffffffffffffffffffffffffffff16906020019092919050505062001036565b604051808273ffffffffffffffffffffffffffffffffffffffff1673ffffffffffffffffffffffffffffffffffffffff16815260200191505060405180910390f35b348015620006c057600080fd5b506200070660048036036020811015620006d957600080fd5b81019080803573ffffffffffffffffffffffffffffffffffffffff1690602001909291905050506200107c565b604051808215151515815260200191505060405180910390f35b3480156200072d57600080fd5b5062000887600480360360408110156200074657600080fd5b81019080803590602001906401000000008111156200076457600080fd5b8201836020820111156200077757600080fd5b803590602001918460018302840111640100000000831117156200079a57600080fd5b91908080601f016020809104026020016040519081016040528093929190818152602001838380828437600081840152601f19601f82011690508083019250505050505050919291929080359060200190640100000000811115620007fe57600080fd5b8201836020820111156200081157600080fd5b803590602001918460018302840111640100000000831117156200083457600080fd5b91908080601f016020809104026020016040519081016040528093929190818152602001838380828437600081840152601f19601f820116905080830192505050505050509192919290505050620010db565b604051808273ffffffffffffffffffffffffffffffffffffffff1673ffffffffffffffffffffffffffffffffffffffff16815260200191505060405180910390f35b348015620008d657600080fd5b506200091c60048036036020811015620008ef57600080fd5b81019080803573ffffffffffffffffffffffffffffffffffffffff16906020019092919050505062001201565b005b60008686868686866200093062001244565b808060200180602001878152602001868152602001806020018060200185810385528b818151815260200191508051906020019080838360005b83811015620009875780820151818401526020810190506200096a565b50505050905090810190601f168015620009b55780820380516001836020036101000a031916815260200191505b5085810384528a818151815260200191508051906020019080838360005b83811015620009f0578082015181840152602081019050620009d3565b50505050905090810190601f16801562000a1e5780820380516001836020036101000a031916815260200191505b50858103835287818151815260200191508051906020019060200280838360005b8381101562000a5c57808201518184015260208101905062000a3f565b50505050905001858103825286818151815260200191508051906020019060200280838360005b8381101562000aa057808201518184015260208101905062000a83565b505050509050019a5050505050505050505050604051809103906000f08015801562000ad0573d6000803e3d6000fd5b50600360006101000a81548173ffffffffffffffffffffffffffffffffffffffff021916908373ffffffffffffffffffffffffffffffffffffffff160217905550600360009054906101000a900473ffffffffffffffffffffffffffffffffffffffff16600360006101000a81548173ffffffffffffffffffffffffffffffffffffffff021916908373ffffffffffffffffffffffffffffffffffffffff160217905550600760046000600360009054906101000a900473ffffffffffffffffffffffffffffffffffffffff1673ffffffffffffffffffffffffffffffffffffffff1673ffffffffffffffffffffffffffffffffffffffff168152602001908152602001600020819055507f6501c9546c19e0c264ea977f2f67f10185bcb77814fd738d81c7df40358af7af87600360009054906101000a900473ffffffffffffffffffffffffffffffffffffffff166000809054906101000a900473ffffffffffffffffffffffffffffffffffffffff1660405180806020018473ffffffffffffffffffffffffffffffffffffffff1673ffffffffffffffffffffffffffffffffffffffff1681526020018373ffffffffffffffffffffffffffffffffffffffff1673ffffffffffffffffffffffffffffffffffffffff168152602001828103825285818151815260200191508051906020019080838360005b8381101562000ce857808201518184015260208101905062000ccb565b50505050905090810190601f16801562000d165780820380516001836020036101000a031916815260200191505b5094505050505060405180910390a1600360009054906101000a900473ffffffffffffffffffffffffffffffffffffffff1690509695505050505050565b816001908051906020019062000d6c92919062001255565b50806002908051906020019062000d8592919062001255565b505050565b60606007600460008473ffffffffffffffffffffffffffffffffffffffff1673ffffffffffffffffffffffffffffffffffffffff1681526020019081526020016000205414151562000ddb57600080fd5b600360009054906101000a900473ffffffffffffffffffffffffffffffffffffffff1673ffffffffffffffffffffffffffffffffffffffff1663d6d46ba86040518163ffffffff167c010000000000000000000000000000000000000000000000000000000002815260040160006040518083038186803b15801562000e6057600080fd5b505afa15801562000e75573d6000803e3d6000fd5b505050506040513d6000823e3d601f19601f82011682018060405250602081101562000ea057600080fd5b81019080805164010000000081111562000eb957600080fd5b8281019050602081018481111562000ed057600080fd5b815185602082028301116401000000008211171562000eee57600080fd5b50509291905050509050919050565b6007600460008573ffffffffffffffffffffffffffffffffffffffff1673ffffffffffffffffffffffffffffffffffffffff1681526020019081526020016000205414151562000f4c57600080fd5b600360009054906101000a900473ffffffffffffffffffffffffffffffffffffffff1673ffffffffffffffffffffffffffffffffffffffff166347228fe383836040518363ffffffff167c0100000000000000000000000000000000000000000000000000000000028152600401808373ffffffffffffffffffffffffffffffffffffffff1673ffffffffffffffffffffffffffffffffffffffff1681526020018260ff1660ff16815260200192505050600060405180830381600087803b1580156200101857600080fd5b505af11580156200102d573d6000803e3d6000fd5b50505050505050565b600080690100000000000000000083027f5880730000000000000000000000000000000000000000803b80938091923cf3176000526020600080f0905080915050919050565b60006007600560008473ffffffffffffffffffffffffffffffffffffffff1673ffffffffffffffffffffffffffffffffffffffff168152602001908152602001600020541415620010d15760019050620010d6565b600090505b919050565b600080620010e93062001036565b905060008190508073ffffffffffffffffffffffffffffffffffffffff1663e03ba199306040518263ffffffff167c0100000000000000000000000000000000000000000000000000000000028152600401808273ffffffffffffffffffffffffffffffffffffffff1673ffffffffffffffffffffffffffffffffffffffff168152602001915050600060405180830381600087803b1580156200118c57600080fd5b505af1158015620011a1573d6000803e3d6000fd5b505050506007600560008373ffffffffffffffffffffffffffffffffffffffff1673ffffffffffffffffffffffffffffffffffffffff16815260200190815260200160002081905550620011f6858562000d54565b809250505092915050565b806000806101000a81548173ffffffffffffffffffffffffffffffffffffffff021916908373ffffffffffffffffffffffffffffffffffffffff16021790555050565b6040516108b1806200130583390190565b828054600181600116156101000203166002900490600052602060002090601f016020900481019282601f106200129857805160ff1916838001178555620012c9565b82800160010185558215620012c9579182015b82811115620012c8578251825591602001919060010190620012ab565b5b509050620012d89190620012dc565b5090565b6200130191905b80821115620012fd576000816000905550600101620012e3565b5090565b9056fe608060405234801561001057600080fd5b506040516108b13803806108b1833981018060405260c081101561003357600080fd5b81019080805164010000000081111561004b57600080fd5b8281019050602081018481111561006157600080fd5b815185600182028301116401000000008211171561007e57600080fd5b5050929190602001805164010000000081111561009a57600080fd5b828101905060208101848111156100b057600080fd5b81518560018202830111640100000000821117156100cd57600080fd5b5050929190602001805190602001909291908051906020019092919080516401000000008111156100fd57600080fd5b8281019050602081018481111561011357600080fd5b815185602082028301116401000000008211171561013057600080fd5b5050929190602001805164010000000081111561014c57600080fd5b8281019050602081018481111561016257600080fd5b815185602082028301116401000000008211171561017f57600080fd5b505092919050505083804210151561019657600080fd5b86600190805190602001906101ac929190610345565b5085600290805190602001906101c3929190610345565b50846003819055508360048190555081600690805190602001906101e89291906103c5565b5082600590805190602001906101ff9291906103c5565b5061029e600680548060200260200160405190810160405280929190818152602001828054801561028557602002820191906000526020600020905b8160009054906101000a900473ffffffffffffffffffffffffffffffffffffffff1673ffffffffffffffffffffffffffffffffffffffff168152602001906001019080831161023b575b50505050506102aa640100000000026401000000009004565b505050505050506104b7565b60008090505b8151811015610341577fffffffffffffffffffffffffffffffffffffffffffffffffffffffffffffffff6008600084848151811015156102ec57fe5b9060200190602002015173ffffffffffffffffffffffffffffffffffffffff1673ffffffffffffffffffffffffffffffffffffffff1681526020019081526020016000208190555080806001019150506102b0565b5050565b828054600181600116156101000203166002900490600052602060002090601f016020900481019282601f1061038657805160ff19168380011785556103b4565b828001600101855582156103b4579182015b828111156103b3578251825591602001919060010190610398565b5b5090506103c1919061044f565b5090565b82805482825590600052602060002090810192821561043e579160200282015b8281111561043d5782518260006101000a81548173ffffffffffffffffffffffffffffffffffffffff021916908373ffffffffffffffffffffffffffffffffffffffff160217905550916020019190600101906103e5565b5b50905061044b9190610474565b5090565b61047191905b8082111561046d576000816000905550600101610455565b5090565b90565b6104b491905b808211156104b057600081816101000a81549073ffffffffffffffffffffffffffffffffffffffff02191690555060010161047a565b5090565b90565b6103eb806104c66000396000f3fe60806040526004361061006d576000357c0100000000000000000000000000000000000000000000000000000000900463ffffffff16806302d05d3f1461007257806347228fe3146100c9578063c8dff62514610127578063d6d46ba81461018c578063f8e157ea146101f8575b600080fd5b34801561007e57600080fd5b50610087610227565b604051808273ffffffffffffffffffffffffffffffffffffffff1673ffffffffffffffffffffffffffffffffffffffff16815260200191505060405180910390f35b3480156100d557600080fd5b50610125600480360360408110156100ec57600080fd5b81019080803573ffffffffffffffffffffffffffffffffffffffff169060200190929190803560ff16906020019092919050505061024c565b005b34801561013357600080fd5b506101766004803603602081101561014a57600080fd5b81019080803573ffffffffffffffffffffffffffffffffffffffff169060200190929190505050610325565b6040518082815260200191505060405180910390f35b34801561019857600080fd5b506101a161033d565b6040518080602001828103825283818151815260200191508051906020019060200280838360005b838110156101e45780820151818401526020810190506101c9565b505050509050019250505060405180910390f35b34801561020457600080fd5b5061020d610395565b604051808215151515815260200191505060405180910390f35b6000809054906101000a900473ffffffffffffffffffffffffffffffffffffffff1681565b610254610395565b151561025f57600080fd5b6000600860008473ffffffffffffffffffffffffffffffffffffffff1673ffffffffffffffffffffffffffffffffffffffff16815260200190815260200160002054141515156102ae57600080fd5b8060ff16600860008473ffffffffffffffffffffffffffffffffffffffff1673ffffffffffffffffffffffffffffffffffffffff1681526020019081526020016000208190555060078160ff1681548110151561030757fe5b90600052602060002001600081548092919060010191905055505050565b60086020528060005260406000206000915090505481565b6060600780548060200260200160405190810160405280929190818152602001828054801561038b57602002820191906000526020600020905b815481526020019060010190808311610377575b5050505050905090565b600060035442101580156103ab57506004544211155b80156103ba5750600454600354105b90509056fea165627a7a723058209fcba2a2a880fa96e0806cd00d7f7277a2f960d1aac3e69a05fe3c04b631339c0029a165627a7a72305820c2f23832ff1dc8075d595b7b9476759d1ef1f38121ab5b341a1504a482db35870029",
  "source": "// Session.deployed().then(function(instance){ return instance.take_feedback('0x0fce0e522a2a18ee1e0fbf913e12483aec3f8404',8);});\npragma solidity 0.5.0;\nimport \"./Session.sol\";\n\n\ncontract Organization {\n  \n    address creator;\n    string organizationName;\n    string organizationDiscription;\n    Session session;\n    mapping (address => uint) ISsession;\n    mapping (address => uint) organizations;\n   \n   constructor(string  memory _organizationName, string memory _organizationDiscription) public{\n        organizationName = _organizationName;\n        organizationDiscription = _organizationDiscription;\n      }\n\n    //create Organization\n   function CreateOrganization(string  memory _organizationName, string memory _organizationDiscription) public returns(address) {\n         address childAddress = clone(address(this));\n         Organization child = Organization(childAddress);\n         child.setcreator(address(this));\n         organizations[ address(child)] = 7;\n         setOrganizationInfo(_organizationName,_organizationDiscription);\n         return address(child);\n   }\n   function GoToOrganization(address _organization) public view   returns(bool) {\n            if (organizations[_organization] == 7) {\n               return true;\n            } else {\n               return false;\n            }\n   }\n   \n  function setOrganizationInfo(string  memory _organizationName, string memory _organizationDiscription)  public  {\n       organizationName = _organizationName;\n        organizationDiscription = _organizationDiscription;\n  }\n   function setcreator(address addr) public {\n         creator = addr;\n   }\n\n   function clone(address a) public returns(address)  {\n      address retval;\n      assembly{\n         mstore(0x0, or (0x5880730000000000000000000000000000000000000000803b80938091923cF3 ,mul(a,0x1000000000000000000)))\n         retval := create(0,0, 32)\n      }\n      return retval;\n   }\n      \n    event sessionnCreated(string name,address sessionAddress ,address creator);\n     \n    modifier onlyCreator(){\n        require(msg.sender == creator);\n        _;\n    } \n    \n      \n\n\n     //construct Session Contract\n     function createdSession(\n      string memory _sessionName,\n      string memory _description,\n      uint _startTime,\n      uint _endTime,\n      address[] memory _lecturer,\n      address[] memory _attendes\n     ) public   returns(address) {\n        \n        session = new Session(_sessionName , _description , _startTime , _endTime, _lecturer,_attendes );\n        session = Session(address(session));\n        ISsession[address(session)] = 7;\n        emit sessionnCreated(_sessionName,address(session),creator);\n        return address(session);\n     }\n     \n     //Session Contract Methods\n     function sessionTakeFeedback(address _session,address _voter,uint8 _feedback) public{\n        require(ISsession[_session] == 7);\n        Session(address(session)).take_feedback(_voter,_feedback);  \n     }\n   function sessionSeeResult(address _session) public view returns(int[] memory) {\n        require(ISsession[_session] == 7);\n        return   Session(address(session)).seeResult();\n   }\n}\n\n",
  "sourcePath": "/home/yehia/Documents/Projects/solidity/Think Big/Events-Feedback/contracts/Organization.sol",
  "compiler": {
    "name": "solc",
    "version": "0.5.0+commit.1d4f565a.Emscripten.clang"
  },
  "schemaVersion": "3.0.8",
  "updatedAt": "2019-06-24T12:59:24.755Z",
  "devdoc": {
    "methods": {}
  },
  "userdoc": {
    "methods": {}
  }
}