{
  "contractName": "Session",
  "abi": [
    {
      "constant": true,
      "inputs": [],
      "name": "creator",
      "outputs": [
        {
          "name": "",
          "type": "address"
        }
      ],
      "payable": false,
      "stateMutability": "view",
      "type": "function"
    },
    {
      "constant": true,
      "inputs": [
        {
          "name": "",
          "type": "address"
        }
      ],
      "name": "Islecturer",
      "outputs": [
        {
          "name": "",
          "type": "bool"
        }
      ],
      "payable": false,
      "stateMutability": "view",
      "type": "function"
    },
    {
      "constant": true,
      "inputs": [
        {
          "name": "",
          "type": "address"
        }
      ],
      "name": "attendes_feedback",
      "outputs": [
        {
          "name": "",
          "type": "uint8"
        }
      ],
      "payable": false,
      "stateMutability": "view",
      "type": "function"
    },
    {
      "constant": true,
      "inputs": [
        {
          "name": "",
          "type": "address"
        }
      ],
      "name": "Isattendes",
      "outputs": [
        {
          "name": "",
          "type": "bool"
        }
      ],
      "payable": false,
      "stateMutability": "view",
      "type": "function"
    },
    {
      "inputs": [
        {
          "name": "_sessionName",
          "type": "string"
        },
        {
          "name": "_description",
          "type": "string"
        },
        {
          "name": "_startTime",
          "type": "uint256"
        },
        {
          "name": "_endTime",
          "type": "uint256"
        },
        {
          "name": "_lecturer",
          "type": "address[]"
        },
        {
          "name": "_attendes",
          "type": "address[]"
        },
        {
          "name": "_creator",
          "type": "address"
        }
      ],
      "payable": false,
      "stateMutability": "nonpayable",
      "type": "constructor"
    },
    {
      "constant": false,
      "inputs": [
        {
          "name": "_voter",
          "type": "address"
        },
        {
          "name": "_feedback",
          "type": "uint8"
        }
      ],
      "name": "take_feedback",
      "outputs": [],
      "payable": false,
      "stateMutability": "nonpayable",
      "type": "function"
    },
    {
      "constant": true,
      "inputs": [],
      "name": "seeResult",
      "outputs": [
        {
          "name": "",
          "type": "uint8[5]"
        }
      ],
      "payable": false,
      "stateMutability": "view",
      "type": "function"
    }
  ],
  "bytecode": "0x608060405234801561001057600080fd5b506040516108f93803806108f9833981018060405260e081101561003357600080fd5b81019080805164010000000081111561004b57600080fd5b8201602081018481111561005e57600080fd5b815164010000000081118282018710171561007857600080fd5b5050929190602001805164010000000081111561009457600080fd5b820160208101848111156100a757600080fd5b81516401000000008111828201871017156100c157600080fd5b505060208201516040830151606090930180519295919491926401000000008111156100ec57600080fd5b820160208101848111156100ff57600080fd5b815185602082028301116401000000008211171561011c57600080fd5b5050929190602001805164010000000081111561013857600080fd5b8201602081018481111561014b57600080fd5b815185602082028301116401000000008211171561016857600080fd5b50506020918201518951919450925061018791600191908a019061037c565b50855161019b90600290602089019061037c565b506003859055600484905582516101b99060059060208601906103fa565b5081516101cd9060069060208501906103fa565b5060008054600160a060020a031916600160a060020a03831617905560068054604080516020808402820181019092528281526102b5939092909183018282801561024157602002820191906000526020600020905b8154600160a060020a03168152600190910190602001808311610223575b5050505050600580548060200260200160405190810160405280929190818152602001828054801561029c57602002820191906000526020600020905b8154600160a060020a0316815260019091019060200180831161027e575b50505050506102c1640100000000026401000000009004565b5050505050505061049c565b60005b825181101561031b5760016009600085848151811015156102e157fe5b602090810291909101810151600160a060020a03168252810191909152604001600020805460ff19169115159190911790556001016102c4565b5060005b600554811015610377576001600a6000848481518110151561033d57fe5b602090810291909101810151600160a060020a03168252810191909152604001600020805460ff191691151591909117905560010161031f565b505050565b828054600181600116156101000203166002900490600052602060002090601f016020900481019282601f106103bd57805160ff19168380011785556103ea565b828001600101855582156103ea579182015b828111156103ea5782518255916020019190600101906103cf565b506103f692915061045b565b5090565b82805482825590600052602060002090810192821561044f579160200282015b8281111561044f5782518254600160a060020a031916600160a060020a0390911617825560209092019160019091019061041a565b506103f6929150610478565b61047591905b808211156103f65760008155600101610461565b90565b61047591905b808211156103f6578054600160a060020a031916815560010161047e565b61044e806104ab6000396000f3fe6080604052600436106100775763ffffffff7c010000000000000000000000000000000000000000000000000000000060003504166302d05d3f811461007c57806347228fe3146100ad5780635a6f65f3146100eb578063c8dff62514610132578063d6d46ba81461017b578063e52f26df146101c8575b600080fd5b34801561008857600080fd5b506100916101fb565b60408051600160a060020a039092168252519081900360200190f35b3480156100b957600080fd5b506100e9600480360360408110156100d057600080fd5b508035600160a060020a0316906020013560ff1661020a565b005b3480156100f757600080fd5b5061011e6004803603602081101561010e57600080fd5b5035600160a060020a031661036c565b604080519115158252519081900360200190f35b34801561013e57600080fd5b506101656004803603602081101561015557600080fd5b5035600160a060020a0316610381565b6040805160ff9092168252519081900360200190f35b34801561018757600080fd5b50610190610396565b604051808260a080838360005b838110156101b557818101518382015260200161019d565b5050505090500191505060405180910390f35b3480156101d457600080fd5b5061011e600480360360208110156101eb57600080fd5b5035600160a060020a03166103ee565b600054600160a060020a031681565b600160a060020a038216600090815260096020526040902054829060ff16151561023357600080fd5b600160a060020a03831660009081526008602052604090205460ff16156102e757600160a060020a03831660009081526008602052604090205460019060079060ff166005811061028057fe5b602080820490920154600160a060020a0387166000908152600890935260409092205460ff601f9092166101000a9092048116929092039160079116600581106102c657fe5b602091828204019190066101000a81548160ff021916908360ff1602179055505b600160a060020a0383166000908152600860205260409020805460ff191660ff84169081179091556007906005811061031c57fe5b602091828204019190069054906101000a900460ff1660010160078360ff1660058110151561034757fe5b602091828204019190066101000a81548160ff021916908360ff160217905550505050565b600a6020526000908152604090205460ff1681565b60086020526000908152604090205460ff1681565b61039e610403565b6040805160a081019182905290600790600590826000855b825461010083900a900460ff168152602060019283018181049485019490930390920291018084116103b65790505050505050905090565b60096020526000908152604090205460ff1681565b60a060405190810160405280600590602082028038833950919291505056fea165627a7a72305820316dc43a303c5f66259c8e0e618e25c66fad05c02abe20a3dd690065d3ae5b720029",
  "source": "pragma solidity 0.5.0;\ncontract Session {\n\n      address public creator;  // The address of parent Organization\n     \n      string sessionName;\n      string description;\n      uint startTime;\n      uint endTime;\n      address[] lecturer;\n      address[] attendes; \n\n      uint8[5]  result; \n      mapping(address => uint8) public attendes_feedback; //institution boardMembers\n      mapping(address => bool) public Isattendes;\n      mapping(address => bool) public Islecturer;\n      modifier onlyVoter(address _voter){\n              require(Isattendes[_voter]);\n              _;\n          }\n    \n      constructor (string memory _sessionName, string memory _description, uint _startTime,uint _endTime,address[] memory _lecturer,address[] memory  _attendes,address _creator) public{\n              \n              sessionName =  _sessionName;\n              description = _description;\n              startTime = _startTime;\n              endTime = _endTime;\n              lecturer = _lecturer;\n              attendes = _attendes;\n              creator = _creator;\n              init(attendes,lecturer);\n      }\n\n    function init(address[] memory _attendes,address[] memory _lecturer) private{\n           for(uint i=0 ; i < _attendes.length ; i++){\n            Isattendes[_attendes[i]] = true;\n        }\n          for (uint i =0; i < lecturer.length; i++) {\n            Islecturer[_lecturer[i]]  = true;\n          }\n    }\n   \n   \n    function take_feedback(address _voter,uint8 _feedback)  public onlyVoter(_voter) {\n            if (attendes_feedback[_voter] != 0) \n           {\n                result[attendes_feedback[_voter]]  = result[attendes_feedback[_voter]] - 1;\n           } \n           attendes_feedback[_voter] = _feedback; \n           result[_feedback] = result[_feedback] + 1;         \n    }\n     \n  function seeResult() public view returns(uint8[5] memory){\n          return result;\n  }\n}",
  "sourcePath": "/home/yehia/Documents/Projects/solidity/Feedblock/contracts/Session.sol",
  "compiler": {
    "name": "solc",
    "version": "0.5.0+commit.1d4f565a.Emscripten.clang"
  },
  "schemaVersion": "3.0.8",
  "updatedAt": "2019-07-06T09:40:28.326Z",
  "devdoc": {
    "methods": {}
  },
  "userdoc": {
    "methods": {}
  }
}