{
  "contractName": "Session",
  "abi": [
    {
      "constant": true,
      "inputs": [],
      "name": "creator",
      "outputs": [
        {
          "name": "",
          "type": "address"
        }
      ],
      "payable": false,
      "stateMutability": "view",
      "type": "function"
    },
    {
      "constant": true,
      "inputs": [
        {
          "name": "",
          "type": "address"
        }
      ],
      "name": "Islecturer",
      "outputs": [
        {
          "name": "",
          "type": "bool"
        }
      ],
      "payable": false,
      "stateMutability": "view",
      "type": "function"
    },
    {
      "constant": true,
      "inputs": [
        {
          "name": "",
          "type": "address"
        }
      ],
      "name": "attendes_feedback",
      "outputs": [
        {
          "name": "",
          "type": "uint8"
        }
      ],
      "payable": false,
      "stateMutability": "view",
      "type": "function"
    },
    {
      "constant": true,
      "inputs": [
        {
          "name": "",
          "type": "address"
        }
      ],
      "name": "Isattendes",
      "outputs": [
        {
          "name": "",
          "type": "bool"
        }
      ],
      "payable": false,
      "stateMutability": "view",
      "type": "function"
    },
    {
      "inputs": [
        {
          "name": "_sessionName",
          "type": "string"
        },
        {
          "name": "_description",
          "type": "string"
        },
        {
          "name": "_startTime",
          "type": "uint256"
        },
        {
          "name": "_endTime",
          "type": "uint256"
        },
        {
          "name": "_lecturer",
          "type": "address[]"
        },
        {
          "name": "_attendes",
          "type": "address[]"
        },
        {
          "name": "_creator",
          "type": "address"
        }
      ],
      "payable": false,
      "stateMutability": "nonpayable",
      "type": "constructor"
    },
    {
      "constant": false,
      "inputs": [
        {
          "name": "_feedback",
          "type": "uint8"
        },
        {
          "name": "_organization",
          "type": "address"
        }
      ],
      "name": "take_feedback",
      "outputs": [],
      "payable": false,
      "stateMutability": "nonpayable",
      "type": "function"
    },
    {
      "constant": true,
      "inputs": [],
      "name": "seeResult",
      "outputs": [
        {
          "name": "",
          "type": "uint8[5]"
        }
      ],
      "payable": false,
      "stateMutability": "view",
      "type": "function"
    }
  ],
  "bytecode": "0x608060405234801561001057600080fd5b50604051610993380380610993833981018060405260e081101561003357600080fd5b81019080805164010000000081111561004b57600080fd5b8201602081018481111561005e57600080fd5b815164010000000081118282018710171561007857600080fd5b5050929190602001805164010000000081111561009457600080fd5b820160208101848111156100a757600080fd5b81516401000000008111828201871017156100c157600080fd5b505060208201516040830151606090930180519295919491926401000000008111156100ec57600080fd5b820160208101848111156100ff57600080fd5b815185602082028301116401000000008211171561011c57600080fd5b5050929190602001805164010000000081111561013857600080fd5b8201602081018481111561014b57600080fd5b815185602082028301116401000000008211171561016857600080fd5b50506020918201518951919450925061018791600191908a01906103b1565b50855161019b9060029060208901906103b1565b506003859055600484905582516101b990600590602086019061042f565b5081516101cd90600690602085019061042f565b5060008054600160a060020a031916600160a060020a0383161790556101fb816401000000006102d4810204565b6102c8600680548060200260200160405190810160405280929190818152602001828054801561025457602002820191906000526020600020905b8154600160a060020a03168152600190910190602001808311610236575b505050505060058054806020026020016040519081016040528092919081815260200182805480156102af57602002820191906000526020600020905b8154600160a060020a03168152600190910190602001808311610291575b50505050506102f6640100000000026401000000009004565b505050505050506104d1565b60078054600160a060020a031916600160a060020a0392909216919091179055565b60005b8251811015610350576001600a6000858481518110151561031657fe5b602090810291909101810151600160a060020a03168252810191909152604001600020805460ff19169115159190911790556001016102f9565b5060005b6005548110156103ac576001600b6000848481518110151561037257fe5b602090810291909101810151600160a060020a03168252810191909152604001600020805460ff1916911515919091179055600101610354565b505050565b828054600181600116156101000203166002900490600052602060002090601f016020900481019282601f106103f257805160ff191683800117855561041f565b8280016001018555821561041f579182015b8281111561041f578251825591602001919060010190610404565b5061042b929150610490565b5090565b828054828255906000526020600020908101928215610484579160200282015b828111156104845782518254600160a060020a031916600160a060020a0390911617825560209092019160019091019061044f565b5061042b9291506104ad565b6104aa91905b8082111561042b5760008155600101610496565b90565b6104aa91905b8082111561042b578054600160a060020a03191681556001016104b3565b6104b3806104e06000396000f3fe6080604052600436106100775763ffffffff7c010000000000000000000000000000000000000000000000000000000060003504166302d05d3f811461007c5780635a6f65f3146100ad578063c8dff625146100f4578063ce83498a1461013d578063d6d46ba81461017b578063e52f26df146101c8575b600080fd5b34801561008857600080fd5b506100916101fb565b60408051600160a060020a039092168252519081900360200190f35b3480156100b957600080fd5b506100e0600480360360208110156100d057600080fd5b5035600160a060020a031661020a565b604080519115158252519081900360200190f35b34801561010057600080fd5b506101276004803603602081101561011757600080fd5b5035600160a060020a031661021f565b6040805160ff9092168252519081900360200190f35b34801561014957600080fd5b506101796004803603604081101561016057600080fd5b50803560ff169060200135600160a060020a0316610234565b005b34801561018757600080fd5b506101906103fb565b604051808260a080838360005b838110156101b557818101518382015260200161019d565b5050505090500191505060405180910390f35b3480156101d457600080fd5b506100e0600480360360208110156101eb57600080fd5b5035600160a060020a0316610453565b600054600160a060020a031681565b600b6020526000908152604090205460ff1681565b60096020526000908152604090205460ff1681565b336000818152600a602052604090205460ff16151561025257600080fd5b3360009081526009602052604090205460ff16156102eb573360009081526009602052604090205460019060089060ff166005811061028d57fe5b602080820490920154336000908152600990935260409092205460ff601f9092166101000a9092048116929092039160089116600581106102ca57fe5b602091828204019190066101000a81548160ff021916908360ff1602179055505b336000908152600960205260409020805460ff191660ff85169081179091556008906005811061031757fe5b602091828204019190069054906101000a900460ff1660010160088460ff1660058110151561034257fe5b60208104909101805460ff938416601f9093166101000a9283029390920219909116919091179055600754604080517f86825c0400000000000000000000000000000000000000000000000000000000815233600482015260016024820152600160a060020a038581166044830152915191909216916386825c0491606480830192600092919082900301818387803b1580156103de57600080fd5b505af11580156103f2573d6000803e3d6000fd5b50505050505050565b610403610468565b6040805160a081019182905290600890600590826000855b825461010083900a900460ff1681526020600192830181810494850194909303909202910180841161041b5790505050505050905090565b600a6020526000908152604090205460ff1681565b60a060405190810160405280600590602082028038833950919291505056fea165627a7a72305820b351d2c8ef70128bff446bf70d2d27763452adcc5390c7fac9474b78aabbb1da0029",
  "source": "pragma solidity ^0.5.0;\nimport './Organization.sol';\n\ncontract Session {\n\n      address public creator;  // The address of parent Organization\n     \n      string sessionName;\n      string description;\n      uint startTime;\n      uint endTime;\n      address[] lecturer;\n      address[] attendes; \n      Organization organization;\n      uint8[5]  result; \n      mapping(address => uint8) public attendes_feedback; //institution boardMembers\n      mapping(address => bool) public Isattendes;\n      mapping(address => bool) public Islecturer;\n      modifier onlyVoter(address _voter){\n              require(Isattendes[_voter]);\n              _;\n          }\n    \n      constructor (string memory _sessionName, string memory _description, uint _startTime,uint _endTime,address[] memory _lecturer,address[] memory  _attendes,address _creator) public{\n              \n              sessionName =  _sessionName;\n              description = _description;\n              startTime = _startTime;\n              endTime = _endTime;\n              lecturer = _lecturer;\n              attendes = _attendes;\n              creator = _creator;\n              loadToken(_creator);\n              init(attendes,lecturer);\n      }\n    function loadToken(address _organizationAddress) private {\n      organization = Organization(_organizationAddress);\n    }\n    function init(address[] memory _attendes,address[] memory _lecturer) private{\n           for(uint i=0 ; i < _attendes.length ; i++){\n            Isattendes[_attendes[i]] = true;\n        }\n          for (uint i =0; i < lecturer.length; i++) {\n            Islecturer[_lecturer[i]]  = true;\n          }\n    }\n   \n   \n    function take_feedback(uint8 _feedback,address _organization)  public onlyVoter(msg.sender) {\n            if (attendes_feedback[msg.sender] != 0) \n           {\n                result[attendes_feedback[msg.sender]]  = result[attendes_feedback[msg.sender]] - 1;\n           } \n           attendes_feedback[msg.sender] = _feedback; \n           result[_feedback] = result[_feedback] + 1; \n           organization.giveToken(msg.sender,1,_organization);\n\n    }\n     \n  function seeResult() public view returns(uint8[5] memory){\n          return result;\n  }\n}",
  "sourcePath": "/home/yehia/Documents/Projects/solidity/Feedblock/contracts/Session.sol",
  "compiler": {
    "name": "solc",
    "version": "0.5.0+commit.1d4f565a.Emscripten.clang"
  },
  "schemaVersion": "3.0.8",
  "updatedAt": "2019-07-18T10:12:33.730Z",
  "devdoc": {
    "methods": {}
  },
  "userdoc": {
    "methods": {}
  }
}