{
  "contractName": "Session",
  "abi": [
    {
      "constant": true,
      "inputs": [],
      "name": "creator",
      "outputs": [
        {
          "name": "",
          "type": "address"
        }
      ],
      "payable": false,
      "stateMutability": "view",
      "type": "function",
      "signature": "0x02d05d3f"
    },
    {
      "constant": true,
      "inputs": [
        {
          "name": "",
          "type": "address"
        }
      ],
      "name": "attendes_feedback",
      "outputs": [
        {
          "name": "",
          "type": "int256"
        }
      ],
      "payable": false,
      "stateMutability": "view",
      "type": "function",
      "signature": "0xc8dff625"
    },
    {
      "inputs": [
        {
          "name": "_sessionName",
          "type": "string"
        },
        {
          "name": "_description",
          "type": "string"
        },
        {
          "name": "_startTime",
          "type": "uint256"
        },
        {
          "name": "_endTime",
          "type": "uint256"
        },
        {
          "name": "_lecturer",
          "type": "address[]"
        },
        {
          "name": "_attendes",
          "type": "address[]"
        }
      ],
      "payable": false,
      "stateMutability": "nonpayable",
      "type": "constructor",
      "signature": "constructor"
    },
    {
      "constant": true,
      "inputs": [],
      "name": "Time",
      "outputs": [
        {
          "name": "",
          "type": "bool"
        }
      ],
      "payable": false,
      "stateMutability": "view",
      "type": "function",
      "signature": "0xf8e157ea"
    },
    {
      "constant": true,
      "inputs": [
        {
          "name": "_voter",
          "type": "address"
        },
        {
          "name": "_feedback",
          "type": "uint8"
        }
      ],
      "name": "test",
      "outputs": [
        {
          "name": "",
          "type": "bool"
        }
      ],
      "payable": false,
      "stateMutability": "pure",
      "type": "function",
      "signature": "0xbc645d96"
    },
    {
      "constant": false,
      "inputs": [
        {
          "name": "_voter",
          "type": "address"
        },
        {
          "name": "_feedback",
          "type": "uint8"
        }
      ],
      "name": "take_feedback",
      "outputs": [
        {
          "name": "",
          "type": "int256[]"
        }
      ],
      "payable": false,
      "stateMutability": "nonpayable",
      "type": "function",
      "signature": "0x47228fe3"
    },
    {
      "constant": true,
      "inputs": [],
      "name": "seeResult",
      "outputs": [
        {
          "name": "",
          "type": "int256[]"
        }
      ],
      "payable": false,
      "stateMutability": "view",
      "type": "function",
      "signature": "0xd6d46ba8"
    }
  ],
  "bytecode": "0x608060405234801561001057600080fd5b50604051610883380380610883833981018060405260c081101561003357600080fd5b81019080805164010000000081111561004b57600080fd5b8281019050602081018481111561006157600080fd5b815185600182028301116401000000008211171561007e57600080fd5b5050929190602001805164010000000081111561009a57600080fd5b828101905060208101848111156100b057600080fd5b81518560018202830111640100000000821117156100cd57600080fd5b5050929190602001805190602001909291908051906020019092919080516401000000008111156100fd57600080fd5b8281019050602081018481111561011357600080fd5b815185602082028301116401000000008211171561013057600080fd5b5050929190602001805164010000000081111561014c57600080fd5b8281019050602081018481111561016257600080fd5b815185602082028301116401000000008211171561017f57600080fd5b505092919050505083804210151561019657600080fd5b86600190805190602001906101ac929190610345565b5085600290805190602001906101c3929190610345565b50846003819055508360048190555081600690805190602001906101e89291906103c5565b5082600590805190602001906101ff9291906103c5565b5061029e600680548060200260200160405190810160405280929190818152602001828054801561028557602002820191906000526020600020905b8160009054906101000a900473ffffffffffffffffffffffffffffffffffffffff1673ffffffffffffffffffffffffffffffffffffffff168152602001906001019080831161023b575b50505050506102aa640100000000026401000000009004565b505050505050506104b7565b60008090505b8151811015610341577fffffffffffffffffffffffffffffffffffffffffffffffffffffffffffffffff6008600084848151811015156102ec57fe5b9060200190602002015173ffffffffffffffffffffffffffffffffffffffff1673ffffffffffffffffffffffffffffffffffffffff1681526020019081526020016000208190555080806001019150506102b0565b5050565b828054600181600116156101000203166002900490600052602060002090601f016020900481019282601f1061038657805160ff19168380011785556103b4565b828001600101855582156103b4579182015b828111156103b3578251825591602001919060010190610398565b5b5090506103c1919061044f565b5090565b82805482825590600052602060002090810192821561043e579160200282015b8281111561043d5782518260006101000a81548173ffffffffffffffffffffffffffffffffffffffff021916908373ffffffffffffffffffffffffffffffffffffffff160217905550916020019190600101906103e5565b5b50905061044b9190610474565b5090565b61047191905b8082111561046d576000816000905550600101610455565b5090565b90565b6104b491905b808211156104b057600081816101000a81549073ffffffffffffffffffffffffffffffffffffffff02191690555060010161047a565b5090565b90565b6103bd806104c66000396000f3fe608060405260043610610078576000357c0100000000000000000000000000000000000000000000000000000000900463ffffffff16806302d05d3f1461007d57806347228fe3146100d4578063c8dff62514610132578063d6d46ba814610197578063f8a8fd6d14610203578063f8e157ea14610232575b600080fd5b34801561008957600080fd5b50610092610261565b604051808273ffffffffffffffffffffffffffffffffffffffff1673ffffffffffffffffffffffffffffffffffffffff16815260200191505060405180910390f35b3480156100e057600080fd5b50610130600480360360408110156100f757600080fd5b81019080803573ffffffffffffffffffffffffffffffffffffffff169060200190929190803560ff169060200190929190505050610286565b005b34801561013e57600080fd5b506101816004803603602081101561015557600080fd5b81019080803573ffffffffffffffffffffffffffffffffffffffff1690602001909291905050506102fd565b6040518082815260200191505060405180910390f35b3480156101a357600080fd5b506101ac610315565b6040518080602001828103825283818151815260200191508051906020019060200280838360005b838110156101ef5780820151818401526020810190506101d4565b505050509050019250505060405180910390f35b34801561020f57600080fd5b5061021861036d565b604051808215151515815260200191505060405180910390f35b34801561023e57600080fd5b50610247610376565b604051808215151515815260200191505060405180910390f35b6000809054906101000a900473ffffffffffffffffffffffffffffffffffffffff1681565b8060ff16600860008473ffffffffffffffffffffffffffffffffffffffff1673ffffffffffffffffffffffffffffffffffffffff1681526020019081526020016000208190555060078160ff168154811015156102df57fe5b90600052602060002001600081548092919060010191905055505050565b60086020528060005260406000206000915090505481565b6060600780548060200260200160405190810160405280929190818152602001828054801561036357602002820191906000526020600020905b81548152602001906001019080831161034f575b5050505050905090565b60006001905090565b6000600354421015801561038c57506004544211155b90509056fea165627a7a723058201bf06e2179f6add9ece32fe5a2b53169d7d451b56011004669c0249376715f080029",
  "source": "pragma solidity 0.5.0;\ncontract Session {\n\n      address public creator;  // The address of parent Organization\n     \n      string sessionName;\n      string description;\n      uint startTime;\n      uint endTime;\n      address[] lecturer;\n      address[] attendes; \n\n      int[] result; \n      mapping(address => int) public attendes_feedback; //institution boardMembers\n      modifier onTime(uint _startTime){\n            require(now < _startTime);\n            _;\n      }\n      constructor (string memory _sessionName, string memory _description, uint _startTime,uint _endTime,address[] memory   _lecturer,address[] memory  _attendes) public onTime(_startTime){\n              \n              sessionName =  _sessionName;\n              description = _description;\n              startTime = _startTime;\n              endTime = _endTime;\n              attendes = _attendes;\n              lecturer = _lecturer;\n              initAttendes(attendes);\n      } \n      \n    function initAttendes(address[] memory _attendes) private{\n           for(uint i=0 ; i < _attendes.length ; i++){\n            attendes_feedback[_attendes[i]] = -1;\n        }\n    }\n   \n    function Time() public view returns (bool){\n       return (now >=  startTime  && now <= endTime);          \n     }\n\n    modifier checkTime(){\n        require(Time());\n        _;\n      }\n      function test() public pure returns(bool) {\n             return true;\n      }\n    function take_feedback(address _voter,uint8 _feedback)  public  {\n         // require(attendes_feedback[_voter] != 0);\n          attendes_feedback[_voter] = _feedback;\n          result[_feedback]++;\n    }\n \n  function seeResult() public view returns(int[] memory){\n          return result;\n  }\n}",
  "sourcePath": "/home/yehia/Documents/Projects/solidity/Think Big/Events-Feedback/contracts/Session.sol",
  "compiler": {
    "name": "solc",
    "version": "0.5.0+commit.1d4f565a.Emscripten.clang"
  },
  "schemaVersion": "3.0.8",
  "updatedAt": "2019-06-23T12:32:51.989Z",
  "devdoc": {
    "methods": {}
  },
  "userdoc": {
    "methods": {}
  }
}