{
  "contractName": "Session",
  "abi": [
    {
      "constant": true,
      "inputs": [],
      "name": "creator",
      "outputs": [
        {
          "name": "",
          "type": "address"
        }
      ],
      "payable": false,
      "stateMutability": "view",
      "type": "function",
      "signature": "0x02d05d3f"
    },
    {
      "constant": true,
      "inputs": [
        {
          "name": "",
          "type": "address"
        }
      ],
      "name": "attendes_feedback",
      "outputs": [
        {
          "name": "",
          "type": "uint8"
        }
      ],
      "payable": false,
      "stateMutability": "view",
      "type": "function",
      "signature": "0xc8dff625"
    },
    {
      "inputs": [
        {
          "name": "_sessionName",
          "type": "string"
        },
        {
          "name": "_description",
          "type": "string"
        },
        {
          "name": "_startTime",
          "type": "uint256"
        },
        {
          "name": "_endTime",
          "type": "uint256"
        },
        {
          "name": "_lecturer",
          "type": "address[]"
        },
        {
          "name": "_attendes",
          "type": "address[]"
        },
        {
          "name": "_creator",
          "type": "address"
        }
      ],
      "payable": false,
      "stateMutability": "nonpayable",
      "type": "constructor",
      "signature": "constructor"
    },
    {
      "constant": true,
      "inputs": [],
      "name": "Time",
      "outputs": [
        {
          "name": "",
          "type": "bool"
        }
      ],
      "payable": false,
      "stateMutability": "view",
      "type": "function",
      "signature": "0xf8e157ea"
    },
    {
      "constant": false,
      "inputs": [
        {
          "name": "_voter",
          "type": "address"
        },
        {
          "name": "_feedback",
          "type": "uint8"
        }
      ],
      "name": "take_feedback",
      "outputs": [],
      "payable": false,
      "stateMutability": "nonpayable",
      "type": "function",
      "signature": "0x47228fe3"
    },
    {
      "constant": true,
      "inputs": [],
      "name": "seeResult",
      "outputs": [
        {
          "name": "",
          "type": "uint8[5]"
        }
      ],
      "payable": false,
      "stateMutability": "view",
      "type": "function",
      "signature": "0xd6d46ba8"
    }
  ],
  "bytecode": "0x608060405234801561001057600080fd5b506040516107f93803806107f9833981018060405260e081101561003357600080fd5b81019080805164010000000081111561004b57600080fd5b8201602081018481111561005e57600080fd5b815164010000000081118282018710171561007857600080fd5b5050929190602001805164010000000081111561009457600080fd5b820160208101848111156100a757600080fd5b81516401000000008111828201871017156100c157600080fd5b505060208201516040830151606090930180519295919491926401000000008111156100ec57600080fd5b820160208101848111156100ff57600080fd5b815185602082028301116401000000008211171561011c57600080fd5b5050929190602001805164010000000081111561013857600080fd5b8201602081018481111561014b57600080fd5b815185602082028301116401000000008211171561016857600080fd5b505060209091015190925090508442811161018257600080fd5b87516101959060019060208b01906102d6565b5086516101a99060029060208a01906102d6565b506003869055600485905582516101c7906006906020860190610354565b5083516101db906005906020870190610354565b5060008054600160a060020a031916600160a060020a0384161790556006805460408051602080840282018101909252828152610268939092909183018282801561024f57602002820191906000526020600020905b8154600160a060020a03168152600190910190602001808311610231575b5050505050610275640100000000026401000000009004565b50505050505050506103f6565b60005b81518110156102d257600660086000848481518110151561029557fe5b602090810291909101810151600160a060020a03168252810191909152604001600020805460ff191660ff92909216919091179055600101610278565b5050565b828054600181600116156101000203166002900490600052602060002090601f016020900481019282601f1061031757805160ff1916838001178555610344565b82800160010185558215610344579182015b82811115610344578251825591602001919060010190610329565b506103509291506103b5565b5090565b8280548282559060005260206000209081019282156103a9579160200282015b828111156103a95782518254600160a060020a031916600160a060020a03909116178255602090920191600190910190610374565b506103509291506103d2565b6103cf91905b8082111561035057600081556001016103bb565b90565b6103cf91905b80821115610350578054600160a060020a03191681556001016103d8565b6103f4806104056000396000f3fe60806040526004361061006c5763ffffffff7c010000000000000000000000000000000000000000000000000000000060003504166302d05d3f811461007157806347228fe3146100a2578063c8dff625146100e0578063d6d46ba814610129578063f8e157ea14610176575b600080fd5b34801561007d57600080fd5b5061008661019f565b60408051600160a060020a039092168252519081900360200190f35b3480156100ae57600080fd5b506100de600480360360408110156100c557600080fd5b508035600160a060020a0316906020013560ff166101ae565b005b3480156100ec57600080fd5b506101136004803603602081101561010357600080fd5b5035600160a060020a0316610312565b6040805160ff9092168252519081900360200190f35b34801561013557600080fd5b5061013e610327565b604051808260a080838360005b8381101561016357818101518382015260200161014b565b5050505090500191505060405180910390f35b34801561018257600080fd5b5061018b61037f565b604080519115158252519081900360200190f35b600054600160a060020a031681565b600160a060020a038216600090815260086020526040902054829060ff1615156101d757600080fd5b600160a060020a03831660009081526008602052604090205460ff1660061461028d57600160a060020a03831660009081526008602052604090205460019060079060ff166005811061022657fe5b602080820490920154600160a060020a0387166000908152600890935260409092205460ff601f9092166101000a90920481169290920391600791166005811061026c57fe5b602091828204019190066101000a81548160ff021916908360ff1602179055505b600160a060020a0383166000908152600860205260409020805460ff191660ff8416908117909155600790600581106102c257fe5b602091828204019190069054906101000a900460ff1660010160078360ff166005811015156102ed57fe5b602091828204019190066101000a81548160ff021916908360ff160217905550505050565b60086020526000908152604090205460ff1681565b61032f6103a9565b6040805160a081019182905290600790600590826000855b825461010083900a900460ff168152602060019283018181049485019490930390920291018084116103475790505050505050905090565b6000600354421015801561039557506004544211155b80156103a45750600454600354105b905090565b60a060405190810160405280600590602082028038833950919291505056fea165627a7a723058201883637c7885a958800c22b2e5c0f32d50022c5fade53dd95183ea4a632756190029",
  "source": "pragma solidity 0.5.0;\ncontract Session {\n\n      address public creator;  // The address of parent Organization\n     \n      string sessionName;\n      string description;\n      uint startTime;\n      uint endTime;\n      address[] lecturer;\n      address[] attendes; \n\n      uint8[5]  result; \n      mapping(address => uint8) public attendes_feedback; //institution boardMembers\n\n      modifier onTime(uint _startTime){\n            require(now < _startTime);\n            _;\n      }\n  \n      constructor (string memory _sessionName, string memory _description, uint _startTime,uint _endTime,address[] memory   _lecturer,address[] memory  _attendes,address _creator) public onTime(_startTime){\n              \n              sessionName =  _sessionName;\n              description = _description;\n              startTime = _startTime;\n              endTime = _endTime;\n              attendes = _attendes;\n              lecturer = _lecturer;\n              creator = _creator;\n              initAttendes(attendes);\n      } \n      \n    function initAttendes(address[] memory _attendes) private{\n           for(uint i=0 ; i < _attendes.length ; i++){\n            attendes_feedback[_attendes[i]] = 6;\n        }\n    }\n   \n    function Time() public view returns (bool){\n       return (now >=  startTime  && now <= endTime && startTime < endTime);          \n     }\n\n    modifier checkTime(){\n        require(Time());\n        _;\n      }\n    modifier onlyVoter(address _voter){\n        require(attendes_feedback[_voter] != 0);\n        _;\n      }\n    function take_feedback(address _voter,uint8 _feedback)  public  onlyVoter(_voter) {\n           if (attendes_feedback[_voter] != 6) \n           {\n                result[attendes_feedback[_voter]]  = result[attendes_feedback[_voter]] - 1;\n           } \n           attendes_feedback[_voter] = _feedback; \n           result[_feedback] = result[_feedback] + 1;          \n    }\n     \n  function seeResult() public view returns(uint8[5] memory){\n          return result;\n  }\n}",
  "sourcePath": "/home/yehia/Documents/Projects/solidity/Feedblock/contracts/Session.sol",
  "compiler": {
    "name": "solc",
    "version": "0.5.0+commit.1d4f565a.Emscripten.clang"
  },
  "schemaVersion": "3.0.8",
  "updatedAt": "2019-07-02T17:24:27.438Z",
  "devdoc": {
    "methods": {}
  },
  "userdoc": {
    "methods": {}
  }
}