{
  "contractName": "Session",
  "abi": [
    {
      "constant": true,
      "inputs": [],
      "name": "creator",
      "outputs": [
        {
          "name": "",
          "type": "address"
        }
      ],
      "payable": false,
      "stateMutability": "view",
      "type": "function"
    },
    {
      "constant": true,
      "inputs": [
        {
          "name": "",
          "type": "address"
        }
      ],
      "name": "Islecturer",
      "outputs": [
        {
          "name": "",
          "type": "bool"
        }
      ],
      "payable": false,
      "stateMutability": "view",
      "type": "function"
    },
    {
      "constant": true,
      "inputs": [
        {
          "name": "",
          "type": "address"
        }
      ],
      "name": "attendes_feedback",
      "outputs": [
        {
          "name": "",
          "type": "uint8"
        }
      ],
      "payable": false,
      "stateMutability": "view",
      "type": "function"
    },
    {
      "constant": true,
      "inputs": [
        {
          "name": "",
          "type": "address"
        }
      ],
      "name": "Isattendes",
      "outputs": [
        {
          "name": "",
          "type": "bool"
        }
      ],
      "payable": false,
      "stateMutability": "view",
      "type": "function"
    },
    {
      "inputs": [
        {
          "name": "_sessionName",
          "type": "string"
        },
        {
          "name": "_description",
          "type": "string"
        },
        {
          "name": "_startTime",
          "type": "uint256"
        },
        {
          "name": "_endTime",
          "type": "uint256"
        },
        {
          "name": "_lecturer",
          "type": "address[]"
        },
        {
          "name": "_attendes",
          "type": "address[]"
        },
        {
          "name": "_creator",
          "type": "address"
        }
      ],
      "payable": false,
      "stateMutability": "nonpayable",
      "type": "constructor"
    },
    {
      "constant": true,
      "inputs": [],
      "name": "getattendes",
      "outputs": [
        {
          "name": "",
          "type": "address[]"
        }
      ],
      "payable": false,
      "stateMutability": "view",
      "type": "function"
    },
    {
      "constant": true,
      "inputs": [],
      "name": "getlecturers",
      "outputs": [
        {
          "name": "",
          "type": "address[]"
        }
      ],
      "payable": false,
      "stateMutability": "view",
      "type": "function"
    },
    {
      "constant": false,
      "inputs": [
        {
          "name": "_voter",
          "type": "address"
        },
        {
          "name": "_feedback",
          "type": "uint8"
        }
      ],
      "name": "take_feedback",
      "outputs": [],
      "payable": false,
      "stateMutability": "nonpayable",
      "type": "function"
    },
    {
      "constant": true,
      "inputs": [],
      "name": "seeResult",
      "outputs": [
        {
          "name": "",
          "type": "uint8[5]"
        }
      ],
      "payable": false,
      "stateMutability": "view",
      "type": "function"
    }
  ],
  "bytecode": "0x60806040523480156200001157600080fd5b5060405162000a2938038062000a29833981018060405260e08110156200003757600080fd5b8101908080516401000000008111156200005057600080fd5b820160208101848111156200006457600080fd5b81516401000000008111828201871017156200007f57600080fd5b505092919060200180516401000000008111156200009c57600080fd5b82016020810184811115620000b057600080fd5b8151640100000000811182820187101715620000cb57600080fd5b50506020820151604083015160609093018051929591949192640100000000811115620000f757600080fd5b820160208101848111156200010b57600080fd5b81518560208202830111640100000000821117156200012957600080fd5b505092919060200180516401000000008111156200014657600080fd5b820160208101848111156200015a57600080fd5b81518560208202830111640100000000821117156200017857600080fd5b5050602091820151895191945092506200019991600191908a019062000347565b508551620001af90600290602089019062000347565b50600385905560048490558151620001cf906006906020850190620003cc565b508251620001e5906005906020860190620003cc565b5060008054600160a060020a031916600160a060020a03831617905560058054604080516020808402820181019092528281526200027993869391929091908301828280156200025f57602002820191906000526020600020905b8154600160a060020a0316815260019091019060200180831162000240575b505050505062000286640100000000026401000000009004565b5050505050505062000479565b60005b8251811015620002e3576001600960008584815181101515620002a857fe5b602090810291909101810151600160a060020a03168252810191909152604001600020805460ff191691151591909117905560010162000289565b5060005b60055481101562000342576001600a600084848151811015156200030757fe5b602090810291909101810151600160a060020a03168252810191909152604001600020805460ff1916911515919091179055600101620002e7565b505050565b828054600181600116156101000203166002900490600052602060002090601f016020900481019282601f106200038a57805160ff1916838001178555620003ba565b82800160010185558215620003ba579182015b82811115620003ba5782518255916020019190600101906200039d565b50620003c892915062000432565b5090565b82805482825590600052602060002090810192821562000424579160200282015b82811115620004245782518254600160a060020a031916600160a060020a03909116178255602090920191600190910190620003ed565b50620003c892915062000452565b6200044f91905b80821115620003c8576000815560010162000439565b90565b6200044f91905b80821115620003c8578054600160a060020a031916815560010162000459565b6105a080620004896000396000f3fe60806040526004361061008d5763ffffffff7c010000000000000000000000000000000000000000000000000000000060003504166302d05d3f811461009257806341394a9d146100c357806347228fe3146101285780635a6f65f314610166578063c8dff625146101ad578063d6d46ba8146101f6578063d6f6e0c514610243578063e52f26df14610258575b600080fd5b34801561009e57600080fd5b506100a761028b565b60408051600160a060020a039092168252519081900360200190f35b3480156100cf57600080fd5b506100d861029a565b60408051602080825283518183015283519192839290830191858101910280838360005b838110156101145781810151838201526020016100fc565b505050509050019250505060405180910390f35b34801561013457600080fd5b506101646004803603604081101561014b57600080fd5b508035600160a060020a0316906020013560ff166102fc565b005b34801561017257600080fd5b506101996004803603602081101561018957600080fd5b5035600160a060020a031661045e565b604080519115158252519081900360200190f35b3480156101b957600080fd5b506101e0600480360360208110156101d057600080fd5b5035600160a060020a0316610473565b6040805160ff9092168252519081900360200190f35b34801561020257600080fd5b5061020b610488565b604051808260a080838360005b83811015610230578181015183820152602001610218565b5050505090500191505060405180910390f35b34801561024f57600080fd5b506100d86104e0565b34801561026457600080fd5b506101996004803603602081101561027b57600080fd5b5035600160a060020a0316610540565b600054600160a060020a031681565b606060068054806020026020016040519081016040528092919081815260200182805480156102f257602002820191906000526020600020905b8154600160a060020a031681526001909101906020018083116102d4575b5050505050905090565b600160a060020a038216600090815260096020526040902054829060ff16151561032557600080fd5b600160a060020a03831660009081526008602052604090205460ff16156103d957600160a060020a03831660009081526008602052604090205460019060079060ff166005811061037257fe5b602080820490920154600160a060020a0387166000908152600890935260409092205460ff601f9092166101000a9092048116929092039160079116600581106103b857fe5b602091828204019190066101000a81548160ff021916908360ff1602179055505b600160a060020a0383166000908152600860205260409020805460ff191660ff84169081179091556007906005811061040e57fe5b602091828204019190069054906101000a900460ff1660010160078360ff1660058110151561043957fe5b602091828204019190066101000a81548160ff021916908360ff160217905550505050565b600a6020526000908152604090205460ff1681565b60086020526000908152604090205460ff1681565b610490610555565b6040805160a081019182905290600790600590826000855b825461010083900a900460ff168152602060019283018181049485019490930390920291018084116104a85790505050505050905090565b606060058054806020026020016040519081016040528092919081815260200182805480156102f257602002820191906000526020600020908154600160a060020a031681526001909101906020018083116102d4575050505050905090565b60096020526000908152604090205460ff1681565b60a060405190810160405280600590602082028038833950919291505056fea165627a7a72305820dac227ef1b960d7f99bb897c8b9332155aaebabaa82323db8ef10174364969120029",
  "source": "pragma solidity 0.5.0;\ncontract Session {\n\n      address public creator;  // The address of parent Organization\n     \n      string sessionName;\n      string description;\n      uint startTime;\n      uint endTime;\n      address[] lecturer;\n      address[] attendes; \n\n      uint8[5]  result; \n      mapping(address => uint8) public attendes_feedback; //institution boardMembers\n      mapping(address => bool) public Isattendes;\n      mapping(address => bool) public Islecturer;\n      modifier onlyVoter(address _voter){\n              require(Isattendes[_voter]);\n              _;\n          }\n    \n      constructor (string memory _sessionName, string memory _description, uint _startTime,uint _endTime,address[] memory   _lecturer,address[] memory  _attendes,address _creator) public{\n              \n              sessionName =  _sessionName;\n              description = _description;\n              startTime = _startTime;\n              endTime = _endTime;\n              attendes = _attendes;\n              lecturer = _lecturer;\n              creator = _creator;\n              init(_attendes,lecturer);\n      } \n      function getattendes() view public returns (address[] memory) {\n        return attendes;\n      }\n      function getlecturers() view public returns (address[] memory) {\n        return lecturer;\n      }\n      \n    function init(address[] memory _attendes,address[] memory _lecturer) private{\n           for(uint i=0 ; i < _attendes.length ; i++){\n            Isattendes[_attendes[i]] = true;\n        }\n          for (uint i =0; i < lecturer.length; i++) {\n            Islecturer[_lecturer[i]]  = true;\n          }\n    }\n   \n   \n    function take_feedback(address _voter,uint8 _feedback)  public onlyVoter(_voter) {\n            if (attendes_feedback[_voter] != 0) \n           {\n                result[attendes_feedback[_voter]]  = result[attendes_feedback[_voter]] - 1;\n           } \n           attendes_feedback[_voter] = _feedback; \n           result[_feedback] = result[_feedback] + 1;         \n    }\n     \n  function seeResult() public view returns(uint8[5] memory){\n          return result;\n  }\n}",
  "sourcePath": "/home/yehia/Documents/Projects/solidity/Feedblock/contracts/Session.sol",
  "compiler": {
    "name": "solc",
    "version": "0.5.0+commit.1d4f565a.Emscripten.clang"
  },
  "schemaVersion": "3.0.8",
  "updatedAt": "2019-07-03T08:09:45.580Z",
  "devdoc": {
    "methods": {}
  },
  "userdoc": {
    "methods": {}
  }
}